:020000040800F2
:1000000090050020D5000008DD000008DF00000892
:1000100000000000000000000000000000000000E0
:10002000000000000000000000000000E1000008E7
:10003000E300000800000000E5000008ED3A0008B9
:10004000E9000008E9000008C9390008E9000008D3
:10005000E9000008E9000008E9000008E9000008DC
:10006000E9000008E9000008E9000008E9000008CC
:10007000C1050008E900000800000000E9000008D0
:1000800000000000E900000800000000000000007F
:10009000E900000800000000E9000008E90000088D
:1000A000E9000008E9000008E9000008D144000860
:1000B000E9000008E9000008ED360008E900000842
:1000C0000348854600F05AFA0048004725460008D4
:1000D000900500200548804705480047FEE7FEE7F9
:1000E000FEE7FEE7FEE7FEE7FEE70000093C00084A
:1000F000C100000830B50B46014600202022012433
:1001000009E00D46D5409D4205D31D469540491B4B
:100110002546954040191546521E002DF1DC30BD94
:1001200070B500242546002801DA01244042002948
:1001300001DA01254942FFF7DDFFAC4200D0404221
:10014000002C00D0494270BD024670B54A40D30F22
:10015000DB0740002DD04A002AD0010E140E000209
:1001600012020919400A520A8418E5010446544350
:10017000000A120A2E045043A4194219200CC54348
:10018000AA18120C0125AD03521C521912047F3912
:10019000240400D0521C104301D44000491EC2B2B6
:1001A0000C06C0092018401C4008802A02D003E039
:1001B000002070BD40084000002900DA00201843EC
:1001C00070BD70B502464A40D50F40004A00ED07A9
:1001D00040085208002814D0002A12D0C40DD30DB4
:1001E00041020120C0055202490A520AE41A0918C4
:1001F00012187D34914201D3641C00E04900002CA8
:1002000001DA002070BD0023914201D3891A034313
:10021000400849000028F7D100290AD0914202D1B4
:100220000121C90705E0914201D2012101E001212C
:10023000C943E005C018401900F0FFF870BD420046
:1002400005D04200120E52428A4201DB0020704764
:10025000C905081870470000F0B50C465C4085B031
:10026000E40FE40703944C00002664085900944608
:10027000490802460296224321D062460A431ED014
:100280006200570D4A000E032303550D0124024658
:100290002C492405781B1B0B360B4018234326439F
:1002A000614600901C46501AB44103D30098401C8C
:1002B000009002E0921800985B41002803DA0020C9
:1002C000014605B0F0BD002001210905074686461C
:1002D00011E064461D46141BB54106D36546521B0A
:1002E000B341744607430C43A646CD07400849086E
:1002F000284392185B4105460D43EAD11046184346
:1003000013D06046194650407140084306D06046FD
:10031000101AB34106D20122002306E00022012375
:10032000DB0702E00122D243531000987446010516
:10033000381C6141029C039D0019694100F0BEF820
:10034000BFE70000FD03000070B54B005B080343EE
:100350000BD04B005C0D002633466542B341D417E9
:10036000AD1AA34102DB0020014670BD1205301812
:10037000514170BDC217C10F504010B54018CA0797
:100380009623002100F061F810BD10B500229623DD
:10039000114600F05AF810BD0EB505490291002132
:1003A00000910A460B46019100F095F803B000BD9C
:1003B00033040000410040020122400AD205090E28
:1003C00080187F2901DA00207047962903DC9622E5
:1003D000511AC84070479639884070474A0009034F
:1003E0000123090B1B051943094B10B5520D9A4205
:1003F00001DA002010BD064B34339A4203DC9A1A0E
:1004000000F00AF810BD03495118884010BD0000E3
:10041000FF030000CDFBFFFF10B5202A04DB0846D8
:10042000203AD040002110BD0B46D340D0402024BC
:10043000A21A91400843194610BD002904DA401C55
:10044000490001D140084000704770B40024050CF9
:1004500005D11024000402D1002921D01124050E59
:1004600001D100020834050F01D10001241D850FC0
:1004700001D18000A41C002801DB4000641C00297D
:1004800008D020252E1B0D46F540A14000D00121AB
:100490002943084301061B1B000ADB1D02D500206F
:1004A00070BC7047DB05181880180029F8DA401C6A
:1004B0004900F5D170BC40084000704710B5002BD2
:1004C00008DA0024401C614192185B411A4301D1B3
:1004D0004008400010BDF0B51FB482B005460C00C6
:1004E00003D0084603F0FCFF02E003F0F9FF2030E0
:1004F000024600902146284600F052F8049B059AD7
:1005000004460F4618431143084314D018461043BD
:100510001BD0009840210A1A18460599FFF77CFF66
:1005200005460E46009A0599049800F039F80843EC
:1005300005D0012004E02046394607B0F0BD002078
:10054000C11705430E432C43374300990E986305AA
:10055000401A7905E40A00220C43FD0A0A3002D54C
:1005600000200146E9E70105101969410C9C0D9D29
:1005700000196941FFF7A2FFDFE70000064C0125E3
:10058000064E05E0E36807CC2B430C3C984710343B
:10059000B442F7D3FFF798FD388700085887000862
:1005A00010B5202A04DB0146203A9140002010BDFE
:1005B000914020239C1A0346E3401943904010BD0C
:1005C000F8B5234F386800680025C0434007214E26
:1005D000214C002829DB2078002804D0012812D0E3
:1005E000022822D119E0FF21002201311B4800F02E
:1005F00083FF174800F044FA1949088035702078C5
:10060000401C207011E0124800F03AFA15490880A9
:1006100035702078401C207007E00D4800F030FA5B
:10062000114908802078401C207038680168C9434F
:10063000090709D4082101600120307025700102EA
:100640000122064800F058FF014800F047FAF8BDC3
:1006500008010020000000200100002000040050DC
:100660004E000020500000205200002038B5044603
:10067000094808490068FFF73DFD60430090009875
:10068000002805D00098401E009000980028F9D15D
:1006900038BD000040420F0058000020F8B5044665
:1006A000206881688907890F012902D10168C9077B
:1006B0002ED18168174A102611400125002907D044
:1006C000A06D3043A065E06D2843E0650120F8BDD2
:1006D0008168294381600120FFF7C8FF00F06AFFAD
:1006E000074620680068C043C00711D000F062FFD1
:1006F000C01B0A2807D9A06D3043A065E06D2843D0
:10070000E0650120F8BD20680068C043C007EDD156
:100710000020F8BD1700008010B501F0D9FA10BD17
:1007200000B587B00A49CA6A02200243CA62C96A90
:1007300001400191C1010291012103910490002027
:10074000059002A9034800F04BFD07B000BD000072
:10075000001002400004005030B587B01248C16A52
:1007600001221143C162C16A11400191C26A022192
:100770000A43C262C06A084001900320400202900E
:100780000325039500240494052002A9000700F026
:1007900027FDFF20013002900395049402A903482D
:1007A00000F01EFD07B030BD0010024000040050F4
:1007B000F8B50446002627492068884203D09021D6
:1007C00025A003F0B3FE25464035287D012808D03A
:1007D00001202875206881688907890F01290ED1B9
:1007E00001E00220F8BD0168C90708D0A06D2021F2
:1007F0000843A0650126002028753046F8BDA16D8C
:10080000FF220132914302221143A16581689207C0
:100810001143816000F0CEFE074620688068002802
:1008200012DA00F0C7FEC01B0A2809D9A06D022108
:10083000884310210843A065002028750120F8BDD9
:10084000206880680028ECDBA06D80088000401CD8
:10085000A065D0E7002401402E2E2F4472697665F2
:1008600072732F53544D33324C3078785F48414C7B
:100870005F4472697665722F5372632F73746D33A0
:10088000326C3078785F68616C5F6164635F657853
:100890002E630000F8B506460C465449306888427D
:1008A00003D0534953A003F041FE2068012839D0FA
:1008B0005E49884236D04900884233D05C4988423C
:1008C00030D05C4988422DD05B4988422AD05B49B0
:1008D000884227D05A49884224D05A49884221D098
:1008E000594988421ED0594988421BD058498842EC
:1008F00018D05849884215D05749884212D05749D4
:1009000088420FD0564988420CD05649884209D0B7
:100910005549884206D05549884203D0544935A0EC
:1009200003F004FE0121090360684F1C884205D0D2
:10093000B84203D04F492FA003F0F8FD35464035AB
:10094000287D01280DD0012028753068816849076D
:1009500009D5B06D20210843B0650020287501201D
:10096000F8BD0220F8BD01213B46C90562684F1061
:10097000414E9A421DD0826A23685B035B0B1A4387
:1009800082622068400305D5B0680843B0600A2041
:10099000FFF76CFE2068800302D5B0683843B06072
:1009A0002068C0031FD5B068012109060843B06064
:1009B00019E0826A23685B035B0B9A4382622068BA
:1009C000400302D5B0688843B0602068800302D538
:1009D000B068B843B0602068C00304D5B168012096
:1009E00000068143B16000202875F8BD0024014055
:1009F0004D0600002E2E2F447269766572732F53B8
:100A0000544D33324C3078785F48414C5F447269C2
:100A10007665722F5372632F73746D33326C307836
:100A2000785F68616C5F6164632E6300020000049C
:100A30000800000C100000102000001440000018F6
:100A40008000001C00010020000200240004002897
:100A50000008002C00100030002000340040003856
:100A60000080003C000004480000024400000140F7
:100A70004E0600004F0600000027014070477047F7
:100A800010B5044605492068884203D0044905A0F2
:100A900003F04CFD2068006C10BD000000240140F4
:100AA000730500002E2E2F447269766572732F53E2
:100AB000544D33324C3078785F48414C5F44726912
:100AC0007665722F5372632F73746D33326C307886
:100AD000785F68616C5F6164632E630070B5044683
:100AE0003B492068884203D03A493BA003F01EFDF1
:100AF000A06A002805D0012803D0454936A003F09C
:100B000015FD20680168490702D54168490705D4E9
:100B10000168090730D5416809072DD5A16DC906BF
:100B200004D4A16D012252021143A165C1680C25B4
:100B30000905890F00291AD1A16A002917D1016876
:100B4000090714D5816801224907002908DB41689B
:100B5000A9434160A06D110288431043A06506E0DF
:100B6000A06D20210843A065E06D1043E06520469C
:100B7000FFF784FF206805602068016809060DD52D
:100B8000406800060AD5A06D012109040843A0654C
:100B9000204600F07BFA2168802008602068016808
:100BA000C90613D54168C90610D5216C1025002946
:100BB00002D0C168C90707D0E16D02221143E16587
:100BC00005602046FFF75BFF2068056070BD0000F0
:100BD00000240140840500002E2E2F4472697665A2
:100BE00072732F53544D33324C3078785F48414CF8
:100BF0005F4472697665722F5372632F73746D331D
:100C0000326C3078785F68616C5F6164632E63007A
:100C100085050000F8B50446002C7DD0FE4920680B
:100C2000884204D0FF217431FCA003F07FFC60698E
:100C3000002838D003218907884234D049428842AD
:100C400031D0490088422ED0490B88422BD0490030
:100C5000884228D003218904884224D00121090533
:100C6000884220D00521890488421CD00321C90470
:100C7000884218D007218904884214D001214905EF
:100C8000884210D00921890488420CD00521C9046A
:100C9000884208D00B218904884204D0FF21753195
:100CA000DEA003F043FCA06900280AD0082808D081
:100CB000102806D0182804D0FF217631D7A003F0E1
:100CC00035FCE069002812D0012810D002280ED08F
:100CD00003280CD004280AD0052808D0062806D0FE
:100CE000072804D0FF217731CCA003F01FFC206A35
:100CF000012806D0022804D0FF217831C7A003F0D4
:100D000015FC606A002806D0202804D0FF21793124
:100D1000C2A003F00BFC00E085E0A06A002806D02A
:100D2000012804D0FF217A31BCA003F0FFFBE06A68
:100D3000002806D0012804D0FF217B31B7A003F0A2
:100D4000F5FB606B00280FD00121890288420BD08F
:100D50004900884208D003218902884204D0FF213B
:100D60007C31AEA003F0E2FBFF25FF26206B81352E
:100D70000136002813D0402811D080280FD0C02879
:100D80000DD0B0420BD0A84209D00146FF39C1397D
:100D900005D0491E03D0291FA0A003F0C7FBA06BFC
:100DA000002806D0012804D0FF217E319BA003F04B
:100DB000BDFB206C002808D001210903884204D023
:100DC000FF217F3195A003F0B1FB606C002806D0B5
:100DD000012804D0FF21803190A003F0A7FBA06C74
:100DE000002805D0012803D029468CA003F09EFBE3
:100DF000E06C002806D0012804D0FF21823187A0B2
:100E000003F094FB6068002806D0012804D0FF217D
:100E1000833182A003F08AFBA06D2746002540376E
:100E2000002802D006E00120F8BDE5653D752046AA
:100E300000F02EF9A06DC00603D420688168490730
:100E400006D5A06D10210843A0653D750120F8BDB1
:100E5000A16D0222B1431143A16581687D4A8907D2
:100E6000890F012902D10168C9072BD103236169C8
:100E70009B07994205D05B42994202D05B009942A0
:100E800009D10169890089080161206801696369E4
:100E9000194301610CE001698900890801619068CA
:100EA0000F218904884390609068616908439060CD
:100EB0002068C16818239943C1602068C168A3698C
:100EC0001943C16090680121490688439060906889
:100ED000A16C49060843906020688168C90004D469
:100EE000816801221207114381602068C1685A4A53
:100EF0001140C160206A616A022823D000200143AA
:100F0000A06AA26B4003520010430143206C0143CE
:100F1000606C80030143E06CC00301432068C26839
:100F20001143C160206B0146FF39C23905D0616BA6
:100F300008432168CA681043C860E06A0127012895
:100F400002D00BE00420DAE7A06A002823D0A06DCD
:100F500020210843A065E06D3843E0656068012802
:100F600020D020680169C90703D0016949084900F8
:100F7000016120684169C908C9004161206841696F
:100F8000E26911434161E565A06D80088000401C65
:100F9000A0650020F8BD2068C16801221204114339
:100FA000C160DBE7A068002811D004280FD0082812
:100FB0000DD00C280BD0102809D0142807D01828E1
:100FC00005D01C2803D0254914A003F0AFFAE0682F
:100FD000002813D0202811D040280FD060280DD031
:100FE00080280BD0A02809D0C02807D0E02805D041
:100FF000B04203D01A4909A003F098FA20690028EA
:1010000008D0C11FFF39FA3904D08521890003A017
:1010100003F08CFA206825E0002401402E2E2F4496
:101020007269766572732F53544D33324C30787831
:101030005F48414C5F4472697665722F5372632F2B
:1010400073746D33326C3078785F68616C5F6164A3
:10105000632E6300002701401902FEFF1202000008
:10106000130200000169084A11400161206801690A
:10107000A26823691143E2681A43114301612068A1
:1010800001693943016174E703FCFF7F7047000089
:1010900000B585B000680E49884217D10D48416BF4
:1010A000421511434163122000900320019000205B
:1010B000029005206946000700F092F800221146D0
:1010C0000C2000F0BBFD0C2000F088FD05B000BD39
:1010D000002401400010024070B504460025284954
:1010E0002068884203D0274927A003F01FFA206810
:1010F0008068400741D426464036307D01280BD019
:1011000001203075E06C012803D02046FFF7C6FAB5
:101110000546002D02D031E0022070BDA06D2849A7
:101120000840FF2101310843A0650020E0653075CB
:1011300020681C260660E06B042807D0082805D02C
:101140000C2803D01F4910A003F0F0F9E06B042134
:10115000082808D0206842683243426020688268CC
:101160000A4382600AE0206842688A43426020683D
:10117000426818231A434260F0E70225284670BDF2
:1011800000240140450400002E2E2F44726976652C
:1011900072732F53544D33324C3078785F48414C42
:1011A0005F4472697665722F5372632F73746D3367
:1011B000326C3078785F68616C5F6164632E6300C5
:1011C000FEF1FFFF6E04000031B500F0F3F90446B4
:1011D00000F0F0F90099001B8842F9D338BD0000F7
:1011E000F8B505460C460026606800281FD0012887
:1011F0001DD011281BD0022819D0122817D0A249BF
:10120000884214D0A149884211D0A14988420ED009
:10121000A04988420BD0A049884208D09F49884203
:1012200005D0032803D0C0219DA003F07FF9A0685A
:10123000002807D0012805D0022803D0C12198A09A
:1012400003F074F905273F07BD4205D1206801046A
:10125000090C01D0000C26D0A048854205D1206899
:101260000104090C01D0000C1DD09D48854205D118
:1012700020680104090C01D0000C14D09948854263
:1012800005D12068410702D5042188430BD0964838
:10129000854204D12068810701D0800803D0C22193
:1012A0007FA003F043F9206800287DD00120B040E2
:1012B000276800900740002F77D06068022801D08F
:1012C000122851D105200007854210D1206900283D
:1012D0003DD001283BD0022839D0032837D004283C
:1012E00035D0052833D0062831D007282FD07B48A9
:1012F00085420ED12069002829D0012827D0022854
:1013000025D0032823D0042821D005281FD0062863
:101310001DD07348854208D12069002817D00128C4
:1013200015D0022813D0032811D06E48854204D16D
:10133000206900280BD0012809D06B48854202D1D2
:101340002069002803D0D12155A003F0EFF8F00860
:1013500080004319196A7007C00E0F228240914322
:10136000226982400A431A626068012805D0022877
:1013700003D0112801D0122821D1E068002809D01B
:10138000012807D0022805D0032803D0DE2144A07D
:1013900003F0CCF8A9687000032282409143E26810
:1013A00082400A43AA6001E06CE066E06868009948
:1013B00088432179C906C90FB140014369602B6890
:1013C0007000032181408B4322799207920F824063
:1013D0001A432A60EA688A43A16881401143E960A0
:1013E0006068C00049D54149486B012210434863F9
:1013F000B1083F4889000B189968B007000F0F2209
:101400008240914305221207954201D1002214E047
:10141000324A954201D101220FE0314A954201D171
:1014200002220AE02F4A954201D1032205E02E4A0A
:10143000954201D1052200E0062282400A439A60CB
:101440002C490868B8436268D20300D53843086065
:101450004868B8436268920300D53843486088689A
:10146000B8436268D20200D538438860C868B84380
:101470006268920200D53843C860761C2068F0404C
:1014800000D013E7F8BD000000001110000021108B
:101490000000311000001210000022100000321075
:1014A0002E2E2F447269766572732F53544D33324A
:1014B0004C3078785F48414C5F4472697665722F92
:1014C0005372632F73746D33326C3078785F686158
:1014D0006C5F6770696F2E630000000000040050AD
:1014E00000080050000C0050001C0050001002408A
:1014F000000001400004014070B505460C46164648
:1015000005200007854201D1002C1ED116488542D6
:1015100001D1002C19D11548854201D1002C14D1DC
:101520001348854205D1600703D50421204688432E
:101530000BD01048854203D1A00701D0A00804D0E9
:10154000FF21AD310CA002F0F1FF002E06D0012EDC
:1015500004D0FF21AE3108A002F0E8FF002E01D038
:10156000AC6170BDAC6270BD00040050000800505A
:10157000000C0050001C00502E2E2F44726976651E
:1015800072732F53544D33324C3078785F48414C4E
:101590005F4472697665722F5372632F73746D3373
:1015A000326C3078785F68616C5F6770696F2E634A
:1015B000000000000148006870470000540000204F
:1015C00002480168491C0160704700005400002077
:1015D00010B506480168402211430160002000F068
:1015E00007F800F0EDFA002010BD000000200240D6
:1015F00010B5044600F0EAFE7D21C900FEF77AFD31
:1016000001F032FF00222146501E00F017FB00209F
:1016100010BD0000F8B504460025002C7ED0E54939
:101620002068884203D0C721E3A002F07FFF6068F2
:1016300000283ED00121890588423AD049008842DD
:1016400037D003218905884233D001210906884219
:101650002FD00521890588422BD00321C905884256
:1016600027D007218905884223D0012149068842D5
:101670001FD00921890588421BD00521C905884250
:1016800017D00B218905884213D00321090688420F
:101690000FD00D21890588420BD00721C90588424A
:1016A00007D00F218905884203D0C821C2A002F0CB
:1016B0003DFFA068002840D00121890488423CD029
:1016C0004900884239D003218904884235D001215C
:1016D0000905884231D00521890488422DD0032193
:1016E000C904884229D007218904884225D00121D4
:1016F0004905884221D00921890488421DD005214D
:10170000C904884219D00B218904884215D00321CD
:101710000905884211D00D21890400E0D0E08842FB
:101720000BD00721C904884207D00F2189048842C1
:1017300003D0C921A0A002F0F9FEE06800280BD078
:10174000042809D0082807D00C2805D0102803D079
:10175000CA2199A002F0EAFE2069002807D02028BB
:1017600005D0402803D0CB2193A002F0DFFE6069B2
:10177000002805D0022803D0CC218FA002F0D6FE8D
:10178000206A002811D010280FD020280DD0302832
:101790000BD0402809D0502807D0602805D07028E9
:1017A00003D0CD2184A002F0C1FE606A002805D0DC
:1017B000012803D0CE2180A002F0B8FEE069002805
:1017C00018D0802816D0C11FF93913D0803911D014
:1017D00080390FD00521C90188420BD003210902AD
:1017E000884207D00721C901884203D0CF2172A0C7
:1017F00002F09CFEA06900281ED0012189028842C7
:101800001AD04900884217D003218902884213D098
:101810000121090388420FD00521890288420BD09B
:101820000321C902884207D007218902884203D0D8
:10183000D02161A002F07AFEE06A00281ED00121CA
:10184000490388421AD04900884217D0032149032E
:10185000884213D00121C90388420FD005214903D2
:1018600088420BD003218903884207D0072149030E
:10187000884203D0D12150A002F058FEA06A00286F
:101880000ED00121090488420AD04900884207D0BD
:1018900003210904884203D0D22147A002F046FE6A
:1018A000206B802805D0002803D0D32142A002F06D
:1018B0003DFE26462036707D0027002802D005E038
:1018C0000120F8BD3775204600F094F802207075AD
:1018D00020680168490849000160A80021681430A7
:1018E0000F506D1CEDB20F2DF7D9206881680422CE
:1018F000114381606168A068E26A0143A06A1043F5
:101900000143E0690143206A0143A0690143606A21
:10191000014320684268364B1A401143416020461B
:1019200001F0EEFEE1682069226B0143606910431B
:10193000014320680268FE239A4311430160206836
:101940000168012211430160FFF734FE054620685B
:101950008068C043C0070FD0FFF72CFE411B7D20DD
:10196000C000814203D90820A0630320F8BD20688D
:101970008068C043C007EFD1FFF71CFE0546206812
:101980008068C043C0060FD5FFF714FE411B7D20C1
:10199000C000814203D91020A0630320F8BD206855
:1019A0008068C043C006EFD4A76301207075002093
:1019B000F8BD0000002400402E2E2F447269766589
:1019C00072732F53544D33324C3078785F48414C0A
:1019D0005F4472697665722F5372632F73746D332F
:1019E000326C3078785F68616C5F6C63642E630082
:1019F0000F0000FC70B586B000681549884225D1FB
:101A00001448816B421511438163FF20CD30019052
:101A100002260296002403940494012505950520CE
:101A200001A90007FFF7DCFB0B4801900296039425
:101A30000494059501A90948FFF7D2FB0022032170
:101A40001E2000F0FBF81E2000F0C8F806B070BDA4
:101A500000240040001002403BFC00000004005045
:101A6000F8B5044621680820C8602068816804270A
:101A700039438160FFF79EFD064620688068254651
:101A8000C04300072035002810DAFFF793FD811BC3
:101A90007D20C000814204D9A7630020287503205F
:101AA000F8BD20688068C0430007EED40120687547
:101AB00000202875F8BD0000FFB581B006460C4631
:101AC00035462035687D012805D0687D022802D082
:101AD000012005B0F0BD002C22D0012C20D0022C1A
:101AE0001ED0032C1CD0042C1AD0052C18D0062C88
:101AF00016D0072C14D0082C12D0092C10D00A2C88
:101B00000ED00B2C0CD00C2C0AD00D2C08D00E2C87
:101B100006D00F2C04D0FF218D311BA002F006FD52
:101B2000687D012824D1287D012819D0012028753D
:101B300002206875FFF73EFD074630688068C043A5
:101B4000400715D4FFF736FDC11B7D20C000814240
:101B500009D90220B06300202875032005B0F0BD2C
:101B6000022005B0F0BD30688068C0434007E9D569
:101B7000A000316814300A58039B1A40049B1A4392
:101B80000A50002005B0F0BD2E2E2F4472697665F4
:101B900072732F53544D33324C3078785F48414C38
:101BA0005F4472697665722F5372632F73746D335D
:101BB000326C3078785F68616C5F6C63642E6300B0
:101BC00010B50548416B01221143416300221146C3
:101BD000501E00F033F810BD0010024010B504464E
:101BE000002C03DAAA2105A002F0A0FCE106C90E30
:101BF000012088401049086010BD00002E2E2F449F
:101C00007269766572732F53544D33324C30787845
:101C10005F48414C5F4472697665722F5372632F3F
:101C200073746D33326C3078785F68616C5F636FAA
:101C3000727465782E63000000E100E070B5044620
:101C40000D46042D03D39A2110A002F06FFCA007CB
:101C5000C00EFF228240A907090E8140002C0BDA3A
:101C60002007000F0838830817489B001818C3691D
:101C700093430B43C36170BDA30814489B0018181D
:101C8000036893430B43036070BD00002E2E2F4466
:101C90007269766572732F53544D33324C307878B5
:101CA0005F48414C5F4472697665722F5372632FAF
:101CB00073746D33326C3078785F68616C5F636F1A
:101CC000727465782E63000000ED00E000E400E02F
:101CD000BFF34F8F04490348C860BFF34F8F00BF65
:101CE000FDE700000400FA0500ED00E070B50446D1
:101CF0000D46002C06D0012C04D08721890010A0AD
:101D000002F014FC012D05D0022D03D01A490CA0BD
:101D100002F00CFC19490868800880002043086024
:101D20001748026904210A430261012D06D040BF11
:101D300020BF20BF02698A43026170BD30BFF9E74E
:101D40002E2E2F447269766572732F53544D3332A1
:101D50004C3078785F48414C5F4472697665722FE9
:101D60005372632F73746D33326C3078785F6861AF
:101D70006C5F7077722E63001D02000000700040DF
:101D800000ED00E0F8B5044600268049206888424E
:101D900003D9C1217EA002F0C9FB20688B4D8106CA
:101DA00001D4000556D58A48816B02041143816332
:101DB000884800681115084386490860FFF7FAFB58
:101DC000074684480068C0050AD4FFF7F3FBC01B30
:101DD000642801D90320F8BD7E480068C005F4D509
:101DE000286903273F04616938403940884203D19C
:101DF000A0693840B0422DD02869B8432969012232
:101E0000D204114329612969914329612861800520
:101E100010D5FFF7CFFB0646286980050AD4FFF7E7
:101E2000C9FB811B6C48814201D90320F8BD286998
:101E30008005F4D5606981038A0F03210905032A0F
:101E40007ED0634A10688843106028696169B8438E
:101E5000084328612078C00713D0606800280AD0A2
:101E6000012808D0032806D0022804D0FF2104311D
:101E700047A002F05BFBE8686168800880000843C7
:101E8000E8602078800713D5A06800280AD00428CD
:101E900008D00C2806D0082804D0FF210F313CA020
:101EA00002F044FBE8680C218843A1680843E8601D
:101EB0002078400717D50326E068B60200280DD029
:101EC00001218902884209D0B04207D049008842E6
:101ED00004D0FF2119312EA002F028FBE868E16848
:101EE000B0430843E8602078000715D52069002832
:101EF0000BD001210903884207D04900884204D051
:101F0000FF21233122A002F011FBE868032109031D
:101F1000884321690843E8602078400612D50126ED
:101F2000E069B606B04206D0002804D0FF213A315D
:101F300017A002F0FBFAE868E169B043084300E04B
:101F40001DE0E8602078000617D50326206AB60455
:101F500000280DD001218904884209D04900884217
:101F600006D0B04204D0FF21423109A002F0DEFACF
:101F7000E868216AB0430843E8600020F8BD144BCC
:101F80001A68B8438A4302431A605EE7FF080000FC
:101F90002E2E2F447269766572732F53544D33324F
:101FA0004C3078785F48414C5F4472697665722F97
:101FB0005372632F73746D33326C3078785F68615D
:101FC0006C5F7263635F65782E63000040100240AF
:101FD000001002400070004088130000F8B504466D
:101FE0000D46002C03D1DF49DFA002F09FFA2068E4
:101FF000401E0E2803D9EA49DBA002F097FA002D13
:1020000005D0012D03D0E749D7A002F08FFAE648AA
:102010000068F027C007C00FE44EA84273D2E24820
:10202000016849084900294301600068C007C00FE2
:10203000A84201D00120F8BD207880071BD5A068F8
:10204000002813D0802811D090280FD0A0280DD0C0
:10205000B0280BD0C02809D0D02807D0E02805D060
:10206000F02803D0D249C0A002F060FAF068A1685D
:10207000B8430843F0602078C00757D06068012853
:102080000AD0022808D0002806D0032804D05B21FB
:10209000C900B5A002F04AFA6068022808D00028FA
:1020A0000BD003280ED03168490710D40120F8BDA9
:1020B000316889030BD40120F8BD3168890506D445
:1020C0000120F8BD3168890101D40120F8BDF16813
:1020D000890889000143F160FFF76CFA05466068E2
:1020E000022811D0032822D0002833D0F06800073E
:1020F000800F01281AD0AF4FFFF75CFA401BB8429F
:1021000039D90320F8BD3CE0F0680007800F0228B1
:102110000CD0A84FFFF74EFA401BB84201D903205C
:10212000F8BDF0680007800F0228F3D1DAE0F0680C
:102130000007800F03286FD09E4FFFF73BFA401B2C
:10214000B84201D90320F8BDF0680007800F0328CA
:10215000F3D1C7E0F0680007800F5DD0954FFFF71F
:1021600029FA401BB84201D90320F8BDF0680007E6
:10217000800FF4D1B6E0F0680007800F0128BBD1D2
:10218000B0E0207880071CD5A068002814D08028F3
:1021900012D0902810D0A0280ED0B0280CD0C02883
:1021A0000AD0D02808D0E02806D0F02804D0CD21CD
:1021B00089006DA002F0BAF9F068A168B84308433D
:1021C000F0602078C00756D06068012809D0022846
:1021D00007D0002805D0032803D0774962A002F079
:1021E000A5F96068022808D000280BD003280ED07B
:1021F0003168490711D40120F8BD316889030CD436
:102200000120F8BD3168890507D40120F8BD316887
:10221000890102D40120F8BD64E0F16889088900D1
:102220000143F160FFF7C6F907466068022810D045
:10223000032821D0002832D0F0680007800F012841
:1022400043D0FFF7B7F9C11B5A48814238D9032060
:10225000F8BDF0680007800F022836D0FFF7AAF912
:10226000C11B5448814201D90320F8BDF068000722
:10227000800F0228F2D128E0F0680007800F0328C1
:1022800023D0FFF797F9C11B4A48814201D90320A7
:10229000F8BDF0680007800F0328F2D115E0F06860
:1022A0000007800F11D0FFF785F9C11B414881421B
:1022B00001D90320F8BDF0680007800FF3D104E0D6
:1022C000F0680007800F0128BBD137480168490832
:1022D0004900294301600068C007C00FA84201D02F
:1022E0000120F8BD2078354F354D400717D5E068FF
:1022F00000280FD0B8420DD005210902884209D02C
:1023000003214902884205D0A84203D02D4916A0D6
:1023100002F00CF9F068E168A8430843F060207807
:1023200000071AD5206900280FD0B8420DD005212A
:102330000902884209D003214902884205D0A842F7
:1023400003D0214908A002F0F1F8F0680721C90282
:1023500088432169C9000843F0600020FFF748F96D
:102360000020F8BDB90200002E2E2F447269766558
:1023700072732F53544D33324C3078785F48414C50
:102380005F4472697665722F5372632F73746D3375
:10239000326C3078785F68616C5F7263632E6300C3
:1023A000BA020000BB020000002002400010024000
:1023B000D1020000881300003B030000000400006D
:1023C000000700009F030000A603000010B500F006
:1023D00031F80549C968054A0906090F515CC8402A
:1023E0000349086010BD0000001002402587000866
:1023F0005800002010B5FFF7E9FF0449C968044AF6
:102400004905490F515CC84010BD00000010024052
:102410002587000810B5FFF7D9FF0449C968044AA9
:102420008904490F515CC84010BD000000100240F3
:102430002587000810B5214B58680004420FD96861
:102440000C2001401E4808D0042909D008290ED0CC
:102450000C290ED0521C904010BD521C904010BD53
:102460001868C00601D5174810BD174810BD174899
:1024700010BDD8680F2189040840D968032292054D
:102480001140820C1248805C890D491CDA680124D5
:1024900024042240002A04D00C4A5043FDF72AFEAF
:1024A00010BD1A68D20604D5064A5043FDF722FE35
:1024B00010BD054A5043FDF71DFE10BD001002403F
:1024C0000080000000093D000024F40000127A00A2
:1024D0001C870008F0B583B00446002C03D1EC2122
:1024E000F6A002F023F820683F2803D9ED21F3A0DD
:1024F00002F01CF82078FF4EC0076BD005256068FD
:102500002D04002809D001210904884205D0A842E1
:1025100003D0F221E9A002F009F8F0680007800F6B
:10252000022807D0F0680007800F03280BD1F0685D
:10253000C00308D5306880034CD56068002849D1B5
:10254000012003B0F0BD012160680904884203D175
:1025500030680843306015E0A8420BD130688843EA
:1025600030603068012292041043306030680843C4
:10257000306007E0306888433060316801208004B3
:10258000814331606068002812D0FFF713F80546D8
:10259000306880031ED4D84FFFF70CF8401BB842B8
:1025A00002D9032003B0F0BD30688003F4D511E0F8
:1025B000FFF700F80546306880030BD5CE4FFEF7D5
:1025C000F9FF401BB84202D9032003B0F0BD3068C8
:1025D0008003F4D42078800766D5E068002808D00E
:1025E000012806D0092804D0FF212431B3A001F02E
:1025F0009DFF20691F2804D9FF212531AFA001F0DC
:1026000095FFF0681F270007800F3F02012807D0C1
:10261000F0680007800F032812D1F068C0030FD4C0
:102620003068400705D5E068012802D0012003B0DA
:10263000F0BD70682169B84309020843706033E057
:10264000E168092000291BD0326882430A433260C6
:10265000FEF7B0FF0546306840070AD4FEF7AAFF30
:10266000401B642802D9032003B0F0BD3068400746
:10267000F4D570682169B84309020843706013E01B
:10268000316881433160FEF795FF054630684007A9
:102690000AD5FEF78FFF401B642802D9032003B040
:1026A000F0BD30684007F4D42078C00661D5F068EA
:1026B000924F0007800F1FD0E069002806D0012844
:1026C00004D0FF217F317DA001F030FFE0690028B8
:1026D0007ED03068FF21013108433060FEF76AFF89
:1026E0000546306880054BD4FEF764FF401B642824
:1026F00043D9032003B0F0BD3068800502D5E069FE
:10270000002837D0206AFF2804D9FF2170316BA040
:1027100001F00CFF606A00281AD0B84218D00121DD
:102720008903884214D003214903884210D0012133
:10273000C90388420CD005214903884208D00321EF
:102740008903884204D0FF2171315CA001F0EEFEC4
:102750007068072149038843616A084370607068A4
:10276000218C0002000A0906084370600020FEF771
:102770003FFF52E0012003B0F0BD30688005B3D5C3
:10278000206AFF2804D9FF2192314CA001F0CEFE2F
:10279000606A00281AD0B84218D001218903884203
:1027A00014D003214903884210D00121C903884273
:1027B0000CD005214903884208D0032189038842AF
:1027C00004D0FF2193313DA001F0B0FE706800E01D
:1027D0000DE0072149038843616A0843706070680F
:1027E000218C0002000A09060843706015E0316878
:1027F000FF20013081433160FEF7DCFE0546306882
:1028000080050AD5FEF7D6FE401B642802D90320B6
:1028100003B0F0BD30688005F4D42078384D00074F
:1028200037D56069002806D0012804D0FF21B231D5
:1028300022A001F07BFE6069002815D029690120E3
:1028400001432961FEF7B6FE07462869800720D4B8
:10285000FEF7B0FEC01B642802D9032003B0F0BD10
:1028600028698007F4D514E02869400840002861F1
:10287000FEF7A0FE0746286980070AD5FEF79AFEF4
:10288000C01B642802D9032003B0F0BD286980076B
:10289000F4D4207880066AD5A069002806D00128E3
:1028A00004D0FF21DE3105A001F040FEA1691548EA
:1028B000002943D0B1680122114325E02E2E2F4478
:1028C0007269766572732F53544D33324C30787879
:1028D0005F48414C5F4472697665722F5372632F73
:1028E00073746D33326C3078785F68616C5F7263DB
:1028F000632E6300001002408813000000200000D7
:102900004010024000000140B160716B11437163DF
:10291000016AC04A11430162FEF74CFE0746B068E7
:10292000800724D4FEF746FEC01B642802D903208A
:1029300003B0F0BDB0688007F4D518E0B16849086D
:102940004900B160016AB44A11400162FEF732FEEB
:102950000746B06880070AD5FEF72CFEC01B642826
:1029600002D9032003B0F0BDB0688007F4D420780A
:1029700040077CD5002700200190A06800280BD0DC
:10298000C11FF93908D005210902884204D08321EA
:102990008900A24801F0CAFDB06BC00005D4B06B3D
:1029A000012109070843B06301279D480068C0055D
:1029B0001CD49B480068FF210131084398490860F6
:1029C00001200190FEF7F6FD029095480068C005D1
:1029D0000CD4FEF7EFFD0299401A642802D90320B7
:1029E00003B0F0BD8E480068C005F2D5A068C11FD5
:1029F000F93912D001229202002814D005210902CF
:102A0000884219D1296990108143296129691143AC
:102A1000296129690143296116E02869FF210131F3
:102A20000843286110E02869FF21013188432861AB
:102A300028699043286107E02869FF210131884314
:102A40002861286990432861A068002814D0FEF707
:102A5000B1FD02902869800521D4FEF7ABFD0299F3
:102A6000411A7048814203D9032003B0F0BD24E02D
:102A700028698005F1D512E0FEF79CFD02902869D7
:102A800080050CD5FEF796FD0299411A65488142F2
:102A900002D9032003B0F0BD28698005F2D4019863
:102AA000012804D15E480168821591430160012F1D
:102AB00003D1B16B38078143B163A06A002807D006
:102AC000012805D0022803D05749544801F02EFDB3
:102AD000A06A00287ED0F1680907890F03297AD0FF
:102AE00001273F06022810D03068B8433060FEF757
:102AF00061FD0446306880016CD5FEF75BFD001B6C
:102B000064287CD9032003B0F0BDE06A002807D018
:102B100001210904884203D04449404801F006FDE0
:102B2000206B002822D00121890488421ED0490050
:102B300088421BD003218904884217D0012109054E
:102B4000884213D00521890488420FD00321C9048B
:102B500088420BD007218904884207D0012149050A
:102B6000884203D032492D4801F0E0FC0121606B1E
:102B7000890588420BD04900884208D00321890585
:102B8000884204D013214901244801F0CFFC306869
:102B9000B8433060FEF70EFD0546306880010AD567
:102BA000FEF708FD401B642802D9032003B0F0BDE6
:102BB00030688001F4D4616B206BF2680843E16AED
:102BC000FD231B049A4311430843F06030683843E7
:102BD000306002E017E019E011E0FEF7EBFC04467C
:102BE000306880010FD4FEF7E5FC001B642802D991
:102BF000032003B0F0BD30688001F4D503E03068F5
:102C0000800100D579E7002003B0F0BD012003B0BA
:102C1000F0BD000001200000FEDFFFFFBC2800081F
:102C20000070004088130000550200005E020000A2
:102C30005F020000F8B504460F461646002E0ED07F
:102C4000012E0CD0022E0AD0032E08D0042E06D05E
:102C5000062E04D04321090141A001F067FC4F4832
:102C6000874203D94E493EA001F060FC254620353D
:102C70002878012825D0012028700220687021685A
:102C8000CA20486221685320486220688068400555
:102C90001DD5FEF78FFC00902068C068400716D550
:102CA000FEF788FC0099411A7D20C00081420AD9B4
:102CB0002168FF20486203206870002028700320EC
:102CC000F8BD0220F8BD2068C0684007E8D420683D
:102CD0008268012189028A438260FEF76BFC0090C2
:102CE0002068C068400714D4FEF764FC0099411ABC
:102CF0007D20C000814208D92168FF20486203205E
:102D00006870002028700320F8BD2068C068400764
:102D1000EAD52068476120688168C908C9008160D8
:102D200020688168314381601E48026801210905DD
:102D30000A43026082680A43826020688168012237
:102D400092031143816020688168121111438160F0
:102D50002168FF2048620120687000202870F8BDBB
:102D60002E2E2F447269766572732F53544D333271
:102D70004C3078785F48414C5F4472697665722FB9
:102D80005372632F73746D33326C3078785F68617F
:102D90006C5F7274635F65782E630000FFFF000054
:102DA00031040000000401407047000010B50446E3
:102DB0002068C068400509D52046FFF7F5FF206868
:102DC000C16880221140054A8918C1600120044968
:102DD0000005486101202034607010BD7FFBFFFFBB
:102DE0000004014070B50446002C54D04E492068C0
:102DF000884203D0BB214DA001F098FB60684028B9
:102E000005D0002803D0BC2148A001F08FFBA068AA
:102E10007F2803D9BD2145A001F088FB5149E06816
:102E2000884203D9BE2141A001F080FB206900281F
:102E30000ED00121490588420AD04900884207D0B6
:102E400003214905884203D0BF2138A001F06EFB61
:102E50006069002805D0022803D0C02133A001F00A
:102E600065FBA069002807D001210905884203D02D
:102E7000C1212EA001F05AFBE069002805D00128ED
:102E800003D0C22129A001F051FB254620356878E6
:102E9000002802D006E0012070BD002028702046E6
:102EA00000F064F8022068702168CA204862216836
:102EB00053204862204600F067FDFF21002805D01E
:102EC0002068416204206870012070BD206882681B
:102ED000254B1A408260206882686368A6691A439D
:102EE000236933431A4382602268E06810612068D6
:102EF000026923891B041A4302612068C268802387
:102F00009A43C2602068C26C92089200C264E2696F
:102F1000606902432068C36C1A43C264206841623E
:102F200001206870002070BD002800402E2E2F4424
:102F30007269766572732F53544D33324C30787802
:102F40005F48414C5F4472697665722F5372632FFC
:102F500073746D33326C3078785F68616C5F727453
:102F6000632E6300FF7F0000BFFF8FFF10B5006876
:102F7000084988420DD10848016901229204114391
:102F80000161002211460220FEF758FE0220FEF7E2
:102F900025FE10BD0028004040100240F8B505464F
:102FA0000C461746002F05D0012F03D05A495BA0CD
:102FB00001F0BCFA2E4620363078012806D00120D8
:102FC000307002207070002F02D008E00220F8BD9F
:102FD0006078C10603D5EF2108400A306070207880
:102FE00001280FD002280DD003280BD0042809D0C7
:102FF000052807D0062805D0072803D0554947A043
:1030000001F094FA002F3CD0E07800F0A9FC63288E
:1030100004D94D21C90041A001F088FA607800F080
:103020009FFC401E0B2803D94B493CA001F07EFABF
:10303000A07800F095FC401E1E2804D99B21890031
:1030400036A001F073FAE078A778000407436078AF
:10305000217800024903084307432968CA204862CF
:10306000296853204862284600F08EFC002400287E
:103070002FD02968FF20486204207070347001202E
:10308000F8BDE078632803D9344924A001F04EFA52
:103090006078401E0B2803D9314920A001F046FA80
:1030A000A078401E1E2803D92E491CA001F03EFA2C
:1030B000E07800F05DFC0704607800F059FC000245
:1030C0000743A07800F054FC0743207840030743EF
:1030D000C3E725480740286847602868C168802200
:1030E0009143C1602868806880060CD4284600F0AF
:1030F0005BF9002807D02968FF204862042070701F
:1031000034700120F8BD2968FF20486201207070EA
:1031100034700020F8BD00004D0200002E2E2F4418
:103120007269766572732F53544D33324C30787810
:103130005F48414C5F4472697665722F5372632F0A
:1031400073746D33326C3078785F68616C5F727461
:10315000632E6300590200006A0200005D02000055
:103160005E0200005F0200003FFFFF00F8B5054669
:103170000C461746002F06D0012F04D0FF219B31AB
:103180007AA001F0D3F90121E0684904884209D00E
:103190004910884206D0002804D0FF219C3173A03A
:1031A00001F0C4F92069002808D00121890488426F
:1031B00004D0FF219D316DA001F0B8F92E462036D4
:1031C000307801281FD00120307002207070002F4D
:1031D0001BD02868806840065AD5207800F0C0FBD4
:1031E000401E0B2804D9FF21BD3160A001F09EF9DB
:1031F000E078002858D0402856D0FF21BE315BA08F
:1032000001F094F950E00220F8BD2868806840067B
:1032100013D52078401E0B2804D9FF21A83153A0D4
:1032200001F084F9E078002811D040280FD0FF2168
:10323000A9314EA001F07AF909E00020E070207871
:10324000172804D9FF21AE3148A001F06FF960784A
:103250003B2804D9FF21B03144A001F067F9A078E0
:103260003B2804D9FF21B13140A001F05FF920785B
:1032700000F07EFB0704607800F07AFB0002074351
:10328000A07800F075FB0743E0780004074329E0CD
:103290000020E070207800F063FB172804D9FF219C
:1032A000C33132A001F042F9607800F059FB3B28AD
:1032B00004D9FF21C5312DA001F038F9A07800F024
:1032C0004FFB3B2804D9FF21C63128A001F02EF97D
:1032D0002078A778000407436078E17800020904A9
:1032E000084307432968CA20486229685320486276
:1032F000284600F049FB002808D02968FF204862D2
:1033000004207070002030700120F8BD254807406F
:103310002868076028688268012189048A438260DE
:10332000E168206901432868826811438160286848
:10333000C16880229143C1602868806880060DD4EE
:10334000284600F031F8002808D02968FF2048629C
:1033500004207070002030700120F8BD2968FF2023
:1033600048620120707000203070F8BD2E2E2F446E
:103370007269766572732F53544D33324C307878BE
:103380005F48414C5F4472697665722F5372632FB8
:1033900073746D33326C3078785F68616C5F72740F
:1033A000632E63007F7F7F0070B504462068C1688C
:1033B000A0229143C160FEF7FDF805462068C06871
:1033C00080060CD47D26F600FEF7F4F8401BB042D0
:1033D00001D9032070BD2068C0688006F4D50020A4
:1033E00070BD00000248016902221143016170476B
:1033F00000E000E010B50446042C06D0002C04D0F8
:10340000FF212D3107A001F091F804211448042C6C
:1034100003D002698A43026110BD02690A43026156
:1034200010BD00002E2E2F447269766572732F53E3
:10343000544D33324C3078785F48414C5F44726968
:103440007665722F5372632F73746D33326C3078DC
:10345000785F68616C5F636F727465782E630000DB
:1034600000E000E07047000010B40B49401E8842A5
:1034700002D910BC01207047084948610848072359
:10348000C2691202120A4C042243C2610020886100
:103490000B6110BC70470000FFFFFF0000E000E080
:1034A00004ED00E010B5FFF7DDFF10BD0248016933
:1034B000022291430161704700E000E070477047CD
:1034C00070B504462068C1692546C90701266035E4
:1034D000002907D00168C90504D50662E06E3043B3
:1034E000E0666E722068C16904228B070221002BFE
:1034F00007DA8368DB0704D00162E06E1043E06600
:103500006E722068C3695B0707D58368DB0704D048
:103510000262E06E0843E0666E722068C1690907C6
:1035200008D58168C90705D008210162E06E08430B
:10353000E0666E72E06E002802D02046FFF7BFFF03
:103540002068C169C90209D58168490206D50121EF
:10355000090501626E722046FFF7B0FF2068C1695D
:10356000890605D50068800602D5204600F0BEFC1D
:103570002068C169090605D50068000602D5204605
:1035800000F000FF2068C169490605D500684006C3
:1035900002D5204600F096FC70BD000070B50446D0
:1035A000002C12D0A0692649264A274B00280ED0AD
:1035B0002068884217D0904215D0984213D0FF213E
:1035C000123122A000F0B2FF0DE0012070BD206892
:1035D000884208D0904206D0984204D0FF2117318B
:1035E0001AA000F0A3FF25466035687A002803D1B1
:1035F0002872204600F048F80220687220680168AE
:10360000490849000160204600F0BCFC606A0028BF
:1036100002D0204600F022FB206841680922D20235
:1036200091434160206881682A229143816020682B
:103630000168012211430160204600F017FC70BDB3
:103640000038014000440040004800402E2E2F4426
:103650007269766572732F53544D33324C307878DB
:103660005F48414C5F4472697665722F5372632FD5
:1036700073746D33326C3078785F68616C5F75613C
:1036800072742E630000000000B585B00068114917
:1036900088421DD11048416B0122920311434163BE
:1036A000032040020090022001900120029003209C
:1036B000039004200490052069460007FDF790FD63
:1036C000002203211B20FEF7B9FA1B20FEF786FA21
:1036D00005B000BD0038014000100240704770473F
:1036E00001490020087070470000002003480221B3
:1036F0000268D16000680821C16070475C0000204A
:1037000070B50446FDF756FF054620688068C04343
:1037100080060FD57D26F600FDF74CFF401BB0421A
:1037200003D90120A063032070BD20688068C043D6
:103730008006F1D4002070BD10B5084800684168CB
:103740001F225203114341600448FFF7D9FF0422AE
:1037500096210348FFF76EFA10BD00005C000020C0
:103760006801002000B583B01848174901600021A6
:10377000416001229207426181610122C2610262BD
:1037800041628162C262416381630422C263016457
:1037900041648164C164FDF73DFA0D4800908013D7
:1037A000019069460948FDF775F80A480090694696
:1037B0000648FDF76FF80848009069460348FDF792
:1037C00069F803B000BD000000240140080100209A
:1037D000020000041000001000000244F0B587B0A1
:1037E0002648C26A04210A43C262C26A0A400192A0
:1037F000C26A80210A43C262C26A0A400192C16A57
:1038000001263143C162C16A31400191C16A02257A
:103810002943C162C06A28400190072040030290FA
:10382000032403940027049702A91548FDF7D8FC48
:1038300002940394049702A91248FDF7D1FC1248A0
:10384000029003940497052002A90007FDF7C8FC25
:10385000B12080000290039404970C4C02A92046EA
:10386000FDF7BEFCE801029003960495059702A9B6
:103870002046FDF7B5FC07B0F0BD00000010024087
:1038800000080050001C0050219800000004005067
:1038900010B50E480C4901600121C90541600021A5
:1038A0008160C16001614161032292028261012253
:1038B0005202C2617022026241628162C16201638E
:1038C000FDF7A8FE10BD0000002400405C000020B1
:1038D00010B586B0144813490160002444607F216C
:1038E0008160FF21C160046144618461C461FFF7AC
:1038F00079FA019404940594012201A90A48FFF77A
:1039000035FC01206946087048708870CC7001222F
:103910000548FFF743FB04221E210348FFF78AF9FD
:1039200006B010BD002800406801002010B50B480B
:1039300009490160E12149024160C9048160002117
:10394000C16001610C2242618161C1610162416219
:10395000FFF724FE10BD0000003801409800002051
:1039600001090A2251430007000F4018C0B27047F6
:1039700000210A2804D3491C0A38C0B20A28FAD206
:103980000907090E0843704770B504462068C168EE
:10399000490616D40021C943C160FDF70BFE054658
:1039A0002068C06840060CD47D26F600FDF702FEB4
:1039B000401BB04201D9032070BD2068C06840069A
:1039C000F4D5002070BD000010B50248FFF7EEF9F5
:1039D00010BD00006801002070B50D498000085836
:1039E0006421FCF79DFB05B20A212846FCF798FBF1
:1039F00004B221462846FCF793FB052906DD002C7E
:103A000002DB641C24B201E0641E24B2204670BDB7
:103A10001C47000810B5064909884843FCF7AAFC72
:103A20000B21C943FCF70BFCFCF7C4FC80B210BDB2
:103A30004600002070B501460B48048B0B484480BB
:103A40000846FCF7A2FC05462046FCF79EFC084908
:103A5000FCF77AFB2946FCF7B4FB0649FCF774FB3C
:103A6000FCF7A8FC80B270BD6000F81F4600002083
:103A70000000404000007A4410B5174C206881686F
:103A8000022211438160216803200860FFF70EFDC8
:103A9000FCF762FE114801680422114301601048DE
:103AA0000068C168802211400E4A8918C160012057
:103AB0000D490005486101210846FEF717F900F09D
:103AC0005FF8FFF78FFCFCF72BFE2068816801226E
:103AD0001143816010BD000008010020007000400B
:103AE000680100207FFBFFFF0004014010B5FDF7D7
:103AF00067FDFFF7D7FC10BD30B59DB01E48816B48
:103B00000204114381631D4801680322D2029143DC
:103B1000C214891801600A200E9001251195102009
:103B200012901395002418940EA8FEF7D3FC0320DE
:103B300009900A95A0200B900C940D94002109A8DF
:103B4000FEF74CFA21200090019468040590684625
:103B5000FEF718F9FEF73AFC7D21C900FCF7CAFA16
:103B6000FFF782FC0420FFF745FC00221146501E9F
:103B7000FEF764F81DB030BD001002400070004038
:103B800030B59DB01E48816B0204114381631D480E
:103B900001680322D2029143C214891801600A20ED
:103BA0000E90012511951020129013950024189461
:103BB0000EA8FEF78FFC032009900A95A0200B9019
:103BC0000C940D94002109A8FEF708FA212000901A
:103BD0000194680405906846FEF7D4F8FEF7F6FBFA
:103BE0007D21C900FCF786FAFFF73EFC0420FFF7B1
:103BF00001FC00221146501EFEF720F81DB030BD1A
:103C00000010024000700040104801688215114306
:103C10000160C1680E4A1140C16001680D4A11403F
:103C200001608168490849008160016801229204AD
:103C300091430160C168FD2212049143C1600021DB
:103C400001610549C0038860704700000010024010
:103C50000C40FF88F6FFF6FE00ED00E070B504466C
:103C6000606AFF2803D9664966A000F05FFCA08C5B
:103C7000C00710D00125A06A6D04002805D0A84215
:103C800003D06F495FA000F051FC20684168A26A30
:103C9000A94311434160A08C800710D50125E06A3B
:103CA0002D04002805D0A84203D0664955A000F095
:103CB0003DFC20684168E26AA94311434160A08C41
:103CC000400710D50125206BAD04002805D0A8427F
:103CD00003D05D494BA000F029FC20684168226BAD
:103CE000A94311434160A08C000710D50125606BEA
:103CF000ED03002805D0A84203D0544941A000F0AC
:103D000015FC20684168626BA94311434160A08C97
:103D1000C00611D50125A06B2D03002806D0A842AE
:103D200004D0F121C90037A000F000FC20688168B0
:103D3000A26BA94311438160A08C800610D5012598
:103D4000E06B6D03002805D0A84203D040492DA0A8
:103D500000F0ECFB20688168E26BA94311438160AD
:103D6000A08C400636D53B492068884206D03A49A7
:103D7000884203D0394923A000F0D8FB0125206CEC
:103D80002D05002805D0A84203D035491DA000F01C
:103D9000CDFB20684168226CA94311434160206C2F
:103DA000A84217D10325606C6D0500280CD00121B5
:103DB0004905884208D04900884205D0A84203D06E
:103DC000284910A000F0B2FB20684168626CA9434A
:103DD00011434160A08C000610D50125A06CED04B4
:103DE000002805D0A84203D01F4906A000F09EFB82
:103DF00020684168A26CA9431143416070BD000076
:103E0000670700002E2E2F447269766572732F5358
:103E1000544D33324C3078785F48414C5F4472697E
:103E20007665722F5372632F73746D33326C3078F2
:103E3000785F68616C5F756172742E6300000000CA
:103E40006C070000730700007A070000810700007C
:103E50008F07000000380140004400409607000032
:103E6000970700009C070000A407000070B50446F7
:103E700020680068124D00070AD501212B46002258
:103E80004905204600F0B6FA002801D0032070BD95
:103E90002068006840070AD501212B4600228905C9
:103EA000204600F0A7FA002801D0032070BD0021B1
:103EB000204660300172E16601214172002070BD30
:103EC000F055000010B501680A6840239A430A6063
:103ED000014660314A7A322A05D001224A72FFF740
:103EE000FEFB002010BD22224A72F8E770B50246A0
:103EF0004032938B014660314C7A222C04D04C7AAC
:103F0000322C01D0022070BD012584682D03AC4203
:103F100002D10469002C0ED00468646A1C40436D11
:103F20005D1C45651C70538B5B1E1B041B0C53836F
:103F30000AD0002070BD446D05686D6A1D40258063
:103F4000436D9B1C4365EEE70268D3699B06FCD476
:103F500013682024A34313604A7A322A0FD00268E0
:103F60001368E400A3431360026893685B085B0076
:103F7000936001224A72FFF7B1FB002070BD12224C
:103F80004A72F8E7F8B5044600250027D949606869
:103F9000884203D3D849D9A000F0C8FA0121A0680B
:103FA0000907884208D0002806D00914884203D0A7
:103FB000E149D2A000F0BAFAE04803262268411491
:103FC000360382420AD1E06800281DD088421BD007
:103FD0006B210901C9A000F0A9FA15E0E0680028EA
:103FE00007D0B04205D0884203D0D549C3A000F025
:103FF0009DFA206A002807D00121C902884203D017
:10400000D049BEA000F092FA206900280CD001210E
:104010008902884208D003214902884204D0D7216E
:10402000C900B6A000F082FA60690C2102468A43FA
:1040300001D1002803D1C449B0A000F077FAA069EB
:1040400000280DD0C11FF9390AD0FF39013907D036
:1040500003210902884203D0BC49A8A000F066FAF7
:10406000E069002807D00121C903884203D0B8497C
:10407000A2A000F05BFAA1682069E26901436069CF
:104080001043014320680268B24B1A400A430260A1
:1040900020684168E268B14311434160A069A749C3
:1040A00022688A4201D0236A184393680B2636029D
:1040B000B34303439360A84A2668A848964212D1A6
:1040C000C0688007800F06D0012808D0022804D0DD
:1040D00003282CD105E0012529E0022527E004254D
:1040E00025E0082523E09E4A964210D1C0680C22A4
:1040F00010401CD0042806D0082802D00C2816D165
:1041000003E0022513E0042511E008250FE08E42AC
:104110000DD1C06803229202104008D00122920201
:10412000801A1ED0801A1AD0904200D108258D48DE
:104130008E425FD1002D16D0022D29D0042D44D0FF
:10414000082D0BD16068FCF727F902460B460020CA
:104150008549FCF781F8FCF741F9F060F8BD0225CC
:10416000E5E70425E3E76068FCF716F905460E4627
:10417000FEF740F9FCF710F90822FCF7E5F82A46AB
:104180003346FCF769F8FCF729F92168C860F8BDE7
:104190000068C0060CD56068FCF7FEF802460B46C6
:1041A00000207249FCF758F8FCF718F9F060F8BDE8
:1041B0006068FCF7F1F802460B4600206C49FCF7FA
:1041C0004BF8FCF70BF9F060F8BD6068FCF7E4F819
:1041D00005460E46FEF72EF9FCF7DEF80822FCF73E
:1041E000B3F82A463346FCF737F8FCF7F7F82168AE
:1041F000C860F8BD0122E169D203914240D1092D86
:1042000036D229007944097949188F44040C1431B5
:10421000233131312B00FEF7EDF840006168FBF7E8
:1042200069FF87B224E0FEF7F5F840006168FBF70C
:1042300061FF87B21CE00068C00605D54D48616883
:10424000FBF758FF87B213E04B486168FBF752FF5A
:1042500087B20DE0FEF7EEF840006168FBF74AFF19
:1042600087B205E0012000046168FBF743FF87B2D5
:10427000390909013807400F08432168C860F8BDB3
:10428000092DFCD229007944097949188F44050D7C
:104290001504240404042C00F1E7FEF7ABF8616870
:1042A000FBF728FF2168C860F8BDFEF7B3F8616826
:1042B000FBF720FF2168C860F8BD0068C00605D57F
:1042C0002E486168FBF716FFF060F8BD2C48616866
:1042D000FBF710FFF060F8BDFEF7ACF86168FBF784
:1042E00009FF2168C860F8BD10466168FBF702FF4E
:1042F000F060F8BD01093D00AC0600002E2E2F44F1
:104300007269766572732F53544D33324C3078781E
:104310005F48414C5F4472697665722F5372632F18
:1043200073746D33326C3078785F68616C5F75617F
:1043300072742E6300000000AD06000000480040CB
:10434000B4060000B5060000B9060000BA06000079
:10435000BB060000F369FFEF003801404010024047
:104360000044004000100240000060418084CE41C3
:104370008084EE4100127A000048E80100093D0007
:104380000024F400014660314A7A122A04D0497AA6
:10439000322901D002207047014640314A8A002A62
:1043A00012D0012382681B039A4202D10269002ABB
:1043B00016D0C26C531CC364006812788262488AAB
:1043C000401E48820020704701680A6880239A4393
:1043D0000A600068016840221143016000207047B4
:1043E000C26C03681288D205D20D9A62C26C921C0C
:1043F000C264E4E7F8B504460E4617461D46FDF7CD
:10440000D9F80090394627466037002905D0206842
:10441000C169304688432FD058E02068C1693046D2
:10442000884353D0681C21D0002D05D0FDF7C2F879
:104430000099401AA84219D9206801688022914346
:1044400001602068016820229143016020680168B2
:10445000D200914301602068816849084900816069
:1044600001207872002038720320F8BD2068C169ED
:1044700030468843D6D129E0681C22D0002D05D0D3
:10448000FDF798F80099401AA8421AD920680268E6
:1044900080218A4302602068026820218A430260EA
:1044A00020680168FF220132914301602068816821
:1044B0004908490081600120787200203872032089
:1044C000F8BD2068C16930468843D5D00020F8BDCA
:1044D00010B50248FEF7F4FF10BD00009800002060
:1044E0002021020C01D010211046020A01D01046F2
:1044F0000839020901D01046091F820801D0104670
:10450000891E420801D0881E7047081A704702E0D1
:1045100008C8121F08C1002AFAD17047704700204E
:1045200001E001C1121F002AFBD170477047000053
:10453000F8B5044620460A38364E374D5A2810D270
:104540000A212046FBF7ECFD89B2698080B2A88081
:104550004200093131484900715A805A08182881AF
:1045600045E00A2C06D2A0B2688009304000305ADB
:1045700028813CE020460930092809D26000201A31
:1045800080B268800921081A4000305A28812EE044
:1045900020466438642820D20A212046FBF7C0FD5B
:1045A0008FB26F8080B2A8800A2803D30A21FBF75C
:1045B000A1FDA98064212046FBF7B2FD80B2E8800E
:1045C00009377900725AA98840004B001349CB5A29
:1045D000085AD2181018288109E0C82C02DA0A20DB
:1045E000C44204DC0D48718C008A081828812B898C
:1045F0002A7800210A48FDF75FFA002801D0FCF76D
:104600008BF80748FDF72CFA002801D0FCF784F856
:10461000F8BD00000C000020020000203200002045
:104620005C000020FCF7D4FFFFF766FAFFF7D6F82E
:10463000FFF798F8FFF72CF9FFF74AF9FFF776F93B
:10464000FF21002201312B48FCF756FFFFF748F805
:104650000120FCF7B9FD2848006841680722920252
:10466000114341602448FFF74BF80120FCF7ACFDF3
:104670005820FFF75DFFFF20F530FCF7A5FD002176
:104680001E48FCF795F8002801D0FCF745F81C4CB3
:104690001C4E02271C4D29E01848FCF71DFD002880
:1046A00001D0FCF739F8377020E001281ED11748F7
:1046B0000088FFF7BFF91649088016480088FFF701
:1046C000A9F9288014480088FFF786F920802988F6
:1046D0004B20C000814201D8FFF72EF80020205E59
:1046E000FFF726FF00203070FFF7C6F9307800286A
:1046F000DBD1D1E7000400505C000020080100205D
:104700004C000020000000204A0000205200002041
:10471000460000204E00002050000020B4D00600CB
:1047200029BF05009EAD04004A2704003CD10300C8
:104730001C930300146303003C3C0300D21B0300E2
:10474000210003000AE80200C8D20200CEBF020026
:10475000B1AE0200239F0200E6900200C98302006E
:10476000A57702005A6C0200CE610200EB570200EE
:104770009F4E0200D94502008D3D0200AE35020079
:10478000342E02001427020048200200C91902003A
:1047900090130200990D0200DE0702005B02020086
:1047A0000DFD0100EFF7010000F301003BEE0100F9
:1047B0009FE9010028E50100D5E00100A4DC01002B
:1047C00093D80100A0D40100C9D001000DCD010093
:1047D0006CC90100E2C5010070C2010014BF0100F4
:1047E000CEBB01009BB801007CB5010070B2010096
:1047F00075AF01008BAC0100B2A90100E8A6010071
:104800002DA4010081A10100E39E0100529C010042
:10481000CE99010057970100EB9401008B920100A3
:1048200036900100EC8D0100AD8B0100788901000C
:104830004C8701002A8501001183010001810100DC
:10484000FA7E0100FA7C0100047B0100147901006A
:104850002D7701004D75010074730100A3710100F3
:10486000D86F0100136E0100556C01009E6A0100B3
:10487000ED680100416701009B650100FC630100D8
:1048800061620100CC6001003C5F0100B25D01008B
:104890002C5C0100AB5A01002F590100B8570100F0
:1048A00045560100D75401006D5301000852010024
:1048B000A6500100494F0100EF4D01009A4C010044
:1048C000484B0100FA490100B04801006A47010065
:1048D00026460100E7440100AA430100714201009D
:1048E0003C41010009400100DA3E0100AD3D0100FC
:1048F000843C01005D3B01003A3A01001939010096
:10490000FB370100E0360100C8350100B234010078
:104910009F3301008E3201008031010074300100AC
:104920006B2F0100642E01005F2D01005D2C010042
:104930005D2B01005F2A0100632901006A28010044
:10494000732701007D2601008A25010099240100BA
:10495000AA230100BD220100D1210100E8200100AD
:10496000002001001A1F0100371E0100541D010024
:10497000741C0100951B0100B91A0100DD1901002A
:10498000041901002C1801005517010081160100BF
:10499000AD150100DC1401000C1401003D130100F1
:1049A00070120100A4110100DA10010011100100C1
:1049B0004A0F0100840E0100BF0D0100FC0C010034
:1049C0003A0C0100790B0100BA0A0100FC09010050
:1049D0003F09010083080100C90701001007010019
:1049E00058060100A1050100EB0401003704010095
:1049F00084030100D20201002102010071010100C3
:104A0000C20001001400010067FF0000BCFE0000AE
:104A100011FE000068FD0000BFFC000017FC000054
:104A200071FB0000CBFA000027FA000083F90000B8
:104A3000E0F800003FF800009EF70000FEF60000DE
:104A40005FF60000C1F5000023F5000087F40000C8
:104A5000ECF3000051F30000B7F200001EF200007A
:104A600086F10000EFF0000059F00000C3EF0000F5
:104A70002EEF00009AEE000007EE000074ED00003B
:104A8000E2EC000051EC0000C1EB000032EB000052
:104A9000A3EA000015EA000088E90000FBE8000036
:104AA0006FE80000E4E700005AE70000D0E60000ED
:104AB00047E60000BEE5000037E50000AFE4000077
:104AC00029E40000A3E300001EE300009AE20000D6
:104AD00016E2000092E1000010E100008EE000000C
:104AE0000CE000008CDF00000BDF00008CDE00001B
:104AF0000DDE00008EDD000010DD000093DC000004
:104B000016DC00009ADB00001EDB0000A3DA0000C8
:104B100029DA0000AFD9000035D90000BDD8000067
:104B200044D80000CCD7000055D70000DED60000E6
:104B300068D60000F2D500007DD5000008D5000041
:104B400094D4000020D40000ACD300003AD300007D
:104B5000C7D2000055D20000E4D1000073D100009C
:104B600002D1000092D0000023D00000B4CF00009A
:104B700045CF0000D7CE000069CE0000FCCD00007C
:104B80008FCD000022CD0000B6CC00004ACC000042
:104B9000DFCB000074CB00000ACB0000A0CA0000ED
:104BA00036CA0000CDC9000065C90000FCC800007D
:104BB00094C800002DC80000C5C700005FC70000F2
:104BC000F8C6000092C600002DC60000C7C5000050
:104BD00062C50000FEC400009AC4000036C4000094
:104BE000D2C300006FC300000DC30000AAC20000C2
:104BF00048C20000E7C1000085C1000024C10000D8
:104C0000C4C0000063C0000003C00000A4BF0000D7
:104C100045BF0000E6BE000087BE000029BE0000C0
:104C2000CBBD00006DBD000010BD0000B3BC000096
:104C300056BC0000FABB00009EBB000042BB000057
:104C4000E6BA00008BBA000030BA0000D6B9000006
:104C50007CB9000022B90000C8B800006FB800009D
:104C600016B80000BDB7000064B700000CB7000024
:104C7000B4B600005DB6000005B60000AEB5000099
:104C800057B5000001B50000ABB4000055B40000FA
:104C9000FFB30000A9B3000054B30000FFB200004E
:104CA000ABB2000056B2000002B20000AEB100008C
:104CB0005BB1000007B10000B4B0000061B00000BB
:104CC0000FB00000BDAF00006AAF000019AF0000D8
:104CD000C7AE000076AE000024AE0000D4AD0000E8
:104CE00083AD000033AD0000E2AC000092AC0000E8
:104CF00043AC0000F3AB0000A4AB000055AB0000D8
:104D000006AB0000B8AA000069AA00001BAA0000B8
:104D1000CDA9000080A9000032A90000E5A800008C
:104D200098A800004BA80000FFA70000B2A7000051
:104D300066A700001AA70000CEA6000083A6000008
:104D400038A60000ECA50000A2A5000057A50000B1
:104D50000CA50000C2A4000078A400002EA400004E
:104D6000E4A300009BA3000052A3000009A30000DD
:104D7000C0A2000077A200002EA20000E6A1000061
:104D80009EA1000056A100000EA10000C7A00000D7
:104D90007FA0000038A00000F19F0000AA9F000043
:104DA000649F00001D9F0000D79E0000919E0000A0
:104DB0004B9E0000059E0000C09D00007A9D0000F3
:104DC000359D0000F09C0000AB9C0000669C00003C
:104DD000229C0000DD9B0000999B0000559B000079
:104DE000119B0000CE9A00008A9A0000479A0000AA
:104DF000049A0000C19900007E9900003B990000D0
:104E0000F9980000B69800007498000032980000ED
:104E1000F0970000AE9700006D9700002B97000000
:104E2000EA960000A9960000689600002796000008
:104E3000E7950000A6950000669500002695000005
:104E4000E5940000A69400006694000026940000FB
:104E5000E7930000A79300006893000029930000E7
:104E6000EA920000AC9200006D9200002F920000C8
:104E7000F0910000B29100007491000036910000A2
:104E8000F8900000BB9000007D9000004090000072
:104E900003900000C68F0000898F00004C8F000037
:104EA0000F8F0000D38E0000968E00005A8E0000F7
:104EB0001E8E0000E28D0000A68D00006A8D0000AD
:104EC0002F8D0000F38C0000B88C00007D8C00005A
:104ED000418C0000068C0000CC8B0000918B000000
:104EE000568B00001C8B0000E18A0000A78A00009E
:104EF0006D8A0000338A0000F9890000BF89000034
:104F0000868900004C89000013890000DA880000BF
:104F1000A0880000678800002E880000F687000047
:104F2000BD870000848700004C87000014870000C4
:104F3000DB860000A38600006B860000338600003D
:104F4000FC850000C48500008C85000055850000AC
:104F50001D850000E6840000AF8400007884000016
:104F6000418400000A840000D48300009D83000077
:104F70006783000030830000FA820000C4820000D2
:104F80008E8200005882000022820000EC81000026
:104F9000B7810000818100004C8100001681000073
:104FA000E1800000AC8000007780000042800000BB
:104FB0000D800000D87F0000A47F00006F7F0000FC
:104FC0003B7F0000077F0000D27E00009E7E000035
:104FD0006A7E0000367E0000027E0000CF7D000069
:104FE0009B7D0000677D0000347D0000007D000097
:104FF000CD7C00009A7C0000677C0000347C0000BF
:10500000017C0000CE7B00009B7B0000697B0000E0
:10501000367B0000047B0000D17A00009F7A0000FC
:105020006D7A00003B7A0000097A0000D779000011
:10503000A579000073790000427900001079000022
:10504000DF780000AD7800007C7800004B7800002D
:105050001A780000E9770000B87700008777000031
:105060005677000025770000F5760000C476000032
:10507000937600006376000033760000037600002C
:10508000D2750000A2750000727500004375000023
:1050900013750000E3740000B37400008474000012
:1050A0005474000025740000F6730000C6730000FD
:1050B0009773000068730000397300000A730000E2
:1050C000DB720000AC7200007E7200004F720000C4
:1050D00020720000F2710000C471000095710000A0
:1050E00067710000397100000B710000DD70000075
:1050F000AF70000081700000537000002570000048
:10510000F86F0000CA6F00009C6F00006F6F000016
:10511000426F0000146F0000E76E0000BA6E0000DE
:105120008D6E0000606E0000336E0000066E0000A1
:10513000D96D0000AC6D0000806D0000536D000063
:10514000276D0000FA6C0000CE6C0000A16C00001E
:10515000756C0000496C00001D6C0000F16B0000D4
:10516000C56B0000996B00006D6B0000416B000087
:10517000156B0000EA6A0000BE6A0000936A000036
:10518000676A00003C6A0000106A0000E5690000E0
:10519000BA6900008F690000646900003969000085
:1051A0000E690000E3680000B86800008D68000028
:1051B00063680000386800000D680000E3670000C5
:1051C000B96700008E670000646700003A6700005E
:1051D0000F670000E5660000BB66000091660000F6
:1051E000676600003D66000013660000EA65000087
:1051F000C0650000966500006D6500004365000015
:105200001A650000F0640000C76400009E6400009E
:10521000746400004B64000022640000F963000025
:10522000D0630000A76300007E63000055630000A8
:105230002D63000004630000DB620000B362000025
:105240008A620000616200003962000011620000A1
:10525000E8610000C061000098610000706100001A
:10526000476100001F610000F7600000CF60000090
:10527000A8600000806000005860000030600000FE
:1052800009600000E15F0000B95F0000925F00006C
:105290006A5F0000435F00001C5F0000F45E0000D6
:1052A000CD5E0000A65E00007F5E0000575E00003D
:1052B000305E0000095E0000E25D0000BC5D0000A1
:1052C000955D00006E5D0000475D0000205D000000
:1052D000FA5C0000D35C0000AD5C0000865C00005E
:1052E000605C0000395C0000135C0000ED5B0000B6
:1052F000C65B0000A05B00007A5B0000545B00000E
:105300002E5B0000085B0000E25A0000BC5A00005F
:10531000965A0000705A00004A5A0000255A0000B0
:10532000FF590000D9590000B45900008E590000FF
:1053300069590000435900001E590000F958000047
:10534000D3580000AE58000089580000645800008F
:105350003F58000019580000F4570000CF570000D4
:10536000AB57000086570000615700003C57000013
:1053700017570000F3560000CE560000A956000053
:1053800085560000605600003C560000175600008D
:10539000F3550000CE550000AA55000086550000C8
:1053A000625500003D55000019550000F5540000FD
:1053B000D1540000AD540000895400006554000031
:1053C000415400001D540000FA530000D653000061
:1053D000B25300008E5300006B530000475300008F
:1053E0002453000000530000DD520000B9520000B9
:1053F00096520000725200004F5200002C520000E2
:1054000009520000E5510000C25100009F51000008
:105410007C5100005951000036510000135100002A
:10542000F0500000CD500000AB500000885000004C
:10543000655000004250000020500000FD4F000069
:10544000DA4F0000B84F0000954F0000734F000086
:10545000504F00002E4F00000C4F0000E94E00009E
:10546000C74E0000A54E0000834E0000604E0000B5
:105470003E4E00001C4E0000FA4D0000D84D0000CA
:10548000B64D0000944D0000724D0000504D0000DC
:105490002E4D00000D4D0000EB4C0000C94C0000EB
:1054A000A74C0000864C0000644C0000434C0000F8
:1054B000214C0000004C0000DE4B0000BD4B000002
:1054C0009B4B00007A4B0000584B0000374B00000C
:1054D000164B0000F54A0000D34A0000B24A000013
:1054E000914A0000704A00004F4A00002E4A000016
:1054F0000D4A0000EC490000CB490000AA49000019
:105500008949000069490000484900002749000016
:1055100006490000E6480000C5480000A448000015
:10552000844800006348000043480000224800000F
:1055300002480000E1470000C1470000A147000009
:1055400080470000604700004047000020470000FF
:10555000FF460000DF460000BF4600009F460000F7
:105560007F4600005F4600003F4600001F460000E7
:10557000FF450000DF450000BF4500009F450000DB
:1055800080450000604500004045000020450000C7
:1055900001450000E1440000C1440000A2440000B5
:1055A000824400006344000043440000244400009F
:1055B00004440000E5430000C6430000A643000089
:1055C000874300006843000048430000294300006F
:1055D0000A430000EB420000CC420000AD42000054
:1055E0008E4200006F420000504200003142000035
:1055F00012420000F3410000D4410000B541000018
:105600009641000077410000594100003A410000F6
:105610001B410000FC400000DE400000BF400000D5
:10562000A0400000824000006340000045400000B0
:105630002640000008400000E93F0000CB3F00008A
:10564000AD3F00008E3F0000703F0000523F000061
:10565000333F0000153F0000F73E0000D93E000038
:10566000BB3E00009D3E00007E3E0000603E00000C
:10567000423E0000243E0000063E0000E83D0000DF
:10568000CA3D0000AC3D00008F3D0000713D0000B0
:10569000533D0000353D0000173D0000FA3C00007E
:1056A000DC3C0000BE3C0000A03C0000833C00004D
:1056B000653C0000483C00002A3C00000D3C000016
:1056C000EF3B0000D23B0000B43B0000973B0000E2
:1056D000793B00005C3B00003E3B0000213B0000AA
:1056E000043B0000E73A0000C93A0000AC3A000071
:1056F0008F3A0000723A0000553A0000373A000035
:105700001A3A0000FD390000E0390000C3390000FA
:10571000A6390000893900006C3900004F390000BB
:105720003239000015390000F9380000DC3800007B
:10573000BF380000A238000085380000693800003A
:105740004C3800002F38000013380000F6370000F6
:10575000D9370000BD370000A037000084370000B3
:10576000673700004B3700002E370000123700006B
:10577000F5360000D9360000BD360000A036000026
:1057800084360000683600004B3600002F360000DB
:1057900013360000F7350000DA350000BE35000092
:1057A000A2350000863500006A3500004E35000045
:1057B0003235000016350000FA340000DE340000F7
:1057C000C2340000A63400008A3400006E340000A9
:1057D00052340000363400001A340000FF33000059
:1057E000E3330000C7330000AB3300009033000008
:1057F00074330000583300003D33000021330000B3
:1058000005330000EA320000CE320000B33200005F
:10581000973200007C320000603200004532000008
:10582000293200000E320000F2310000D7310000B2
:10583000BC310000A0310000853100006A31000059
:105840004E3100003331000018310000FD300000FF
:10585000E2300000C6300000AB30000090300000A5
:10586000753000005A3000003F3000002430000046
:1058700009300000EE2F0000D32F0000B82F0000E9
:105880009D2F0000822F0000672F00004C2F00008A
:10589000312F0000172F0000FC2E0000E12E000029
:1058A000C62E0000AB2E0000912E0000762E0000C8
:1058B0005B2E0000412E0000262E00000B2E000063
:1058C000F12D0000D62D0000BB2D0000A12D000001
:1058D000862D00006C2D0000512D0000372D00009A
:1058E0001C2D0000022D0000E72C0000CD2C000034
:1058F000B32C0000982C00007E2C0000642C0000CB
:10590000492C00002F2C0000152C0000FB2B000060
:10591000E02B0000C62B0000AC2B0000922B0000F7
:10592000782B00005D2B0000432B0000292B00008A
:105930000F2B0000F52A0000DB2A0000C12A00001E
:10594000A72A00008D2A0000732A0000592A0000AF
:105950003F2A0000252A00000B2A0000F129000040
:10596000D7290000BE290000A42900008A290000D0
:1059700070290000562900003D290000232900005D
:1059800009290000EF280000D6280000BC280000EC
:10599000A2280000892800006F2800005628000077
:1059A0003C2800002228000009280000EF27000002
:1059B000D6270000BC270000A3270000892700008D
:1059C00070270000562700003D2700002427000014
:1059D0000A270000F1260000D8260000BE2600009D
:1059E000A52600008C260000722600005926000023
:1059F00040260000272600000D260000F4250000A8
:105A0000DB250000C2250000A9250000902500002C
:105A1000762500005D250000442500002B250000B0
:105A200012250000F9240000E0240000C724000033
:105A3000AE240000952400007C24000063240000B4
:105A40004A24000032240000192400000024000031
:105A5000E7230000CE230000B52300009C230000B4
:105A6000842300006B230000522300003923000030
:105A70002123000008230000EF220000D7220000AD
:105A8000BE220000A52200008D220000742200002A
:105A90005B220000432200002A22000012220000A4
:105AA000F9210000E1210000C8210000B021000020
:105AB000972100007F210000662100004E21000098
:105AC000352100001D21000005210000EC20000010
:105AD000D4200000BC200000A32000008B20000088
