:020000040800F2
:1000000090050020D5000008DD000008DF00000892
:1000100000000000000000000000000000000000E0
:10002000000000000000000000000000E1000008E7
:100030000000000000000000E3000008A13E0008EE
:10004000E7000008E7000008A93D0008E7000008F5
:10005000E7000008E7000008E7000008E7000008E4
:10006000E7000008E7000008E7000008E7000008D4
:10007000E9030008E700000800000000E7000008AE
:1000800000000000E7000008000000000000000081
:10009000E700000800000000E7000008E700000893
:1000A000E7000008E7000008E700000875480008BE
:1000B000E7000008E700000875390008E7000008BD
:1000C0000348854600F07EF900480047BD49000816
:1000D000900500200448804704480047FEE7FEE7FB
:1000E000FEE7FEE7FEE7FEE7E93F0008C100000883
:1000F00030B50B46014600202022012409E00D46C0
:10010000D5409D4205D31D469540491B2546954047
:1001100040191546521E002DF1DC30BD70B500248B
:100120002546002801DA01244042002901DA012590
:100130004942FFF7DDFFAC4200D04042002C00D026
:10014000494270BDF0B51FB40646002082B0054696
:100150004024019100901BE0019922460F46304651
:1001600000F0DDF8049A059B801A994110D31046DF
:100170001946224600F0C3F8361A8F4101972246ED
:1001800001200021009F00F0BAF838184D4100907E
:100190002046641E0028DFDC019B00982946324679
:1001A00007B0F0BD024670B54A40D30FDB074000F0
:1001B0002DD04A002AD0010E140E00021202091995
:1001C000400A520A8418E50104465443000A120A00
:1001D0002E045043A4194219200CC543AA18120C2E
:1001E0000125AD03521C521912047F39240400D09A
:1001F000521C104301D44000491EC2B20C06C00973
:100200002018401C4008802A02D003E0002070BD66
:1002100040084000002900DA0020184370BD70B586
:1002200002464A40D50F40004A00ED0740085208F8
:10023000002814D0002A12D0C40DD30D4102012091
:10024000C0055202490A520AE41A091812187D34EC
:10025000914201D3641C00E04900002C01DA002027
:1002600070BD0023914201D3891A0343400849001D
:100270000028F7D100290AD0914202D10121C907F3
:1002800005E0914201D2012101E00121C943E005CD
:10029000C018401900F054F870BD420005D042006B
:1002A000120E52428A4201DB00207047C90508182D
:1002B0007047C217C10F504010B54018CA079623A7
:1002C000002100F045F810BD10B50022962311461C
:1002D00000F03EF810BD410040020122400AD20564
:1002E000090E80187F2901DA00207047962903DC67
:1002F0009622511AC840704796398840704710B509
:10030000202A04DB0146203A9140002010BD914094
:1003100020239C1A0346E3401943904010BD10B5BA
:10032000202A04DB0846203AD040002110BD0B46AD
:10033000D340D0402024A21A91400843194610BD52
:10034000002904DA401C490001D1400840007047F0
:1003500070B40024050C05D11024000402D100293A
:1003600021D01124050E01D100020834050F01D15E
:100370000001241D850F01D18000A41C002801DB91
:100380004000641C002908D020252E1B0D46F54096
:10039000A14000D001212943084301061B1B000A8C
:1003A000DB1D02D5002070BC7047DB0518188018D3
:1003B0000029F8DA401C4900F5D170BC4008400023
:1003C00070470000064C0125064E05E0E36807CCA7
:1003D0002B430C3C98471034B442F7D3FFF774FE1C
:1003E000F08A0008108B0008F8B5234F38680068C1
:1003F0000025C0434007214E214C002829DB2078EE
:10040000002804D0012812D0022822D119E0FF21AF
:10041000002201311B4800F0EFFF174800F04EFAB0
:100420001949088035702078401C207011E012486E
:1004300000F044FA1549088035702078401C20707F
:1004400007E00D4800F03AFA114908802078401C76
:10045000207038680168C943090709D40821016080
:1004600001203070257001020122064800F0C4FF0F
:10047000014800F051FAF8BD0801002000000020FA
:1004800001000020000400504E0000205000002019
:100490005200002038B50446094808490068FFF7B3
:1004A00027FE604300900098002805D00098401E69
:1004B000009000980028F9D138BD000040420F009C
:1004C00058000020F8B50446206881688907890F24
:1004D000012902D10168C9072ED18168174A102667
:1004E00011400125002907D0A06D3043A065E06DC3
:1004F0002843E0650120F8BD81682943816001201F
:10050000FFF7C8FF00F0D6FF074620680068C04329
:10051000C00711D000F0CEFFC01B0A2807D9A06D7C
:100520003043A065E06D2843E0650120F8BD2068F8
:100530000068C043C007EDD10020F8BD170000805F
:1005400000B587B00A49CA6A02200243CA62C96A72
:1005500001400191C1010291012103910490002009
:10056000059002A9034800F0BBFD07B000BD0000E4
:10057000001002400004005030B587B01248C16A34
:1005800001221143C162C16A11400191C26A022174
:100590000A43C262C06A08400190032040020290F0
:1005A0000325039500240494052002A9000700F008
:1005B00097FDFF20013002900395049402A903489F
:1005C00000F08EFD07B030BD001002400004005066
:1005D000F8B5044600262E492068884203D08221BF
:1005E0002CA004F05FF925464035287D012808D06D
:1005F00001202875206881688907890F01290ED19B
:1006000001E00220F8BD0168C90708D0A06D2021D3
:100610000843A0650126002028753046F8BDA16D6D
:10062000FF220132914302221143A165C16889076B
:10063000890F0091C16889088900C16020688168BC
:1006400092071143816000F035FF074620688068FB
:10065000002812DA00F02EFFC01B0A2809D9A06D6D
:100660000221884310210843A0650020287501203D
:10067000F8BD206880680028ECDB2068C168009A1B
:100680001143C160A06D80088000401CA065C2E7D6
:10069000002401402E2E2F447269766572732F5309
:1006A000544D33324C3078785F48414C5F44726926
:1006B0007665722F5372632F73746D33326C30789A
:1006C000785F68616C5F6164635F65782E630000CA
:1006D000F8B506460C4655493068884204D0CD210D
:1006E000C90053A004F0DEF82068012839D05E4923
:1006F000884236D04900884233D05C49884230D0A5
:100700005B4988422DD05B4988422AD05A498842A9
:1007100027D05A49884224D05949884221D0594982
:1007200088421ED0584988421BD05849884218D068
:100730005749884215D05749884212D056498842B5
:100740000FD0564988420CD05549884209D05549A6
:10075000884206D05449884203D0544934A004F05A
:10076000A1F80121090360684F1C884205D0B842F6
:1007700003D04F492EA004F095F835464035287D2A
:1007800001280DD00120287530688168490709D5F6
:10079000B06D20210843B065002028750120F8BD08
:1007A0000220F8BD01213B46C90562684F10414E49
:1007B0009A421DD0826A23685B035B0B1A438262F4
:1007C0002068400305D5B0680843B0600A20FFF7F1
:1007D00061FE2068800302D5B0683843B0602068AD
:1007E000C0031FD5B068012109060843B06019E0B5
:1007F000826A23685B035B0B9A4382622068400332
:1008000002D5B0688843B0602068800302D5B06824
:10081000B843B0602068C00304D5B1680120000669
:100820008143B16000202875F8BD0000002401401C
:100830002E2E2F447269766572732F53544D3332C6
:100840004C3078785F48414C5F4472697665722F0E
:100850005372632F73746D33326C3078785F6861D4
:100860006C5F6164632E6300020000040800000CEA
:100870001000001020000014400000188000001C30
:100880000001002000020024000400280008002CC1
:100890000010003000200034004000380080003C90
:1008A0000000044800000244000001406906000006
:1008B0006A060000002701407047704710B50446E3
:1008C00005492068884203D0044905A003F0EAFFE7
:1008D0002068006C10BD0000002401407605000077
:1008E0002E2E2F447269766572732F53544D333216
:1008F0004C3078785F48414C5F4472697665722F5E
:100900005372632F73746D33326C3078785F686123
:100910006C5F6164632E630070B5044642492068D1
:10092000884203D0414942A003F0BCFF206A00285E
:1009300006D0012804D0B121C9003DA003F0B2FFC8
:100940006069042807D0082805D00C2803D0464940
:1009500037A003F0A7FF20680168490702D5416866
:10096000490705D40168090733D54168090730D51F
:10097000A16DC90604D4A16D012252021143A165E3
:10098000C1680C250905890F00291AD1216A00299F
:1009900017D10168090714D5816801224907002988
:1009A00008DB4168A9434160A06D110288431043F0
:1009B000A06506E0A06D20210843A065E06D10430E
:1009C000E0652046FFF778FFA069012801D0206884
:1009D00005602068016809060DD5406800060AD543
:1009E000A06D012109040843A065204600F088FAA3
:1009F00021688020086020680168C90613D5416815
:100A0000C90610D5616B1025002902D0C168C9073D
:100A100007D0E16D02221143E16505602046FFF732
:100A20004CFF2068056070BD002401408705000070
:100A30002E2E2F447269766572732F53544D3332C4
:100A40004C3078785F48414C5F4472697665722F0C
:100A50005372632F73746D33326C3078785F6861D2
:100A60006C5F6164632E630089050000F8B504467D
:100A7000002C7DD0FE492068884204D0FF216E31D1
:100A8000FCA003F00FFF6068002838D0032189071D
:100A9000884234D04942884231D0490088422ED021
:100AA000490B88422BD04900884228D00321890471
:100AB000884224D001210905884220D005218904DB
:100AC00088421CD00321C904884218D00721890418
:100AD000884214D001214905884210D00921890497
:100AE00088420CD00521C904884208D00B21890412
:100AF000884204D0FF216F31DEA003F0D3FEA0684E
:100B000000280AD0082808D0102806D0182804D0B9
:100B1000FF217031D7A003F0C5FEE068002806D0A1
:100B2000202804D0FF217131D2A003F0BBFE206940
:100B3000012806D0022804D0FF217231CDA003F095
:100B4000B1FE206A002806D0012804D0FF217331AD
:100B5000C8A003F0A7FE606A002806D0012804D0D0
:100B6000FF217431C3A003F09DFEE06A002800E07D
:100B700091E00FD00121890288420BD049008842C0
:100B800008D003218902884204D0FF217531B9A021
:100B900003F088FEFF26A06A0136002814D0402802
:100BA00012D0802810D0C0280ED0B0420CD0014600
:100BB000FF39813908D0403906D0491E04D0FF21C1
:100BC0007631ACA003F06EFE206B002806D0012821
:100BD00004D0FF217731A7A003F064FE60690428E8
:100BE00008D0082806D00C2804D0FF217831A1A015
:100BF00003F058FE606B002808D0012109038842E9
:100C000004D0FF2179319BA003F04CFEA06900289D
:100C100006D0012804D0FF217A3196A003F042FECD
:100C2000A06B002806D0012804D0FF217B3191A0C1
:100C300003F038FEE069002806D0012804D0FF2127
:100C40007C318CA003F02EFEE06B002812D001282E
:100C500010D002280ED003280CD004280AD0052872
:100C600008D0062806D0072804D0FF217D3181A0B6
:100C700003F018FE206C002806D0012804D0FF21C4
:100C80007E317CA003F00EFEA06D27460025403784
:100C9000002802D006E00120F8BDE5653D7520463C
:100CA00000F030F9A06DC00603D4206881684907C0
:100CB00006D5A06D10210843A0653D750120F8BD43
:100CC000A16D0222B1431143A1658168774A89076A
:100CD000890F012902D10168C9072BD1032361685B
:100CE0009B07994205D05B42994202D05B00994232
:100CF00009D1016989008908016120680169636877
:100D0000194301610CE0016989008908016190685B
:100D10000F2189048843906090686168084390605F
:100D20002068C16818239943C1602068C168A3681E
:100D30001943C1609068012149068843906090681A
:100D4000218F49060843906020688168C90004D457
:100D5000816801221207114381602068C168544AEA
:100D60001140C1602069E168022823D000200143BE
:100D7000206A226B4003520010430143606B014321
:100D8000A06980030143E069C00301432068C26891
:100D90001143C160A06A0146FF39C23905D0E16A3A
:100DA00008432168CA681043C860606A01270128A7
:100DB00002D00BE00420DAE7206A002823D0A06DDF
:100DC00020210843A065E06D3843E065206C0128D0
:100DD00020D020680169C90703D00169490849008A
:100DE000016120684169C908C90041612068416901
:100DF000E26B11434161E565A06D80088000401CF5
:100E0000A0650020F8BD2068C168012212041143CA
:100E1000C160DBE7606C002811D004280FD00828DF
:100E20000DD00C280BD0102809D0142807D0182872
:100E300005D01C2803D01F490EA003F033FDA06C81
:100E4000002813D0202811D040280FD060280DD0C2
:100E500080280BD0A02809D0C02807D0E02805D0D2
:100E6000B04203D0144903A003F01CFDE06C25E060
:100E7000002401402E2E2F447269766572732F5321
:100E8000544D33324C3078785F48414C5F4472693E
:100E90007665722F5372632F73746D33326C3078B2
:100EA000785F68616C5F6164632E630000270140B6
:100EB0001902FEFF0D0200000E020000002807D0FC
:100EC000C11FFF39FA3903D00B490C4803F0EAFC83
:100ED00020680169FF229200914301612068016945
:100EE000626CE36C1143A26C1A43114301612068E8
:100EF00001693943016174E70F020000740E0008B4
:100F00007047000000B585B000680E49884217D1CF
:100F10000D48416B4215114341631220009003209C
:100F200001900020029005206946000700F0D8F8E3
:100F3000002211460C2000F011FE0C2000F0DEFD16
:100F400005B000BD002401400010024070B5044609
:100F5000002523492068884203D0224922A003F0BB
:100F6000A1FC20688068400736D426464036307D94
:100F700001280BD001203075E069012803D02046FC
:100F8000FFF7A0FA0546002D02D026E0022070BD32
:100F9000A06D23490840FF2101310843A0650020CE
:100FA000E065307520681C22026060690421082811
:100FB00008D02068436813434360206882680A436E
:100FC00082600AE0206842688A4342602068426882
:100FD00018231A434260F0E70225284670BD00003E
:100FE00000240140490400002E2E2F4472697665CA
:100FF00072732F53544D33324C3078785F48414CE4
:101000005F4472697665722F5372632F73746D3308
:10101000326C3078785F68616C5F6164632E630066
:10102000FEF1FFFF70B500240246203251790229FB
:1010300003D00421C163012436E001680B680E254A
:10104000AB430B6001680B685B085B000B60174BE0
:101050000168994201D101211CE0154B994201D14F
:10106000102117E0134B994201D1891512E0124B60
:10107000994201D189140DE0104B994202D101210E
:10108000090407E00E4B994202D10121090501E054
:10109000012109060B4B5960012151710021117189
:1010A000816B002900D08847204670BD08000240AF
:1010B0001C00024030000240440002405800024040
:1010C0006C0002400000024031B500F0F3F9044624
:1010D00000F0F0F90099001B8842F9D338BD0000F8
:1010E000F8B505460C460026606800281FD0012888
:1010F0001DD011281BD0022819D0122817D0A249C0
:10110000884214D0A149884211D0A14988420ED00A
:10111000A04988420BD0A049884208D09F49884204
:1011200005D0032803D0BE219DA003F0BBFBA0681F
:10113000002807D0012805D0022803D0BF2198A09D
:1011400003F0B0FB05273F07BD4205D1206801042D
:10115000090C01D0000C26D0A048854205D120689A
:101160000104090C01D0000C1DD09D48854205D119
:1011700020680104090C01D0000C14D09948854264
:1011800005D12068410702D5042188430BD0964839
:10119000854204D12068810701D0800803D0C02196
:1011A0007FA003F07FFB206800287DD00120B040A5
:1011B000276800900740002F77D06068022801D090
:1011C000122851D105200007854210D1206900283E
:1011D0003DD001283BD0022839D0032837D004283D
:1011E00035D0052833D0062831D007282FD07B48AA
:1011F00085420ED12069002829D0012827D0022855
:1012000025D0032823D0042821D005281FD0062864
:101210001DD07348854208D12069002817D00128C5
:1012200015D0022813D0032811D06E48854204D16E
:10123000206900280BD0012809D06B48854202D1D3
:101240002069002803D0CF2155A003F02BFBF00824
:1012500080004319196A7007C00E0F228240914323
:10126000226982400A431A626068012805D0022878
:1012700003D0112801D0122821D1E068002809D01C
:10128000012807D0022805D0032803D0DC2144A080
:1012900003F008FBA9687000032282409143E268D2
:1012A00082400A43AA6001E06CE066E06868009949
:1012B00088432179C906C90FB140014369602B6891
:1012C0007000032181408B4322799207920F824064
:1012D0001A432A60EA688A43A16881401143E960A1
:1012E0006068C00049D54149486B012210434863FA
:1012F000B1083F4889000B189968B007000F0F220A
:101300008240914305221207954201D1002214E048
:10131000324A954201D101220FE0314A954201D172
:1013200002220AE02F4A954201D1032205E02E4A0B
:10133000954201D1052200E0062282400A439A60CC
:101340002C490868B8436268D20300D53843086066
:101350004868B8436268920300D53843486088689B
:10136000B8436268D20200D538438860C868B84381
:101370006268920200D53843C860761C2068F0404D
:1013800000D013E7F8BD000000001110000021108C
:101390000000311000001210000022100000321076
:1013A0002E2E2F447269766572732F53544D33324B
:1013B0004C3078785F48414C5F4472697665722F93
:1013C0005372632F73746D33326C3078785F686159
:1013D0006C5F6770696F2E630000000000040050AE
:1013E00000080050000C0050001C0050001002408B
:1013F000000001400004014070B505460C46164649
:1014000005200007854201D1002C1ED116488542D7
:1014100001D1002C19D11548854201D1002C14D1DD
:101420001348854205D1600703D50421204688432F
:101430000BD01048854203D1A00701D0A00804D0EA
:10144000FF21AB310CA003F02DFA002E06D0012EA7
:1014500004D0FF21AC3108A003F024FA002E01D003
:10146000AC6170BDAC6270BD00040050000800505B
:10147000000C0050001C00502E2E2F44726976651F
:1014800072732F53544D33324C3078785F48414C4F
:101490005F4472697665722F5372632F73746D3374
:1014A000326C3078785F68616C5F6770696F2E634B
:1014B0000000000001480068704700005400002050
:1014C00002480168491C0160704700005400002078
:1014D00010B506480168402211430160002000F069
:1014E00007F800F0EFFA002010BD000000200240D5
:1014F00010B5044607487D21C9000068FEF7F8FDD5
:1015000002F0C2F800222146501E00F027FB002006
:1015100010BD000058000020F8B504460025002C3E
:101520007ED0E5492068884203D0C521E3A003F0BE
:10153000B9F9606800283ED00121890588423AD077
:101540004900884237D003218905884233D00121E0
:10155000090688422FD00521890588422BD0032116
:10156000C905884227D007218905884223D0012157
:10157000490688421FD00921890588421BD00521D0
:10158000C905884217D00B218905884213D0032151
:10159000090688420FD00D21890588420BD007210A
:1015A000C905884207D00F218905884203D0C6218A
:1015B000C2A003F077F9A068002840D00121890477
:1015C00088423CD04900884239D0032189048842AE
:1015D00035D001210905884231D00521890488428E
:1015E0002DD00321C904884229D0072189048842CB
:1015F00025D001214905884221D00921890488424A
:101600001DD00521C904884219D00B2189048842C4
:1016100015D003210905884211D00D21890400E06D
:10162000D0E088420BD00721C904884207D00F219F
:101630008904884203D0C721A0A003F033F9E068F1
:1016400000280BD0042809D0082807D00C2805D082
:10165000102803D0C82199A003F024F9206900289C
:1016600007D0202805D0402803D0C92193A003F03B
:1016700019F96069002805D0022803D0CA218FA07B
:1016800003F010F9206A002811D010280FD020286C
:101690000DD030280BD0402809D0502807D0602822
:1016A00005D0702803D0CB2184A003F0FBF8606A3A
:1016B000002805D0012803D0CC2180A003F0F2F847
:1016C000E069002818D0802816D0C11FF93913D03E
:1016D000803911D080390FD00521C90188420BD043
:1016E00003210902884207D00721C901884203D09B
:1016F000CD2172A003F0D6F8A06900281ED00121E8
:10170000890288421AD04900884217D003218902F1
:10171000884213D00121090388420FD00521890294
:1017200088420BD00321C902884207D007218902D1
:10173000884203D0CE2161A003F0B4F8E06A00280B
:101740001ED00121490388421AD04900884217D08F
:1017500003214903884213D00121C90388420FD0D5
:101760000521490388420BD003218903884207D011
:1017700007214903884203D0CF2150A003F092F8FB
:10178000A06A00280ED00121090488420AD049002D
:10179000884207D003210904884203D0D02147A002
:1017A00003F080F8206B802805D0002803D0D121D9
:1017B00042A003F077F826462036707D00270028E7
:1017C00002D005E00120F8BD3775204600F094F8FE
:1017D0000220707520680168490849000160A8006E
:1017E000216814300F506D1CEDB20F2DF7D9206811
:1017F00081680422114381606168A068E26A014344
:10180000A06A10430143E0690143206A0143A069D3
:101810000143606A014320684268364B1A40114315
:101820004160204602F0B0F8E1682069226B014374
:1018300060691043014320680268FE239A43114304
:10184000016020680168012211430160FFF732FE48
:10185000054620688068C043C0070FD0FFF72AFE06
:10186000411B7D20C000814203D90820A0630320D2
:10187000F8BD20688068C043C007EFD1FFF71AFEAB
:10188000054620688068C043C0060FD5FFF712FEEA
:10189000411B7D20C000814203D91020A06303209A
:1018A000F8BD20688068C043C006EFD4A76301205C
:1018B00070750020F8BD0000002400402E2E2F443B
:1018C0007269766572732F53544D33324C30787889
:1018D0005F48414C5F4472697665722F5372632F83
:1018E00073746D33326C3078785F68616C5F6C63F1
:1018F000642E63000F0000FC70B586B000681549C7
:10190000884225D11448816B421511438163FF2021
:10191000CD30019002260296002403940494012500
:101920000595052001A90007FFF7DAFB0B48019098
:10193000029603940494059501A90948FFF7D0FB8A
:10194000002203211E2000F009F91E2000F0D6F825
:1019500006B070BD00240040001002403BFC0000B7
:1019600000040050F8B5044621680820C8602068CB
:101970008168042739438160FFF79CFD0646206893
:1019800080682546C04300072035002810DAFFF79D
:1019900091FD811B7D20C000814204D9A7630020F6
:1019A00028750320F8BD20688068C0430007EED486
:1019B0000120687500202875F8BD0000FFB581B0D2
:1019C00006460C4635462035687D012805D0687DE1
:1019D000022802D0012005B0F0BD002C22D0012C3D
:1019E00020D0022C1ED0032C1CD0042C1AD0052C85
:1019F00018D0062C16D0072C14D0082C12D0092C85
:101A000010D00A2C0ED00B2C0CD00C2C0AD00D2C84
:101A100008D00E2C06D00F2C04D0FF2191311BA032
:101A200002F040FF687D012824D1287D012819D0CB
:101A30000120287502206875FFF73CFD07463068D5
:101A40008068C043400715D4FFF734FDC11B7D20DB
:101A5000C000814209D90220B0630020287503200C
:101A600005B0F0BD022005B0F0BD30688068C0430D
:101A70004007E9D5A000316814300A58039B1A408A
:101A8000049B1A430A50002005B0F0BD2E2E2F44AF
:101A90007269766572732F53544D33324C307878B7
:101AA0005F48414C5F4472697665722F5372632FB1
:101AB00073746D33326C3078785F68616C5F6C631F
:101AC000642E630010B50C48416B01221143416341
:101AD000816B02041143816300221146501F00F004
:101AE0003DF800221146901E00F038F80022114601
:101AF000501E00F033F810BD0010024010B504462F
:101B0000002C03DAA82105A002F0CCFEE106C90EE4
:101B1000012088401049086010BD00002E2E2F447F
:101B20007269766572732F53544D33324C30787826
:101B30005F48414C5F4472697665722F5372632F20
:101B400073746D33326C3078785F68616C5F636F8B
:101B5000727465782E63000000E100E070B5044601
:101B60000D46042D03D3982110A002F09BFEA00780
:101B7000C00EFF228240A907090E8140002C0BDA1B
:101B80002007000F0838830817489B001818C369FE
:101B900093430B43C36170BDA30814489B001818FE
:101BA000036893430B43036070BD00002E2E2F4447
:101BB0007269766572732F53544D33324C30787896
:101BC0005F48414C5F4472697665722F5372632F90
:101BD00073746D33326C3078785F68616C5F636FFB
:101BE000727465782E63000000ED00E000E400E010
:101BF00070B504460D46002C05D0012C03D01149C8
:101C000011A002F04FFE012D05D0022D03D01C497A
:101C10000DA002F047FE1B490868800880002043A1
:101C200008601948026904210A430261012D06D0A7
:101C300040BF20BF20BF02698A43026170BD30BF30
:101C4000F9E700001E0200002E2E2F44726976650F
:101C500072732F53544D33324C3078785F48414C77
:101C60005F4472697665722F5372632F73746D339C
:101C7000326C3078785F68616C5F7077722E6300C9
:101C80001F0200000070004000ED00E0F8B50746BC
:101C900000247F48874204D9FF2195317DA002F0BE
:101CA00001FE0125ED022901894B8A4A8A4E102F37
:101CB00071D008DC012F66D0022F6DD0042F6CD0BC
:101CC000082F58D1C0E08548202F03D0402F2FD0B7
:101CD000AF4250D13569336903273F043B400126A9
:101CE0003604B34203D1AE0501D50C46CDE0012147
:101CF00049048B4203D1A90701D5794CC5E0BB4209
:101D000039D11168890336D51168032212051140B3
:101D100001221205891A09D0891A05D0914201D1F0
:101D2000704CB2E00446B0E06F4CAEE06F4CACE0FB
:101D3000F1680126B606314000291DD11568AD01B4
:101D40001AD5D4680F2189040C40D1680325AD054C
:101D50002940674DA40C2C5D890D491CD568ED0305
:101D600004D41268D20602D4184600E061486043E9
:101D7000FEF7BEF9044688E0B1423FD19068800783
:101D80003CD55D4C81E0F0688007800F002805D0CD
:101D9000022807D00BE072E017E035E000F0BEFB50
:101DA000044672E01268520701D51C466DE0012816
:101DB00002D0032804D068E000F0C0FB044664E0D1
:101DC0003069800561D50C465FE0F0680C2528403D
:101DD000002802D0082804D008E000F08FFB044659
:101DE00053E01268520701D51C464EE0042802D089
:101DF0000C2804D049E000F0A1FB044645E030691E
:101E0000800542D50C4640E0F0680327BF02384009
:101E1000002806D0A84208D11268520705D51C46F2
:101E200033E000F06BFB04462FE001229202904267
:101E300003D100F083FB044627E0B84225D1306986
:101E4000800522D50C4620E0F068032109030840F4
:101E5000002808D001214903884208D111684907A8
:101E600005D51C4611E000F049FB04460DE00121B8
:101E70000903884209D100F061FB044605E0906B3C
:101E8000400202D500F03AFB04462046F8BD0000AF
:101E9000FF0800002E2E2F447269766572732F534F
:101EA000544D33324C3078785F48414C5F4472690E
:101EB0007665722F5372632F73746D33326C307882
:101EC000785F68616C5F7263635F65782E630000A2
:101ED0000024F400001002404010024000093D00C0
:101EE0008890000020A1070040420F0080841E005F
:101EF000DC8A000800127A00006CDC02F8B50446A7
:101F0000B2492068884203D97E21B1A002F0CAFC00
:101F10002068BE4D810601D401057BD5BC4EBD4F66
:101F200080061AD56068002817D0B04215D0B84294
:101F300013D00321090488420FD0132109048842D9
:101F40000BD023210904884207D033210904884299
:101F500003D08A219EA002F0A5FC208800051AD596
:101F6000A068002817D0B04215D0B84213D0032182
:101F7000090488420FD01321090488420BD0232181
:101F80000904884207D033210904884203D09021F4
:101F90008FA002F087FC00269F48806BC00005D40C
:101FA0009D48826B01040A43826301269B480168B5
:101FB000C90517D40068FF2101310843974908601B
:101FC000FFF778FA074695480068C0050AD4FFF77E
:101FD00071FAC01B642801D90320F8BD8F4800683E
:101FE000C005F4D58C4F38680321090508406268A4
:101FF0001140814205D10323A1681B05194081428C
:1020000009D09003800F032805D13868800302D5DA
:102010000120F8BD49E0286903210904084000288F
:102020002BD00A40824202D02278920606D4A268BF
:102030000A40824221D0208800051ED528698843A5
:102040002A690121C9040A432A612A698A432A614B
:102050002861C00511D5FFF72DFA00902869800589
:102060000BD4FFF727FA0099411A6D48814201D934
:102070000320F8BD28698005F3D560688103890FC6
:10208000032905D13A6809058A43084002433A60AA
:102090002869032261681204114008432861012E57
:1020A00003D1B96B30078143B9632078C00712D0E0
:1020B000E068002809D0012807D0032805D00228AD
:1020C00003D0F22142A002F0EDFBE868E16880084D
:1020D00080000843E8602078800712D52069002836
:1020E00009D0042807D00C2805D0082803D0FD21EA
:1020F00037A002F0D7FBE8680C2188432169084328
:10210000E8602078400717D503266069B6020028EA
:102110000DD001218902884209D0B04207D0490080
:10212000884204D0FF21083129A002F0BBFBE868F7
:102130006169B0430843E8602078000715D5A069BD
:1021400000280BD001210903884207D049008842AA
:1021500004D0FF2112311EA002F0A4FBE868032185
:1021600009038843A1690843E8602078400610D538
:102170000126206AB606B04206D0002804D0FF210E
:10218000283113A002F08EFBE868216AB0430843AF
:10219000E8602078000617D50326E069B604002819
:1021A0000DD001218904884209D04900884206D017
:1021B000B04204D0FF21303105A002F073FBE86883
:1021C000E169B0430843E8600020F8BDFF08000063
:1021D0002E2E2F447269766572732F53544D33320D
:1021E0004C3078785F48414C5F4472697665722F55
:1021F0005372632F73746D33326C3078785F68611B
:102200006C5F7263635F65782E630000401002406C
:1022100000000100000002000010024000700040B9
:1022200088130000F8B504460D46002C04D1CF21D8
:10223000890096A002F036FB2068C10709D181070A
:1022400007D4410705D4000703D49E498FA002F0AC
:1022500029FB002D05D0012D03D09B498BA002F056
:1022600021FB9A480068C007C00FA8420CD29748CB
:10227000016849084900294301600068C007C00F90
:10228000A84201D00120F8BD2078914F80071CD5CD
:10229000A068002813D0802811D090280FD0A02843
:1022A0000DD0B0280BD0C02809D0D02807D0E02806
:1022B00005D0F02803D0874974A002F0F3FAF8683B
:1022C000F0218843A1680843F8602078C00755D002
:1022D000606800280AD0012808D0022806D0032808
:1022E00004D0D721890069A002F0DCFA60680228D6
:1022F00008D003280BD001280ED03968890510D4E6
:102300000120F8BD396889030BD40120F8BD396874
:10231000890106D40120F8BD3968490701D401209C
:10232000F8BDF968890889000143F960FFF7C2F830
:102330000646616802290FD0032920D0012931D037
:10234000F9680907890F44D0FFF7B4F8811B624888
:1023500081423AD90320F8BDF9680907890F02299B
:1023600037D0FFF7A7F8811B5B48814201D90320D2
:10237000F8BDF8680007800F0228F2D129E0F9685B
:102380000907890F032924D0FFF794F8811B5248CD
:10239000814201D90320F8BDF8680007800F0328A7
:1023A000F2D116E0F9680907890F012911D0FFF76A
:1023B00081F8811B4848814201D90320F8BDF868A3
:1023C0000007800F0128F2D103E0F8680007800FB2
:1023D000BAD13E480168C907C90FA9420BD90168A3
:1023E00049084900294301600068C007C00FA8429E
:1023F00001D00120F8BD2078384E394D400717D55F
:10240000E06800280FD0B0420DD0052109028842B3
:1024100009D003214902884205D0A84203D031499E
:102420001AA002F03FFAF868E168A8430843F86090
:10243000207800071BD52069002810D0B0420ED0AC
:102440000521090288420AD003214902884206D0A8
:10245000A84204D07921C9000CA002F023FAF86840
:102460000721C90288432169C9000843F86000F0C8
:1024700065F8F9681C4A0906090F515CC8401B49F8
:1024800008600020FFF734F80020F8BD2E2E2F44FE
:102490007269766572732F53544D33324C307878AD
:1024A0005F48414C5F4472697665722F5372632FA7
:1024B00073746D33326C3078785F68616C5F72630F
:1024C000632E63003D0300003E0300000020024035
:1024D00000100240550300008813000000040000B3
:1024E00000070000C1030000CC8A0008580000204B
:1024F00001480068704700005800002000B5FFF751
:10250000F7FF0449C968044A4905490F515CC840AE
:1025100000BD000000100240E58A000800B5FFF78A
:10252000E7FF0449C968044A8904490F515CC8405F
:1025300000BD000000100240E58A000810B51C4AEA
:10254000D1680C230846184004280BD0082810D066
:102550000C2810D050680004410F491C0120C00312
:10256000884010BD1068C00601D5124810BD124841
:1025700010BD124810BD8802114B000F185C0902F3
:10258000890F491CD368DB0304D50C4A5043FDF77F
:10259000AFFD10BD1268D20604D5064A5043FDF7C0
:1025A000A7FD10BD044A5043FDF7A2FD10BD000079
:1025B0000010024000093D000024F40000127A00DF
:1025C000DC8A0008F0B583B00446002C04D1FF215A
:1025D0005031FDA002F066F92068002810D0C10734
:1025E0000ED181070CD481060AD4010708D4410713
:1025F00006D4C00604D4FF215131F3A002F052F9F1
:102600002078FF4EC0076AD0052560682D04002899
:102610000AD001210904884206D0A84204D0FF2133
:102620005731E9A002F03EF9F0680007800F022858
:1026300007D0F0680007800F03280BD1F068C003B3
:1026400008D5306880034AD56068002847D101204A
:1026500003B0F0BD012160680904884203D13068ED
:102660000843306015E0A84208D130680122920486
:10267000104330603068084330600AE030688843B7
:102680003060306808400190306801218904884337
:1026900030606068002811D0FEF70CFF05463068F6
:1026A00080031CD4FEF706FF401B642802D90320D8
:1026B00003B0F0BD30688003F4D510E0FEF7FAFEF9
:1026C0000546306880030AD5FEF7F4FE401B6428F7
:1026D00002D9032003B0F0BD30688003F4D4207821
:1026E000800767D5E068002808D0012806D00928AF
:1026F00004D0FF218B31B4A002F0D4F820691F2848
:1027000004D9FF218C31B0A002F0CCF8F0681F276B
:102710000007800F3F02012807D0F0680007800FF4
:10272000032812D1F068C0030FD43068400705D5E4
:10273000E068012802D0012003B0F0BD7068216973
:10274000B84309020843706034E0E06800281CD0F8
:1027500031680922914301433160FEF7ABFE054623
:10276000306840070AD4FEF7A5FE401B022802D9B4
:10277000032003B0F0BD30684007F4D570682169CC
:10278000B84309020843706014E030684008400014
:102790003060FEF78FFE0546306840070AD5FEF729
:1027A00089FE401B022802D9032003B0F0BD306827
:1027B0004007F4D42078C0067ED5F068914F00071A
:1027C000800F1ED0E069002805D0012803D08E4973
:1027D0007DA002F067F8E06900286ED03068FF2124
:1027E000013108433060FEF765FE0546306880051C
:1027F0007ED4FEF75FFE401B022876D9032003B08B
:10280000F0BD3068800502D5E069002833D0206A29
:10281000FF2804D9FF21D6316BA002F043F8606A8B
:1028200000281AD001214903884216D0B84214D09A
:1028300003214903884210D00121C90388420CD0EA
:1028400005214903884208D003218903884204D026
:10285000FF21D7315CA002F025F8606A7168072576
:102860006D032940884216D901F030FA002805D0BE
:10287000012003B0F0BD012003B0F0BD7068616AB3
:10288000A843084370607068218C0002000A0906A2
:102890000843706015E07168A94301437160706876
:1028A000218C0002000A090608437060606A01F08A
:1028B0000DFA002805D001E063E04CE0012003B0F0
:1028C000F0BD606A410B491C0120C0038840F168DB
:1028D0004E4A0906090F515CC8404D490860002066
:1028E000FEF706FE4DE003E0FFE73068800580D587
:1028F000206AFF2803D9474933A001F0D3FF606A5B
:10290000002819D001214903884215D0B84213D0BC
:102910000321490388420FD00121C90388420BD00B
:1029200005214903884207D003218903884203D047
:10293000394925A001F0B6FF706807214903884393
:10294000616A084370607068218C0002000A090601
:102950000843706015E03168FF2001308143316029
:10296000FEF7A8FD0546306880050AD5FEF7A2FDF2
:10297000401B022802D9032003B0F0BD3068800557
:10298000F4D42078254D000765D56069002805D06E
:10299000012803D022490CA001F084FF60690028BF
:1029A00044D02869012108432861FEF783FD0746CA
:1029B000286980074FD4FEF77DFDC01B022831D95E
:1029C000032003B0F0BD00002E2E2F4472697665FF
:1029D00072732F53544D33324C3078785F48414CEA
:1029E0005F4472697665722F5372632F73746D330F
:1029F000326C3078785F68616C5F7263632E63005D
:102A0000001002400040000002020000CC8A0008D2
:102A1000580000201602000017020000401002407B
:102A20003602000028698007C5D514E028694008EF
:102A300040002861FEF73EFD0746286980070AD559
:102A4000FEF738FDC01B022802D9032003B0F0BDF9
:102A500028698007F4D42078400771D50027A06842
:102A600000280AD0C11FF93907D005210902884280
:102A700003D0BA49BA4801F015FFB06BC00005D4C5
:102A8000B16B012000070143B1630127B54801681C
:102A9000C90519D40068FF2101310843B149086014
:102AA000FEF708FD0290AF480068C0050CD4FEF7A1
:102AB00001FD0299401A642802D9032003B0F0BD39
:102AC000A8480068C005F2D5FF20A2680130824204
:102AD00003D12969014329611BE001218902002AF0
:102AE0000AD005231B029A420DD12A690A432A61A2
:102AF0002969014329610CE02A6982432A61286916
:102B00008843286105E02A6982432A61286988434D
:102B10002861A068002814D0FEF7CCFC0290286938
:102B2000800521D4FEF7C6FC0299411A8E488142E5
:102B300002D9032003B0F0BD28698005F2D513E067
:102B400018E0FEF7B7FC0290286980050CD5FEF767
:102B5000B1FC0299411A8448814202D9032003B092
:102B6000F0BD28698005F2D4012F03D1B16B38077D
:102B70008143B1632078800643D5A069002805D041
:102B8000012803D07949764801F08CFEA169784884
:102B900000291CD0B26801210A43B260726B0A435B
:102BA0007263016A421411430162FEF783FC054619
:102BB000B068800725D4FEF77DFC401B022802D9AF
:102BC000032003B0F0BDB0688007F4D519E0B16808
:102BD00049084900B160016A012252039143016230
:102BE000FEF768FC0546B06880070AD5FEF762FC70
:102BF000401B022802D9032003B0F0BDB068800753
:102C0000F4D4A06A002807D0012805D0022803D0F8
:102C10005849534801F046FEA06A00287ED0F1686A
:102C20000907890F03297AD001273F06022810D00F
:102C30003068B8433060FEF73DFC044630688001E0
:102C40006CD5FEF737FC001B02287CD9032003B0AB
:102C5000F0BDE06A002808D001210904884204D0B0
:102C6000B72189003E4801F01DFE206B002822D0CC
:102C70000121890488421ED0490088421BD00321CB
:102C80008904884217D001210905884213D0052103
:102C9000890488420FD00321C90488420BD0072140
:102CA0008904884207D001214905884203D032496E
:102CB0002B4801F0F7FD0121606B890588420AD09D
:102CC0004900884207D003218905884203D02B4957
:102CD000234801F0E7FD3068B8433060FEF7EAFBB7
:102CE0000546306880010AD5FEF7E4FB401B022848
:102CF00002D9032003B0F0BD30688001F4D4216B09
:102D0000E06AF2680843616BFD231B049A43114398
:102D10000843F06030683843306002E017E019E0A3
:102D200011E0FEF7C7FB0446306880010FD4FEF7C0
:102D3000C1FB001B022802D9032003B0F0BD30689C
:102D40008001F4D503E03068800100D579E70020E8
:102D500003B0F0BD012003B0F0BD0000620200002E
:102D6000C82900080070004088130000A902000074
:102D700000000140D3020000DD020000DE0200007E
:102D800070B505460C46052C03D3054905A001F096
:102D900089FD28685030A1000818006870BD000047
:102DA000B90500002E2E2F447269766572732F5379
:102DB000544D33324C3078785F48414C5F447269EF
:102DC0007665722F5372632F73746D33326C307863
:102DD000785F68616C5F7274635F65782E63000072
:102DE00070B506460C461546052C03D3044905A0CC
:102DF00001F058FD30685030A1000818056070BD22
:102E0000A30500002E2E2F447269766572732F532E
:102E1000544D33324C3078785F48414C5F4472698E
:102E20007665722F5372632F73746D33326C307802
:102E3000785F68616C5F7274635F65782E63000011
:102E4000F8B504460F461646002E0DD0012E0BD0C5
:102E5000022E09D0032E07D0042E05D0062E03D053
:102E6000454946A001F01EFD5348874203D9534906
:102E700042A001F017FD254620352878012825D0ED
:102E800001202870022068702168CA2048622168E9
:102E9000532048622068806840051DD5FEF70AFB74
:102EA00000902068C068400716D5FEF703FB009924
:102EB000411A7D20C00081420AD92168FF20486262
:102EC00003206870002028700320F8BD0220F8BDA0
:102ED0002068C0684007E8D4206882680121890220
:102EE0008A4382602068C16880221140344A891870
:102EF000C160FEF7DFFA00902068C068400714D474
:102F0000FEF7D8FA0099411A7D20C000814208D905
:102F10002168FF2048620320687000202870032089
:102F2000F8BD2068C0684007EAD52068476120687E
:102F30008168C908C9008160206881683143816067
:102F400020480268012109050A43026082680A4399
:102F500082602068816801229203114381602068A9
:102F600081681211114381602168FF2048620120AD
:102F7000687000202870F8BD960400002E2E2F44A3
:102F80007269766572732F53544D33324C307878B2
:102F90005F48414C5F4472697665722F5372632FAC
:102FA00073746D33326C3078785F68616C5F727403
:102FB000635F65782E630000FFFF00009704000048
:102FC0007FFBFFFF000401407047000010B504467E
:102FD0002068C068400509D52046FFF7F5FF206846
:102FE000C16880221140054A8918C1600120044946
:102FF0000005486101202034607010BD7FFBFFFF99
:103000000004014070B50446002C54D04E4920689D
:10301000884203D0B9214DA001F044FC60684028EB
:1030200005D0002803D0BA2148A001F03BFCA068DD
:103030007F2803D9BB2145A001F034FC5149E06849
:10304000884203D9BC2141A001F02CFC2069002852
:103050000ED00121490588420AD04900884207D094
:1030600003214905884203D0BD2138A001F01AFC94
:103070006069002805D0022803D0BE2133A001F0EA
:1030800011FCA069002807D001210905884203D05E
:10309000BF212EA001F006FCE069002805D0012820
:1030A00003D0C02129A001F0FDFB2546203568781A
:1030B000002802D006E0012070BD002028702046C4
:1030C00000F064F8022068702168CA204862216814
:1030D00053204862204600F047FEFF21002805D01B
:1030E0002068416204206870012070BD20688268F9
:1030F000254B1A408260206882686368A6691A437B
:10310000236933431A4382602268E06810612068B3
:10311000026923891B041A4302612068C268802364
:103120009A43C2602068C26C92089200C264E2694D
:10313000606902432068C36C1A43C264206841621C
:1031400001206870002070BD002800402E2E2F4402
:103150007269766572732F53544D33324C307878E0
:103160005F48414C5F4472697665722F5372632FDA
:1031700073746D33326C3078785F68616C5F727431
:10318000632E6300FF7F0000BFFF8FFF10B5006854
:10319000084988420DD1084801690122920411436F
:1031A0000161002211460220FEF7D8FC0220FEF742
:1031B000A5FC10BD0028004040100240F8B50546AF
:1031C0000C461746002F05D0012F03D05A495BA0AB
:1031D00001F068FB2E4620363078012806D0012009
:1031E000307002207070002F02D008E00220F8BD7D
:1031F0006078C10603D5EF2108400A30607020785E
:1032000001280FD002280DD003280BD0042809D0A4
:10321000052807D0062805D0072803D0554947A020
:1032200001F040FB002F3CD0E07800F089FD6328DE
:1032300004D99B21890041A001F034FB607800F0A3
:103240007FFD401E0B2803D94B493CA001F02AFB0F
:10325000A07800F075FD401E1E2804D92721090121
:1032600036A001F01FFBE078A778000407436078E0
:10327000217800024903084307432968CA204862AD
:10328000296853204862284600F06EFD002400287B
:103290002FD02968FF20486204207070347001200C
:1032A000F8BDE078632803D9344924A001F0FAFA84
:1032B0006078401E0B2803D9314920A001F0F2FAB2
:1032C000A078401E1E2803D92E491CA001F0EAFA5E
:1032D000E07800F03DFD0704607800F039FD000261
:1032E0000743A07800F034FD0743207840030743EC
:1032F000C3E725480740286847602868C1688022DE
:103300009143C1602868806880060CD4284600F08C
:103310005BF9002807D02968FF20486204207070FC
:1033200034700120F8BD2968FF20486201207070C8
:1033300034700020F8BD0000510200002E2E2F44F2
:103340007269766572732F53544D33324C307878EE
:103350005F48414C5F4472697665722F5372632FE8
:1033600073746D33326C3078785F68616C5F72743F
:10337000632E63005D0200006E0200006102000027
:1033800062020000630200003FFFFF00F8B505463F
:103390000C461746002F06D0012F04D0FF219F3185
:1033A0007AA001F07FFA0121E0684904884209D03F
:1033B0004910884206D0002804D0FF21A03173A014
:1033C00001F070FA2069002808D0012189048842A0
:1033D00004D0FF21A1316DA001F064FA2E46203601
:1033E000307801281FD00120307002207070002F2B
:1033F0001BD02868806840065AD5207800F0A0FCD1
:10340000401E0B2804D9FF21C13160A001F04AFA07
:10341000E078002858D0402856D0FF21C2315BA068
:1034200001F040FA50E00220F8BD286880684006AC
:1034300013D52078401E0B2804D9FF21AC3153A0AE
:1034400001F030FAE078002811D040280FD0FF2199
:10345000AD314EA001F026FA09E00020E07020789E
:10346000172804D9FF21B23148A001F01BFA607877
:103470003B2804D9FF21B43144A001F013FAA0780D
:103480003B2804D9FF21B53140A001F00BFA207888
:1034900000F05EFC0704607800F05AFC000207436D
:1034A000A07800F055FC0743E0780004074329E0CA
:1034B0000020E070207800F043FC172804D9FF2199
:1034C000C73132A001F0EEF9607800F039FC3B28FA
:1034D00004D9FF21C9312DA001F0E4F9A07800F052
:1034E0002FFC3B2804D9FF21CA3128A001F0DAF9CA
:1034F0002078A778000407436078E1780002090487
:10350000084307432968CA20486229685320486253
:10351000284600F029FC002808D02968FF204862CE
:1035200004207070002030700120F8BD254807404D
:103530002868076028688268012189048A438260BC
:10354000E168206901432868826811438160286826
:10355000C16880229143C1602868806880060DD4CC
:10356000284600F031F8002808D02968FF2048627A
:1035700004207070002030700120F8BD2968FF2001
:1035800048620120707000203070F8BD2E2E2F444C
:103590007269766572732F53544D33324C3078789C
:1035A0005F48414C5F4472697665722F5372632F96
:1035B00073746D33326C3078785F68616C5F7274ED
:1035C000632E63007F7F7F0070B504462068C1686A
:1035D000A0229143C160FDF76DFF05462068C068D9
:1035E00080060CD47D26F600FDF764FF401BB04238
:1035F00001D9032070BD2068C0688006F4D5002082
:1036000070BD000002480169022211430161704748
:1036100000E000E010B50446042C06D0002C04D0D5
:10362000FF212B3107A001F03DF904211448042C9F
:1036300003D002698A43026110BD02690A43026134
:1036400010BD00002E2E2F447269766572732F53C1
:10365000544D33324C3078785F48414C5F44726946
:103660007665722F5372632F73746D33326C3078BA
:10367000785F68616C5F636F727465782E630000B9
:1036800000E000E07047000010B40B49401E884283
:1036900002D910BC01207047084948610848072337
:1036A000C2691202120A4C042243C26100208861DE
:1036B0000B6110BC70470000FFFFFF0000E000E05E
:1036C00004ED00E010B5FFF7DDFF10BD0248016911
:1036D000022291430161704700E000E070477047AB
:1036E000F8B504462368D869196805072D0F002D21
:1036F00007D1820605D58A0603D5204600F0FEFDD7
:10370000F8BD9A682027002D69D0D507ED0FFF2658
:1037100021360E402E4362D0C60706D0CE0504D512
:1037200001261E62E36E3343E366830708D5D307A1
:1037300006D0266802233362E36E04263343E36631
:10374000430708D5D20706D0236804221A62E26E26
:1037500002231A43E266020709D50A463A402A4381
:1037600005D0236808221A62E36E1343E366E26E13
:10377000002AC5D0800604D5880602D5204600F070
:10378000BDFDE06E000703D420688068400620D5A8
:10379000204600F097FD20688168490615D58168AC
:1037A000402291438160606E00280AD01B498163EA
:1037B000606EFDF737FC0028A2D0606E816B8847F1
:1037C000F8BD2046FFF78BFFF8BD2046FFF787FFC7
:1037D000F8BD2046FFF783FF0020E066F8BDC50274
:1037E0000CD552020AD5012000051862204660302F
:1037F000477287722046FFF771FFF8BD020605D5B4
:103800000A0603D5204600F0C5FFF8BD4006FCD5EA
:103810004806FAD5204600F064FDF8BDB142000824
:1038200070B50446002C11D0A0692749274A284BBF
:1038300000280DD02068884215D0904213D09842BD
:1038400011D0EC2123A001F02DF80CE0012070BD77
:103850002068884207D0904205D0984203D0F121D9
:103860001CA001F01FF825466035687A002803D1B6
:103870002872204600F04CF8242068722068016805
:10388000490849000160606A002802D0204600F023
:10389000D5FB204600F072FD012813D02068416856
:1038A0000922D20291434160206881682A22914313
:1038B000816020680168012211430160204600F008
:1038C000C5FC70BD012070BD0038014000440040BF
:1038D000004800402E2E2F447269766572732F5374
:1038E000544D33324C3078785F48414C5F447269B4
:1038F0007665722F5372632F73746D33326C307828
:10390000785F68616C5F756172742E6300000000FF
:1039100000B585B00068114988421DD11048416B3F
:1039200001229203114341630320400200900220D0
:1039300001900120029003200390042004900520B0
:1039400069460007FDF7CCFB002203211B20FEF790
:1039500005F91B20FEF7D2F805B000BD0038014084
:1039600000100240704770470149002008707047FE
:1039700000000020034802210268D160006808218D
:10398000C16070475C00002070B50446FDF792FDF1
:10399000054620688068C04380060FD57D26F60066
:1039A000FDF788FD401BB04203D90120A06303202E
:1039B00070BD20688068C0438006F1D4002070BDCF
:1039C00010B50848006841681F2252031143416046
:1039D0000448FFF7D9FF042296210348FFF730FA85
:1039E00010BD00005C0000206801002000B583B01D
:1039F00025482449016000210164012292074260A8
:103A000081600122C2630261C16001624262C162DF
:103A1000FF22C232826201630422426141638161FA
:103A20008163C161FDF722F8002803D04D2117A062
:103A300000F028FF19480090801301906946124851
:103A4000FCF746FE002803D0562110A000F01AFF14
:103A50001348009069460C48FCF73AFE002803D052
:103A60005E210AA000F00EFF0E480090694606484D
:103A7000FCF72EFE002803D0662104A000F002FF10
:103A800003B000BD00240140080100202E2E2F535A
:103A900072632F6164632E63000000000200000463
:103AA0001000001000000244F0B587B02848C26A38
:103AB00004210A43C262C26A0A400192C26A80219A
:103AC0000A43C262C26A0A400192C16A01263143B6
:103AD000C162C16A31400191C16A02252943C162B4
:103AE000C06A284001900022E9011A48FDF784FCD1
:103AF000072040030290032403940027049702A99F
:103B00001548FDF7EDFA02940394049702A91348AF
:103B1000FDF7E6FA1248029003940497052002A9E3
:103B20000007FDF7DDFAB1208000029003940497AE
:103B300002A90848FDF7D4FAE8010290039604951B
:103B4000059702A90348FDF7CBFA07B0F0BD0000C6
:103B5000001002400004005000080050001C0050FB
:103B60002198000010B511480F4901600121C905D5
:103B7000416000218160C1600161416103229202C4
:103B8000826101225202C26170220262416281623C
:103B9000C1620163FDF7C0FC002803D0462104A0E8
:103BA00000F070FE10BD0000002400405C0000200A
:103BB0002E2E2F5372632F6C63642E63000000005F
:103BC00030B587B0284827490160002444607F2130
:103BD0008160FF21C160046144618461C461FFF7B9
:103BE00011FA002803D0432120A000F04BFE002151
:103BF0001D48FFF7C5F8214DA84226D0684604723B
:103C00004472847205940694012202A91648FFF7B3
:103C1000BDFB002803D0502114A000F033FE01208A
:103C20006946087148718871CC71012201A90E485A
:103C3000FFF7C4FA002803D05A210CA000F022FE9E
:103C40002A4600210848FFF7CBF804221E21064827
:103C5000FFF7F6F8002803D0632104A000F012FE5D
:103C600007B030BD00280040680100202E2E2F53E1
:103C700072632F7274632E6300000000F232000042
:103C800010B50D480B4901604B21C901416000216D
:103C90008160C16001610C2242618161C161016288
:103CA0004162FFF7BDFD002803D0442103A000F0CE
:103CB000E9FD10BD00380140980000202E2E2F5342
:103CC00072632F75736172742E63000070B40021EB
:103CD000174BDA681206120F18D19A6B164CD500E2
:103CE000144A02D51268224009E09E6B01252D0777
:103CF0002E439E63126822409E6BAE439E63A24297
:103D000004D103229203904200D101210B480268A2
:103D1000520852000A4302600068C007C00F884280
:103D200002D070BC0120704770BC002070470000BA
:103D30000010024000700040001800000020024007
:103D400001090A2251430007000F4018C0B2704712
:103D500000210A2804D3491C0A38C0B20A28FAD222
:103D60000907090E0843704770B504462068C1680A
:103D7000490616D40021C943C160FDF79BFB0546E7
:103D80002068C06840060CD47D26F600FDF792FB43
:103D9000401BB04201D9032070BD2068C0684006B6
:103DA000F4D5002070BD000010B50248FFF70EF9F1
:103DB00010BD00006801002002498000085A00B2CE
:103DC00070470000CC4A000810B5064909884843EE
:103DD000FCF76FFA0B21C943FCF75FFAFCF77BFA9B
:103DE00080B210BD4600002070B501460B48048B20
:103DF0000B4844800846FCF767FA05462046FCF766
:103E000063FA0849FCF7CEF92946FCF708FA064997
:103E1000FCF7C8F9FCF75FFA80B270BD6000F81FCC
:103E2000460000200000404000007A4410B5174CC6
:103E300020688168022211438160216803200860A4
:103E4000FFF744FCFCF798FB11480168042211437A
:103E5000016010480068C168802211400E4A89182C
:103E6000C16001200D490005486101210846FDF7A8
:103E7000BFFE00F075F8FFF7C5FBFCF761FB20689B
:103E8000816801221143816010BD000008010020FB
:103E900000700040680100207FFBFFFF000401402C
:103EA00010B5FDF70DFBFFF70DFC10BD10B59CB074
:103EB000264908680322D2029043CA148018086079
:103EC00018200E90012013901590002416940320C2
:103ED0008003179018940EA8FEF774FB002803D0F7
:103EE000C5211BA000F0CEFC0F2009900A94902061
:103EF0000B900C940D94002109A8FEF793F900286B
:103F000003D0D32112A000F0BDFC21200090039427
:103F10000120400401906846FDF7F0FF002803D01F
:103F2000DB210BA000F0AEFCFEF7E2FA7D21C90018
:103F3000FCF7DEF8FFF7A8FB0420FFF76BFB00227D
:103F40001146501EFDF70AFE1CB010BD0070004067
:103F50002E2E2F5372632F6D61696E2E6300000049
:103F600030B59DB01E48816B0204114381631D482A
:103F700001680322D2029143C214891801600A2009
:103F80000E9001251195102012901395002418947D
:103F90000EA8FEF717FB032009900A95A0200B90AE
:103FA0000C940D94002109A8FEF73CF92120009003
:103FB0000394680401906846FDF7A0FFFEF798FAA5
:103FC0007D21C900FCF794F8FFF75EFB0420FFF7A2
:103FD00021FB00221146501EFDF7C0FD1DB030BD73
:103FE0000010024000700040104801688215114323
:103FF0000160C1680E4A1140C16001680D4A11405C
:1040000001608168490849008160016801229204C9
:1040100091430160C168FD2212049143C1600021F7
:1040200001610549C003886070470000001002402C
:104030000C40FF88F6FFF6FE00ED00E070B5044688
:10404000606AFF2803D9664966A000F02BFCA08CAB
:10405000C00710D00125A06A6D04002805D0A84231
:1040600003D06F495FA000F01DFC20684168A26A80
:10407000A94311434160A08C800710D50125E06A57
:104080002D04002805D0A84203D0664955A000F0B1
:1040900009FC20684168E26AA94311434160A08C91
:1040A000400710D50125206BAD04002805D0A8429B
:1040B00003D05D494BA000F0F5FB20684168226BFE
:1040C000A94311434160A08C000710D50125606B06
:1040D000ED03002805D0A84203D0544941A000F0C8
:1040E000E1FB20684168626BA94311434160A08CE9
:1040F000C00610D50125A06B2D03002805D0A842CD
:1041000003D04B4937A000F0CDFB20688168A26B3B
:10411000A94311438160A08C800610D50125E06B76
:104120006D03002805D0A84203D042492DA000F01D
:10413000B9FB20688168E26BA94311438160A08CC0
:10414000400637D53C492068884207D03B49884221
:1041500004D09321090123A000F0A4FB0125206CC9
:104160002D05002805D0A84203D035491DA000F038
:1041700099FB20684168226CA94311434160206C7F
:10418000A84217D10325606C6D0500280CD00121D1
:104190004905884208D04900884205D0A84203D08A
:1041A000284910A000F07EFB20684168626CA9439A
:1041B00011434160A08C000610D50125A06CED04D0
:1041C000002805D0A84203D01F4906A000F06AFBD2
:1041D00020684168A26CA9431143416070BD000092
:1041E000010900002E2E2F447269766572732F53D9
:1041F000544D33324C3078785F48414C5F4472699B
:104200007665722F5372632F73746D33326C30780E
:10421000785F68616C5F756172742E6300000000E6
:10422000060900000D090000140900001B09000028
:104230002209000029090000003801400044004024
:1042400031090000360900003E090000F8B50446B7
:104250000025E566FDF72EF9074620680068134E35
:1042600000070BD501213B46002249052046009658
:1042700000F0C4FA002801D00320F8BD20680068CF
:1042800040070BD501213B460022890520460096B8
:1042900000F0B4FA002801D00320F8BD20206034DB
:1042A0006072A07225720020F8BD0000FFFFFF01C0
:1042B00010B5806A0022014640314A834A82FFF7E6
:1042C0000EFA10BD01680A68FF2321339A430A6081
:1042D00001688A68520852008A6020216030817229
:1042E000704710B501680A6840239A430A6020228B
:1042F00069210A54FFF737FB002010BD70B5024654
:104300004032938B014660318D7A0C460168222D34
:1043100005D08869082210438861022070BD496A6F
:1043200089B2012685683603B54202D10569002DA0
:104330000CD01940436D5D1C45651970518B491EA9
:104340000904090C518308D0002070BD456D194047
:104350002980416D891C4165F0E701680A68FF23E7
:1043600021339A430A6001688A68520852008A60C1
:104370002021A172FFF7F6FA002070BDF8B50446BF
:10438000102600270025E0496068884203D3DF49F2
:10439000DFA000F087FA0121A0680907884208D051
:1043A000002806D00914884203D0E849D8A000F0BC
:1043B00079FAE74822684114824209D1E06800286E
:1043C0001ED088421CD0E349D1A000F06BFA17E060
:1043D000E068002809D003221203904205D08842E9
:1043E00003D0DD49CAA000F05DFA206A002807D09A
:1043F0000121C902884203D0D849C5A000F052FA71
:10440000206900280CD001218902884208D00321AC
:104410004902884204D085210901BDA000F042FA7A
:1044200060690C2102468A4301D1002803D1CC499E
:10443000B7A000F037FAA06900280DD0C11FF939E4
:104440000AD0FF39013907D003210902884203D07D
:10445000C449AFA000F026FAE069002807D0012186
:10446000C903884203D0C049A9A000F01BFAA16883
:104470002069E269014360691043014320680268D2
:10448000BA4B1A400A4302602068416803221203B3
:104490009143E26811434160A069AD4A21689142AD
:1044A00001D0226A10438A680B231B029A430243FD
:1044B0008A60AF4A2068AF49904212D1C86880072D
:1044C000800F06D0012808D0022804D003282ED15E
:1044D00005E001262BE0022629E0042627E0082635
:1044E00025E0A54A904212D1C8680C21084006D0A8
:1044F000042808D0082804D00C2818D105E000268C
:1045000015E0022613E0042611E008260FE0904A89
:1045100090420CD1C86803218902084027D01115A8
:10452000401A28D0401A24D0884200D10826022000
:10453000FDF7ACFB02462068854B904900909842FD
:104540003ED10020002E18D0022E19D0042E1ED0ED
:10455000082E1FD00125002872D062685100511822
:10456000814202D81103814217D20125C9E00026F9
:10457000DDE70226DBE70426D9E7FDF7BFFFEAE720
:104580000868C00601D57E48E5E77E48E3E7FDF709
:10459000D5FFE0E70120C003DDE7010E0602500869
:1045A000002330185941FBF7CDFD03210902764A5B
:1045B000411A914202D82168C860A2E00125A0E01A
:1045C0000120E369C00383424DD1092E42D230005D
:1045D0007844007900188744040C163D293D3D3D80
:1045E0003400616850004A088018FBF781FD87B2EB
:1045F00031E0FDF793FF616840004A088018FBF73F
:1046000077FD87B227E00868C00607D561685F4A72
:1046100048088018FBF76CFD87B21CE061685C4AB3
:1046200048088018FBF764FD87B214E0FDF786FFA9
:10463000616840004A088018FBF75AFD87B20AE01B
:104640005FE061680122480812048018FBF750FD02
:1046500087B200E00125390909013807400F0843F6
:104660002168C8604DE0092E4AD232007A4412799E
:1046700092189744040F1A45314545453C00FDF713
:104680003DFF61684A088018FBF732FD216880B25F
:10469000C86036E0FDF742FF61684A088018FBF702
:1046A00027FD216880B2C8602BE00868C00609D5E4
:1046B000616833484A081018FBF71AFD81B2009868
:1046C000C1601EE061682F484A081018FBF710FD12
:1046D00081B20098C16014E0FDF730FF61684A08BC
:1046E0008018FBF705FD216880B2C86009E06168A9
:1046F0004A081018FBF7FCFC81B20098C16000E08A
:1047000001252846F8BD000001093D0044080000CD
:104710002E2E2F447269766572732F53544D3332A7
:104720004C3078785F48414C5F4472697665722FEF
:104730005372632F73746D33326C3078785F6861B5
:104740006C5F756172742E63000000004508000004
:1047500000480040480800004C0800004D080000D8
:10476000510800005208000053080000F369FFEFF1
:104770000038014040100240004400400010024058
:1047800000093D000024F400FFFC0F0000127A0035
:104790000048E8016921095C212901D00220704705
:1047A000014640314A8A002A12D0012382681B0345
:1047B0009A4202D10269002A16D0C26C531CC3640B
:1047C000006812788262488A401E48820020704742
:1047D00001680A6880239A430A60006801684022E1
:1047E0001143016000207047C26C03681288D20533
:1047F000D20D9A62C26C921CC264E4E7FFB581B02C
:104800000A9C05460E4617462868C169304688430B
:1048100020D00020B84227D1601C1DD0002C05D02C
:10482000FCF748FE0499401AA04215D9286801688F
:10483000FF22A1329143016028688168490849003C
:104840008160202060356872A872002028720320E1
:1048500005B0F0BD0120DDE72868C1693046884316
:1048600005D00020B842D7D0002005B0F0BD01200F
:10487000F8E7000010B50248FEF732FF10BD000057
:1048800098000020FEE702E008C8121F08C1002AB5
:10489000FAD170477047002001E001C1121F002AC1
:1048A000FBD1704770470000F8B5044620460A382F
:1048B000384E394D5A2810D20A212046FBF72EFCDB
:1048C00089B2698080B2A88042000931334849002A
:1048D000715A805A0818288145E00A2C06D2A0B2E5
:1048E000688009304000305A28813CE02046093079
:1048F000092809D26000201A80B268800921081AAC
:104900004000305A28812EE020466438642820D2A6
:104910000A212046FBF702FC8FB26F8080B2A8808C
:104920000A2803D30A21FBF7E3FBA9806421204670
:10493000FBF7F4FB80B2E88009377900725AA98846
:1049400040004B001549CB5A085AD218101828813C
:1049500009E0C82C02DA0A20C44204DC0F48718C3A
:10496000008A081828812B892A7800210C48FDF735
:1049700025F8002803D08A210AA0FFF783FF084802
:10498000FCF7F0FF002803D08B2106A0FFF77AFF89
:10499000F8BD00000C0000200200002032000020C2
:1049A0005C0000202E2E5C5372635C4C63644D618E
:1049B0006E6167656D656E742E630000FCF788FD9F
:1049C000FFF774FAFFF770F8FFF710F8FFF7CAF86F
:1049D000FFF7F6F8FFF754F9FF21002201312D48C7
:1049E000FCF70AFDFEF7C0FF0120FCF76DFB2A482B
:1049F0000068416807229202114341602648FEF791
:104A0000C3FF0120FCF760FB5820FFF74DFFFF209C
:104A1000F530FCF759FB00212048FBF7D9FD0028B1
:104A200003D07B211EA0FFF72DFF214C214E022732
:104A3000214D2BE01948FCF789FA002803D08A2180
:104A400017A0FFF71FFF377020E001281ED11B4879
:104A50000088FFF7C9F91A4908801A480088FFF74B
:104A6000B3F9288018480088FFF7A6F92080298824
:104A70004B20C000814201D8FEF7A2FF0020205E3B
:104A8000FFF712FF00203070FFF7D0F930780028D0
:104A9000DBD1CFE7000400505C00002008010020BB
:104AA0002E2E2F5372632F6D61696E2E63000000EE
:104AB0004C000020000000204A000020520000208E
:104AC000460000204E000020500000203B01000066
:104AD00010010000E5000000CF000000C100000050
:104AE000B6000000AE000000A7000000A10000001A
:104AF0009C0000009800000094000000910000005D
:104B00008E0000008B00000088000000860000007E
:104B100084000000810000007F0000007E00000093
:104B20007C0000007A00000079000000770000009F
:104B300076000000740000007300000072000000A6
:104B400071000000700000006E0000006D000000A9
:104B50006C0000006B0000006A0000006A000000AA
:104B600069000000680000006700000066000000A7
:104B700065000000650000006400000063000000A4
:104B800062000000620000006100000060000000A0
:104B9000600000005F0000005F0000005E00000099
:104BA0005D0000005D0000005C0000005C00000093
:104BB0005B0000005B0000005A0000005A0000008B
:104BC0005900000059000000580000005800000083
:104BD000570000005700000056000000560000007B
:104BE0005500000055000000550000005400000072
:104BF0005400000053000000530000005300000068
:104C0000520000005200000052000000510000005D
:104C10005100000050000000500000005000000053
:104C20004F0000004F0000004F0000004E00000049
:104C30004E0000004E0000004D0000004D0000003E
:104C40004D0000004D0000004C0000004C00000032
:104C50004C0000004B0000004B0000004B00000027
:104C60004B0000004A0000004A0000004A0000001B
:104C70004900000049000000490000004900000010
:104C80004800000048000000480000004800000004
:104C900047000000470000004700000047000000F8
:104CA00047000000460000004600000046000000EB
:104CB00046000000450000004500000045000000DF
:104CC00045000000450000004400000044000000D2
:104CD00044000000440000004300000043000000C6
:104CE00043000000430000004300000042000000B9
:104CF00042000000420000004200000042000000AC
:104D0000410000004100000041000000410000009F
:104D10004100000041000000400000004000000091
:104D20004000000040000000400000003F00000084
:104D30003F0000003F0000003F0000003F00000077
:104D40003F0000003E0000003E0000003E0000006A
:104D50003E0000003E0000003E0000003D0000005C
:104D60003D0000003D0000003D0000003D0000004F
:104D70003D0000003D0000003C0000003C00000041
:104D80003C0000003C0000003C0000003C00000033
:104D90003C0000003B0000003B0000003B00000026
:104DA0003B0000003B0000003B0000003A00000018
:104DB0003A0000003A0000003A0000003A0000000B
:104DC0003A0000003A0000003A00000039000000FC
:104DD00039000000390000003900000039000000EF
:104DE00039000000390000003800000038000000E1
:104DF00038000000380000003800000038000000D3
:104E000038000000380000003700000037000000C4
:104E100037000000370000003700000037000000B6
:104E200037000000370000003700000036000000A7
:104E3000360000003600000036000000360000009A
:104E4000360000003600000036000000350000008B
:104E5000350000003500000035000000350000007E
:104E6000350000003500000035000000350000006E
:104E70003400000034000000340000003400000062
:104E80003400000034000000340000003400000052
:104E90003400000034000000330000003300000044
:104EA0003300000033000000330000003300000036
:104EB0003300000033000000330000003300000026
:104EC000320000003200000032000000320000001A
:104ED000320000003200000032000000320000000A
:104EE00032000000320000003100000031000000FC
:104EF00031000000310000003100000031000000EE
:104F000031000000310000003100000031000000DD
:104F100031000000300000003000000030000000D0
:104F200030000000300000003000000030000000C1
:104F300030000000300000003000000030000000B1
:104F40002F0000002F0000002F0000002F000000A5
:104F50002F0000002F0000002F0000002F00000095
:104F60002F0000002F0000002F0000002E00000086
:104F70002E0000002E0000002E0000002E00000079
:104F80002E0000002E0000002E0000002E00000069
:104F90002E0000002E0000002E0000002E00000059
:104FA0002D0000002D0000002D0000002D0000004D
:104FB0002D0000002D0000002D0000002D0000003D
:104FC0002D0000002D0000002D0000002D0000002D
:104FD0002C0000002C0000002C0000002C00000021
:104FE0002C0000002C0000002C0000002C00000011
:104FF0002C0000002C0000002C0000002C00000001
:105000002C0000002C0000002B0000002B000000F2
:105010002B0000002B0000002B0000002B000000E4
:105020002B0000002B0000002B0000002B000000D4
:105030002B0000002B0000002B0000002B000000C4
:105040002A0000002A0000002A0000002A000000B8
:105050002A0000002A0000002A0000002A000000A8
:105060002A0000002A0000002A0000002A00000098
:105070002A0000002A00000029000000290000008A
:10508000290000002900000029000000290000007C
:10509000290000002900000029000000290000006C
:1050A000290000002900000029000000290000005C
:1050B000290000002900000028000000280000004E
:1050C0002800000028000000280000002800000040
:1050D0002800000028000000280000002800000030
:1050E0002800000028000000280000002800000020
:1050F0002800000027000000270000002700000013
:105100002700000027000000270000002700000003
:1051100027000000270000002700000027000000F3
:1051200027000000270000002700000027000000E3
:1051300027000000270000002600000026000000D5
:1051400026000000260000002600000026000000C7
:1051500026000000260000002600000026000000B7
:1051600026000000260000002600000026000000A7
:105170002600000026000000260000002500000098
:10518000250000002500000025000000250000008B
:10519000250000002500000025000000250000007B
:1051A000250000002500000025000000250000006B
:1051B000250000002500000025000000250000005B
:1051C000250000002400000024000000240000004E
:1051D000240000002400000024000000240000003F
:1051E000240000002400000024000000240000002F
:1051F000240000002400000024000000240000001F
:10520000240000002400000024000000240000000E
:105210002300000023000000230000002300000002
:1052200023000000230000002300000023000000F2
:1052300023000000230000002300000023000000E2
:1052400023000000230000002300000023000000D2
:1052500023000000230000002300000023000000C2
:1052600022000000220000002200000022000000B6
:1052700022000000220000002200000022000000A6
:105280002200000022000000220000002200000096
:105290002200000022000000220000002200000086
:1052A0002200000022000000220000002200000076
:1052B000210000002100000021000000210000006A
:1052C000210000002100000021000000210000005A
:1052D000210000002100000021000000210000004A
:1052E000210000002100000021000000210000003A
:1052F000210000002100000021000000210000002A
:10530000210000002100000020000000200000001B
:10531000200000002000000020000000200000000D
:1053200020000000200000002000000020000000FD
:1053300020000000200000002000000020000000ED
:1053400020000000200000002000000020000000DD
:1053500020000000200000002000000020000000CD
:105360001F0000001F0000001F0000001F000000C1
:105370001F0000001F0000001F0000001F000000B1
:105380001F0000001F0000001F0000001F000000A1
:105390001F0000001F0000001F0000001F00000091
:1053A0001F0000001F0000001F0000001F00000081
:1053B0001F0000001F0000001F0000001F00000071
:1053C0001E0000001E0000001E0000001E00000065
:1053D0001E0000001E0000001E0000001E00000055
:1053E0001E0000001E0000001E0000001E00000045
:1053F0001E0000001E0000001E0000001E00000035
:105400001E0000001E0000001E0000001E00000024
:105410001E0000001E0000001E0000001E00000014
:105420001D0000001D0000001D0000001D00000008
:105430001D0000001D0000001D0000001D000000F8
:105440001D0000001D0000001D0000001D000000E8
:105450001D0000001D0000001D0000001D000000D8
:105460001D0000001D0000001D0000001D000000C8
:105470001D0000001D0000001D0000001D000000B8
:105480001D0000001C0000001C0000001C000000AB
:105490001C0000001C0000001C0000001C0000009C
:1054A0001C0000001C0000001C0000001C0000008C
:1054B0001C0000001C0000001C0000001C0000007C
:1054C0001C0000001C0000001C0000001C0000006C
:1054D0001C0000001C0000001C0000001C0000005C
:1054E0001C0000001C0000001C0000001B0000004D
:1054F0001B0000001B0000001B0000001B00000040
:105500001B0000001B0000001B0000001B0000002F
:105510001B0000001B0000001B0000001B0000001F
:105520001B0000001B0000001B0000001B0000000F
:105530001B0000001B0000001B0000001B000000FF
:105540001B0000001B0000001B0000001B000000EF
:105550001B0000001B0000001B0000001A000000E0
:105560001A0000001A0000001A0000001A000000D3
:105570001A0000001A0000001A0000001A000000C3
:105580001A0000001A0000001A0000001A000000B3
:105590001A0000001A0000001A0000001A000000A3
:1055A0001A0000001A0000001A0000001A00000093
:1055B0001A0000001A0000001A0000001A00000083
:1055C0001A0000001A0000001A0000001900000074
:1055D0001900000019000000190000001900000067
:1055E0001900000019000000190000001900000057
:1055F0001900000019000000190000001900000047
:105600001900000019000000190000001900000036
:105610001900000019000000190000001900000026
:105620001900000019000000190000001900000016
:105630001900000019000000190000001900000006
:1056400019000000180000001800000018000000F9
:1056500018000000180000001800000018000000EA
:1056600018000000180000001800000018000000DA
:1056700018000000180000001800000018000000CA
:1056800018000000180000001800000018000000BA
:1056900018000000180000001800000018000000AA
:1056A000180000001800000018000000180000009A
:1056B000180000001800000018000000180000008A
:1056C000170000001700000017000000170000007E
:1056D000170000001700000017000000170000006E
:1056E000170000001700000017000000170000005E
:1056F000170000001700000017000000170000004E
:10570000170000001700000017000000170000003D
:10571000170000001700000017000000170000002D
:10572000170000001700000017000000170000001D
:10573000170000001700000017000000170000000D
:105740001600000016000000160000001600000001
:1057500016000000160000001600000016000000F1
:1057600016000000160000001600000016000000E1
:1057700016000000160000001600000016000000D1
:1057800016000000160000001600000016000000C1
:1057900016000000160000001600000016000000B1
:1057A00016000000160000001600000016000000A1
:1057B0001600000016000000160000001600000091
:1057C0001600000015000000150000001500000084
:1057D0001500000015000000150000001500000075
:1057E0001500000015000000150000001500000065
:1057F0001500000015000000150000001500000055
:105800001500000015000000150000001500000044
:105810001500000015000000150000001500000034
:105820001500000015000000150000001500000024
:105830001500000015000000150000001500000014
:105840001500000015000000150000001500000004
:1058500014000000140000001400000014000000F8
:1058600014000000140000001400000014000000E8
:1058700014000000140000001400000014000000D8
:1058800014000000140000001400000014000000C8
:1058900014000000140000001400000014000000B8
:1058A00014000000140000001400000014000000A8
:1058B0001400000014000000140000001400000098
:1058C0001400000014000000140000001400000088
:1058D0001400000014000000140000001400000078
:1058E000130000001300000013000000130000006C
:1058F000130000001300000013000000130000005C
:10590000130000001300000013000000130000004B
:10591000130000001300000013000000130000003B
:10592000130000001300000013000000130000002B
:10593000130000001300000013000000130000001B
:10594000130000001300000013000000130000000B
:1059500013000000130000001300000013000000FB
:1059600013000000130000001300000013000000EB
:1059700013000000120000001200000012000000DE
:1059800012000000120000001200000012000000CF
:1059900012000000120000001200000012000000BF
:1059A00012000000120000001200000012000000AF
:1059B000120000001200000012000000120000009F
:1059C000120000001200000012000000120000008F
:1059D000120000001200000012000000120000007F
:1059E000120000001200000012000000120000006F
:1059F000120000001200000012000000120000005F
:105A0000120000001200000012000000120000004E
:105A10001100000011000000110000001100000042
:105A20001100000011000000110000001100000032
:105A30001100000011000000110000001100000022
:105A40001100000011000000110000001100000012
:105A50001100000011000000110000001100000002
:105A600011000000110000001100000011000000F2
:105A700011000000110000001100000011000000E2
:105A800011000000110000001100000011000000D2
:105A900011000000110000001100000011000000C2
:105AA00011000000110000001100000010000000B3
:105AB00010000000100000001000000010000000A6
:105AC0001000000010000000100000001000000096
:105AD0001000000010000000100000001000000086
