:020000040800F2
:1000000090050020D5000008DD000008DF00000892
:1000100000000000000000000000000000000000E0
:10002000000000000000000000000000E1000008E7
:10003000E300000800000000E5000008C93A0008DD
:10004000E9000008E9000008C9390008E9000008D3
:10005000E9000008E9000008E9000008E9000008DC
:10006000E9000008E9000008E9000008E9000008CC
:10007000C1050008E900000800000000E9000008D0
:1000800000000000E900000800000000000000007F
:10009000E900000800000000E9000008E90000088D
:1000A000E9000008E9000008E9000008AD44000884
:1000B000E9000008E9000008ED360008E900000842
:1000C0000348854600F05AFA0048004701460008F8
:1000D000900500200548804705480047FEE7FEE7F9
:1000E000FEE7FEE7FEE7FEE7FEE70000E53B00086F
:1000F000C100000830B50B46014600202022012433
:1001000009E00D46D5409D4205D31D469540491B4B
:100110002546954040191546521E002DF1DC30BD94
:1001200070B500242546002801DA01244042002948
:1001300001DA01254942FFF7DDFFAC4200D0404221
:10014000002C00D0494270BD024670B54A40D30F22
:10015000DB0740002DD04A002AD0010E140E000209
:1001600012020919400A520A8418E5010446544350
:10017000000A120A2E045043A4194219200CC54348
:10018000AA18120C0125AD03521C521912047F3912
:10019000240400D0521C104301D44000491EC2B2B6
:1001A0000C06C0092018401C4008802A02D003E039
:1001B000002070BD40084000002900DA00201843EC
:1001C00070BD70B502464A40D50F40004A00ED07A9
:1001D00040085208002814D0002A12D0C40DD30DB4
:1001E00041020120C0055202490A520AE41A0918C4
:1001F00012187D34914201D3641C00E04900002CA8
:1002000001DA002070BD0023914201D3891A034313
:10021000400849000028F7D100290AD0914202D1B4
:100220000121C90705E0914201D2012101E001212C
:10023000C943E005C018401900F0FFF870BD420046
:1002400005D04200120E52428A4201DB0020704764
:10025000C905081870470000F0B50C465C4085B031
:10026000E40FE40703944C00002664085900944608
:10027000490802460296224321D062460A431ED014
:100280006200570D4A000E032303550D0124024658
:100290002C492405781B1B0B360B4018234326439F
:1002A000614600901C46501AB44103D30098401C8C
:1002B000009002E0921800985B41002803DA0020C9
:1002C000014605B0F0BD002001210905074686461C
:1002D00011E064461D46141BB54106D36546521B0A
:1002E000B341744607430C43A646CD07400849086E
:1002F000284392185B4105460D43EAD11046184346
:1003000013D06046194650407140084306D06046FD
:10031000101AB34106D20122002306E00022012375
:10032000DB0702E00122D243531000987446010516
:10033000381C6141029C039D0019694100F0BEF820
:10034000BFE70000FD03000070B54B005B080343EE
:100350000BD04B005C0D002633466542B341D417E9
:10036000AD1AA34102DB0020014670BD1205301812
:10037000514170BDC217C10F504010B54018CA0797
:100380009623002100F061F810BD10B500229623DD
:10039000114600F05AF810BD0EB505490291002132
:1003A00000910A460B46019100F095F803B000BD9C
:1003B00033040000410040020122400AD205090E28
:1003C00080187F2901DA00207047962903DC9622E5
:1003D000511AC84070479639884070474A0009034F
:1003E0000123090B1B051943094B10B5520D9A4205
:1003F00001DA002010BD064B34339A4203DC9A1A0E
:1004000000F00AF810BD03495118884010BD0000E3
:10041000FF030000CDFBFFFF10B5202A04DB0846D8
:10042000203AD040002110BD0B46D340D0402024BC
:10043000A21A91400843194610BD002904DA401C55
:10044000490001D140084000704770B40024050CF9
:1004500005D11024000402D1002921D01124050E59
:1004600001D100020834050F01D10001241D850FC0
:1004700001D18000A41C002801DB4000641C00297D
:1004800008D020252E1B0D46F540A14000D00121AB
:100490002943084301061B1B000ADB1D02D500206F
:1004A00070BC7047DB05181880180029F8DA401C6A
:1004B0004900F5D170BC40084000704710B5002BD2
:1004C00008DA0024401C614192185B411A4301D1B3
:1004D0004008400010BDF0B51FB482B005460C00C6
:1004E00003D0084603F0EAFF02E003F0E7FF203004
:1004F000024600902146284600F052F8049B059AD7
:1005000004460F4618431143084314D018461043BD
:100510001BD0009840210A1A18460599FFF77CFF66
:1005200005460E46009A0599049800F039F80843EC
:1005300005D0012004E02046394607B0F0BD002078
:10054000C11705430E432C43374300990E986305AA
:10055000401A7905E40A00220C43FD0A0A3002D54C
:1005600000200146E9E70105101969410C9C0D9D29
:1005700000196941FFF7A2FFDFE70000064C0125E3
:10058000064E05E0E36807CC2B430C3C984710343B
:10059000B442F7D3FFF798FD1487000834870008AA
:1005A00010B5202A04DB0146203A9140002010BDFE
:1005B000914020239C1A0346E3401943904010BD0C
:1005C000F8B5234F386800680025C0434007214E26
:1005D000214C002829DB2078002804D0012812D0E3
:1005E000022822D119E0FF21002201311B4800F02E
:1005F00083FF174800F044FA1949088035702078C5
:10060000401C207011E0124800F03AFA15490880A9
:1006100035702078401C207007E00D4800F030FA5B
:10062000114908802078401C207038680168C9434F
:10063000090709D4082101600120307025700102EA
:100640000122064800F058FF014800F047FAF8BDC3
:1006500008010020000000200100002000040050DC
:100660004E000020500000205200002038B5044603
:10067000094808490068FFF73DFD60430090009875
:10068000002805D00098401E009000980028F9D15D
:1006900038BD000040420F0058000020F8B5044665
:1006A000206881688907890F012902D10168C9077B
:1006B0002ED18168174A102611400125002907D044
:1006C000A06D3043A065E06D2843E0650120F8BDD2
:1006D0008168294381600120FFF7C8FF00F06AFFAD
:1006E000074620680068C043C00711D000F062FFD1
:1006F000C01B0A2807D9A06D3043A065E06D2843D0
:10070000E0650120F8BD20680068C043C007EDD156
:100710000020F8BD1700008010B501F0D9FA10BD17
:1007200000B587B00A49CA6A02200243CA62C96A90
:1007300001400191C1010291012103910490002027
:10074000059002A9034800F04BFD07B000BD000072
:10075000001002400004005030B587B01248C16A52
:1007600001221143C162C16A11400191C26A022192
:100770000A43C262C06A084001900320400202900E
:100780000325039500240494052002A9000700F026
:1007900027FDFF20013002900395049402A903482D
:1007A00000F01EFD07B030BD0010024000040050F4
:1007B000F8B50446002627492068884203D09021D6
:1007C00025A003F0A1FE25464035287D012808D04C
:1007D00001202875206881688907890F01290ED1B9
:1007E00001E00220F8BD0168C90708D0A06D2021F2
:1007F0000843A0650126002028753046F8BDA16D8C
:10080000FF220132914302221143A16581689207C0
:100810001143816000F0CEFE074620688068002802
:1008200012DA00F0C7FEC01B0A2809D9A06D022108
:10083000884310210843A065002028750120F8BDD9
:10084000206880680028ECDBA06D80088000401CD8
:10085000A065D0E7002401402E2E2F4472697665F2
:1008600072732F53544D33324C3078785F48414C7B
:100870005F4472697665722F5372632F73746D33A0
:10088000326C3078785F68616C5F6164635F657853
:100890002E630000F8B506460C465449306888427D
:1008A00003D0534953A003F02FFE2068012839D00C
:1008B0005E49884236D04900884233D05C4988423C
:1008C00030D05C4988422DD05B4988422AD05B49B0
:1008D000884227D05A49884224D05A49884221D098
:1008E000594988421ED0594988421BD058498842EC
:1008F00018D05849884215D05749884212D05749D4
:1009000088420FD0564988420CD05649884209D0B7
:100910005549884206D05549884203D0544935A0EC
:1009200003F0F2FD0121090360684F1C884205D0E5
:10093000B84203D04F492FA003F0E6FD35464035BD
:10094000287D01280DD0012028753068816849076D
:1009500009D5B06D20210843B0650020287501201D
:10096000F8BD0220F8BD01213B46C90562684F1061
:10097000414E9A421DD0826A23685B035B0B1A4387
:1009800082622068400305D5B0680843B0600A2041
:10099000FFF76CFE2068800302D5B0683843B06072
:1009A0002068C0031FD5B068012109060843B06064
:1009B00019E0826A23685B035B0B9A4382622068BA
:1009C000400302D5B0688843B0602068800302D538
:1009D000B068B843B0602068C00304D5B168012096
:1009E00000068143B16000202875F8BD0024014055
:1009F0004D0600002E2E2F447269766572732F53B8
:100A0000544D33324C3078785F48414C5F447269C2
:100A10007665722F5372632F73746D33326C307836
:100A2000785F68616C5F6164632E6300020000049C
:100A30000800000C100000102000001440000018F6
:100A40008000001C00010020000200240004002897
:100A50000008002C00100030002000340040003856
:100A60000080003C000004480000024400000140F7
:100A70004E0600004F0600000027014070477047F7
:100A800010B5044605492068884203D0044905A0F2
:100A900003F03AFD2068006C10BD00000024014006
:100AA000730500002E2E2F447269766572732F53E2
:100AB000544D33324C3078785F48414C5F44726912
:100AC0007665722F5372632F73746D33326C307886
:100AD000785F68616C5F6164632E630070B5044683
:100AE0003B492068884203D03A493BA003F00CFD03
:100AF000A06A002805D0012803D0454936A003F09C
:100B000003FD20680168490702D54168490705D4FB
:100B10000168090730D5416809072DD5A16DC906BF
:100B200004D4A16D012252021143A165C1680C25B4
:100B30000905890F00291AD1A16A002917D1016876
:100B4000090714D5816801224907002908DB41689B
:100B5000A9434160A06D110288431043A06506E0DF
:100B6000A06D20210843A065E06D1043E06520469C
:100B7000FFF784FF206805602068016809060DD52D
:100B8000406800060AD5A06D012109040843A0654C
:100B9000204600F07BFA2168802008602068016808
:100BA000C90613D54168C90610D5216C1025002946
:100BB00002D0C168C90707D0E16D02221143E16587
:100BC00005602046FFF75BFF2068056070BD0000F0
:100BD00000240140840500002E2E2F4472697665A2
:100BE00072732F53544D33324C3078785F48414CF8
:100BF0005F4472697665722F5372632F73746D331D
:100C0000326C3078785F68616C5F6164632E63007A
:100C100085050000F8B50446002C7DD0FE4920680B
:100C2000884204D0FF217431FCA003F06DFC6069A0
:100C3000002838D003218907884234D049428842AD
:100C400031D0490088422ED0490B88422BD0490030
:100C5000884228D003218904884224D00121090533
:100C6000884220D00521890488421CD00321C90470
:100C7000884218D007218904884214D001214905EF
:100C8000884210D00921890488420CD00521C9046A
:100C9000884208D00B218904884204D0FF21753195
:100CA000DEA003F031FCA06900280AD0082808D093
:100CB000102806D0182804D0FF217631D7A003F0E1
:100CC00023FCE069002812D0012810D002280ED0A1
:100CD00003280CD004280AD0052808D0062806D0FE
:100CE000072804D0FF217731CCA003F00DFC206A47
:100CF000012806D0022804D0FF217831C7A003F0D4
:100D000003FC606A002806D0202804D0FF21793136
:100D1000C2A003F0F9FB00E085E0A06A002806D03D
:100D2000012804D0FF217A31BCA003F0EDFBE06A7A
:100D3000002806D0012804D0FF217B31B7A003F0A2
:100D4000E3FB606B00280FD00121890288420BD0A1
:100D50004900884208D003218902884204D0FF213B
:100D60007C31AEA003F0D0FBFF25FF26206B813540
:100D70000136002813D0402811D080280FD0C02879
:100D80000DD0B0420BD0A84209D00146FF39C1397D
:100D900005D0491E03D0291FA0A003F0B5FBA06B0E
:100DA000002806D0012804D0FF217E319BA003F04B
:100DB000ABFB206C002808D001210903884204D035
:100DC000FF217F3195A003F09FFB606C002806D0C7
:100DD000012804D0FF21803190A003F095FBA06C86
:100DE000002805D0012803D029468CA003F08CFBF5
:100DF000E06C002806D0012804D0FF21823187A0B2
:100E000003F082FB6068002806D0012804D0FF218F
:100E1000833182A003F078FBA06D27460025403780
:100E2000002802D006E00120F8BDE5653D752046AA
:100E300000F02EF9A06DC00603D420688168490730
:100E400006D5A06D10210843A0653D750120F8BDB1
:100E5000A16D0222B1431143A16581687D4A8907D2
:100E6000890F012902D10168C9072BD103236169C8
:100E70009B07994205D05B42994202D05B009942A0
:100E800009D10169890089080161206801696369E4
:100E9000194301610CE001698900890801619068CA
:100EA0000F218904884390609068616908439060CD
:100EB0002068C16818239943C1602068C168A3698C
:100EC0001943C16090680121490688439060906889
:100ED000A16C49060843906020688168C90004D469
:100EE000816801221207114381602068C1685A4A53
:100EF0001140C160206A616A022823D000200143AA
:100F0000A06AA26B4003520010430143206C0143CE
:100F1000606C80030143E06CC00301432068C26839
:100F20001143C160206B0146FF39C23905D0616BA6
:100F300008432168CA681043C860E06A0127012895
:100F400002D00BE00420DAE7A06A002823D0A06DCD
:100F500020210843A065E06D3843E0656068012802
:100F600020D020680169C90703D0016949084900F8
:100F7000016120684169C908C9004161206841696F
:100F8000E26911434161E565A06D80088000401C65
:100F9000A0650020F8BD2068C16801221204114339
:100FA000C160DBE7A068002811D004280FD0082812
:100FB0000DD00C280BD0102809D0142807D01828E1
:100FC00005D01C2803D0254914A003F09DFAE06841
:100FD000002813D0202811D040280FD060280DD031
:100FE00080280BD0A02809D0C02807D0E02805D041
:100FF000B04203D01A4909A003F086FA20690028FC
:1010000008D0C11FFF39FA3904D08521890003A017
:1010100003F07AFA206825E0002401402E2E2F44A8
:101020007269766572732F53544D33324C30787831
:101030005F48414C5F4472697665722F5372632F2B
:1010400073746D33326C3078785F68616C5F6164A3
:10105000632E6300002701401902FEFF1202000008
:10106000130200000169084A11400161206801690A
:10107000A26823691143E2681A43114301612068A1
:1010800001693943016174E703FCFF7F7047000089
:1010900000B585B000680E49884217D10D48416BF4
:1010A000421511434163122000900320019000205B
:1010B000029005206946000700F092F800221146D0
:1010C0000C2000F0BBFD0C2000F088FD05B000BD39
:1010D000002401400010024070B504460025284954
:1010E0002068884203D0274927A003F00DFA206822
:1010F0008068400741D426464036307D01280BD019
:1011000001203075E06C012803D02046FFF7C6FAB5
:101110000546002D02D031E0022070BDA06D2849A7
:101120000840FF2101310843A0650020E0653075CB
:1011300020681C260660E06B042807D0082805D02C
:101140000C2803D01F4910A003F0DEF9E06B042146
:10115000082808D0206842683243426020688268CC
:101160000A4382600AE0206842688A43426020683D
:10117000426818231A434260F0E70225284670BDF2
:1011800000240140450400002E2E2F44726976652C
:1011900072732F53544D33324C3078785F48414C42
:1011A0005F4472697665722F5372632F73746D3367
:1011B000326C3078785F68616C5F6164632E6300C5
:1011C000FEF1FFFF6E04000031B500F0F3F90446B4
:1011D00000F0F0F90099001B8842F9D338BD0000F7
:1011E000F8B505460C460026606800281FD0012887
:1011F0001DD011281BD0022819D0122817D0A249BF
:10120000884214D0A149884211D0A14988420ED009
:10121000A04988420BD0A049884208D09F49884203
:1012200005D0032803D0C0219DA003F06DF9A0686C
:10123000002807D0012805D0022803D0C12198A09A
:1012400003F062F905273F07BD4205D1206801047C
:10125000090C01D0000C26D0A048854205D1206899
:101260000104090C01D0000C1DD09D48854205D118
:1012700020680104090C01D0000C14D09948854263
:1012800005D12068410702D5042188430BD0964838
:10129000854204D12068810701D0800803D0C22193
:1012A0007FA003F031F9206800287DD00120B040F4
:1012B000276800900740002F77D06068022801D08F
:1012C000122851D105200007854210D1206900283D
:1012D0003DD001283BD0022839D0032837D004283C
:1012E00035D0052833D0062831D007282FD07B48A9
:1012F00085420ED12069002829D0012827D0022854
:1013000025D0032823D0042821D005281FD0062863
:101310001DD07348854208D12069002817D00128C4
:1013200015D0022813D0032811D06E48854204D16D
:10133000206900280BD0012809D06B48854202D1D2
:101340002069002803D0D12155A003F0DDF8F00872
:1013500080004319196A7007C00E0F228240914322
:10136000226982400A431A626068012805D0022877
:1013700003D0112801D0122821D1E068002809D01B
:10138000012807D0022805D0032803D0DE2144A07D
:1013900003F0BAF8A9687000032282409143E26822
:1013A00082400A43AA6001E06CE066E06868009948
:1013B00088432179C906C90FB140014369602B6890
:1013C0007000032181408B4322799207920F824063
:1013D0001A432A60EA688A43A16881401143E960A0
:1013E0006068C00049D54149486B012210434863F9
:1013F000B1083F4889000B189968B007000F0F2209
:101400008240914305221207954201D1002214E047
:10141000324A954201D101220FE0314A954201D171
:1014200002220AE02F4A954201D1032205E02E4A0A
:10143000954201D1052200E0062282400A439A60CB
:101440002C490868B8436268D20300D53843086065
:101450004868B8436268920300D53843486088689A
:10146000B8436268D20200D538438860C868B84380
:101470006268920200D53843C860761C2068F0404C
:1014800000D013E7F8BD000000001110000021108B
:101490000000311000001210000022100000321075
:1014A0002E2E2F447269766572732F53544D33324A
:1014B0004C3078785F48414C5F4472697665722F92
:1014C0005372632F73746D33326C3078785F686158
:1014D0006C5F6770696F2E630000000000040050AD
:1014E00000080050000C0050001C0050001002408A
:1014F000000001400004014070B505460C46164648
:1015000005200007854201D1002C1ED116488542D6
:1015100001D1002C19D11548854201D1002C14D1DC
:101520001348854205D1600703D50421204688432E
:101530000BD01048854203D1A00701D0A00804D0E9
:10154000FF21AD310CA002F0DFFF002E06D0012EEE
:1015500004D0FF21AE3108A002F0D6FF002E01D04A
:10156000AC6170BDAC6270BD00040050000800505A
:10157000000C0050001C00502E2E2F44726976651E
:1015800072732F53544D33324C3078785F48414C4E
:101590005F4472697665722F5372632F73746D3373
:1015A000326C3078785F68616C5F6770696F2E634A
:1015B000000000000148006870470000540000204F
:1015C00002480168491C0160704700005400002077
:1015D00010B506480168402211430160002000F068
:1015E00007F800F0EDFA002010BD000000200240D6
:1015F00010B5044600F0EAFE7D21C900FEF77AFD31
:1016000001F032FF00222146501E00F017FB00209F
:1016100010BD0000F8B504460025002C7ED0E54939
:101620002068884203D0C721E3A002F06DFF606804
:1016300000283ED00121890588423AD049008842DD
:1016400037D003218905884233D001210906884219
:101650002FD00521890588422BD00321C905884256
:1016600027D007218905884223D0012149068842D5
:101670001FD00921890588421BD00521C905884250
:1016800017D00B218905884213D00321090688420F
:101690000FD00D21890588420BD00721C90588424A
:1016A00007D00F218905884203D0C821C2A002F0CB
:1016B0002BFFA068002840D00121890488423CD03B
:1016C0004900884239D003218904884235D001215C
:1016D0000905884231D00521890488422DD0032193
:1016E000C904884229D007218904884225D00121D4
:1016F0004905884221D00921890488421DD005214D
:10170000C904884219D00B218904884215D00321CD
:101710000905884211D00D21890400E0D0E08842FB
:101720000BD00721C904884207D00F2189048842C1
:1017300003D0C921A0A002F0E7FEE06800280BD08A
:10174000042809D0082807D00C2805D0102803D079
:10175000CA2199A002F0D8FE2069002807D02028CD
:1017600005D0402803D0CB2193A002F0CDFE6069C4
:10177000002805D0022803D0CC218FA002F0C4FE9F
:10178000206A002811D010280FD020280DD0302832
:101790000BD0402809D0502807D0602805D07028E9
:1017A00003D0CD2184A002F0AFFE606A002805D0EE
:1017B000012803D0CE2180A002F0A6FEE069002817
:1017C00018D0802816D0C11FF93913D0803911D014
:1017D00080390FD00521C90188420BD003210902AD
:1017E000884207D00721C901884203D0CF2172A0C7
:1017F00002F08AFEA06900281ED0012189028842D9
:101800001AD04900884217D003218902884213D098
:101810000121090388420FD00521890288420BD09B
:101820000321C902884207D007218902884203D0D8
:10183000D02161A002F068FEE06A00281ED00121DC
:10184000490388421AD04900884217D0032149032E
:10185000884213D00121C90388420FD005214903D2
:1018600088420BD003218903884207D0072149030E
:10187000884203D0D12150A002F046FEA06A002881
:101880000ED00121090488420AD04900884207D0BD
:1018900003210904884203D0D22147A002F034FE7C
:1018A000206B802805D0002803D0D32142A002F06D
:1018B0002BFE26462036707D0027002802D005E04A
:1018C0000120F8BD3775204600F094F802207075AD
:1018D00020680168490849000160A80021681430A7
:1018E0000F506D1CEDB20F2DF7D9206881680422CE
:1018F000114381606168A068E26A0143A06A1043F5
:101900000143E0690143206A0143A0690143606A21
:10191000014320684268364B1A401143416020461B
:1019200001F0EEFEE1682069226B0143606910431B
:10193000014320680268FE239A4311430160206836
:101940000168012211430160FFF734FE054620685B
:101950008068C043C0070FD0FFF72CFE411B7D20DD
:10196000C000814203D90820A0630320F8BD20688D
:101970008068C043C007EFD1FFF71CFE0546206812
:101980008068C043C0060FD5FFF714FE411B7D20C1
:10199000C000814203D91020A0630320F8BD206855
:1019A0008068C043C006EFD4A76301207075002093
:1019B000F8BD0000002400402E2E2F447269766589
:1019C00072732F53544D33324C3078785F48414C0A
:1019D0005F4472697665722F5372632F73746D332F
:1019E000326C3078785F68616C5F6C63642E630082
:1019F0000F0000FC70B586B000681549884225D1FB
:101A00001448816B421511438163FF20CD30019052
:101A100002260296002403940494012505950520CE
:101A200001A90007FFF7DCFB0B4801900296039425
:101A30000494059501A90948FFF7D2FB0022032170
:101A40001E2000F0FBF81E2000F0C8F806B070BDA4
:101A500000240040001002403BFC00000004005045
:101A6000F8B5044621680820C8602068816804270A
:101A700039438160FFF79EFD064620688068254651
:101A8000C04300072035002810DAFFF793FD811BC3
:101A90007D20C000814204D9A7630020287503205F
:101AA000F8BD20688068C0430007EED40120687547
:101AB00000202875F8BD0000FFB581B006460C4631
:101AC00035462035687D012805D0687D022802D082
:101AD000012005B0F0BD002C22D0012C20D0022C1A
:101AE0001ED0032C1CD0042C1AD0052C18D0062C88
:101AF00016D0072C14D0082C12D0092C10D00A2C88
:101B00000ED00B2C0CD00C2C0AD00D2C08D00E2C87
:101B100006D00F2C04D0FF218D311BA002F0F4FC65
:101B2000687D012824D1287D012819D0012028753D
:101B300002206875FFF73EFD074630688068C043A5
:101B4000400715D4FFF736FDC11B7D20C000814240
:101B500009D90220B06300202875032005B0F0BD2C
:101B6000022005B0F0BD30688068C0434007E9D569
:101B7000A000316814300A58039B1A40049B1A4392
:101B80000A50002005B0F0BD2E2E2F4472697665F4
:101B900072732F53544D33324C3078785F48414C38
:101BA0005F4472697665722F5372632F73746D335D
:101BB000326C3078785F68616C5F6C63642E6300B0
:101BC00010B50548416B01221143416300221146C3
:101BD000501E00F033F810BD0010024010B504464E
:101BE000002C03DAAA2105A002F08EFCE106C90E42
:101BF000012088401049086010BD00002E2E2F449F
:101C00007269766572732F53544D33324C30787845
:101C10005F48414C5F4472697665722F5372632F3F
:101C200073746D33326C3078785F68616C5F636FAA
:101C3000727465782E63000000E100E070B5044620
:101C40000D46042D03D39A2110A002F05DFCA007DD
:101C5000C00EFF228240A907090E8140002C0BDA3A
:101C60002007000F0838830817489B001818C3691D
:101C700093430B43C36170BDA30814489B0018181D
:101C8000036893430B43036070BD00002E2E2F4466
:101C90007269766572732F53544D33324C307878B5
:101CA0005F48414C5F4472697665722F5372632FAF
:101CB00073746D33326C3078785F68616C5F636F1A
:101CC000727465782E63000000ED00E000E400E02F
:101CD000BFF34F8F04490348C860BFF34F8F00BF65
:101CE000FDE700000400FA0500ED00E070B50446D1
:101CF0000D46002C06D0012C04D08721890010A0AD
:101D000002F002FC012D05D0022D03D01A490CA0CF
:101D100002F0FAFB19490868800880002043086037
:101D20001748026904210A430261012D06D040BF11
:101D300020BF20BF02698A43026170BD30BFF9E74E
:101D40002E2E2F447269766572732F53544D3332A1
:101D50004C3078785F48414C5F4472697665722FE9
:101D60005372632F73746D33326C3078785F6861AF
:101D70006C5F7077722E63001D02000000700040DF
:101D800000ED00E0F8B5044600268049206888424E
:101D900003D9C1217EA002F0B7FB20688B4D8106DC
:101DA00001D4000556D58A48816B02041143816332
:101DB000884800681115084386490860FFF7FAFB58
:101DC000074684480068C0050AD4FFF7F3FBC01B30
:101DD000642801D90320F8BD7E480068C005F4D509
:101DE000286903273F04616938403940884203D19C
:101DF000A0693840B0422DD02869B8432969012232
:101E0000D204114329612969914329612861800520
:101E100010D5FFF7CFFB0646286980050AD4FFF7E7
:101E2000C9FB811B6C48814201D90320F8BD286998
:101E30008005F4D5606981038A0F03210905032A0F
:101E40007ED0634A10688843106028696169B8438E
:101E5000084328612078C00713D0606800280AD0A2
:101E6000012808D0032806D0022804D0FF2104311D
:101E700047A002F049FBE8686168800880000843D9
:101E8000E8602078800713D5A06800280AD00428CD
:101E900008D00C2806D0082804D0FF210F313CA020
:101EA00002F032FBE8680C218843A1680843E8602F
:101EB0002078400717D50326E068B60200280DD029
:101EC00001218902884209D0B04207D049008842E6
:101ED00004D0FF2119312EA002F016FBE868E1685A
:101EE000B0430843E8602078000715D52069002832
:101EF0000BD001210903884207D04900884204D051
:101F0000FF21233122A002F0FFFAE8680321090330
:101F1000884321690843E8602078400612D50126ED
:101F2000E069B606B04206D0002804D0FF213A315D
:101F300017A002F0E9FAE868E169B043084300E05D
:101F40001DE0E8602078000617D50326206AB60455
:101F500000280DD001218904884209D04900884217
:101F600006D0B04204D0FF21423109A002F0CCFAE1
:101F7000E868216AB0430843E8600020F8BD144BCC
:101F80001A68B8438A4302431A605EE7FF080000FC
:101F90002E2E2F447269766572732F53544D33324F
:101FA0004C3078785F48414C5F4472697665722F97
:101FB0005372632F73746D33326C3078785F68615D
:101FC0006C5F7263635F65782E63000040100240AF
:101FD000001002400070004088130000F8B504466D
:101FE0000D46002C03D1DF49DFA002F08DFA2068F6
:101FF000401E0E2803D9EA49DBA002F085FA002D25
:1020000005D0012D03D0E749D7A002F07DFAE648BC
:102010000068F027C007C00FE44EA84273D2E24820
:10202000016849084900294301600068C007C00FE2
:10203000A84201D00120F8BD207880071BD5A068F8
:10204000002813D0802811D090280FD0A0280DD0C0
:10205000B0280BD0C02809D0D02807D0E02805D060
:10206000F02803D0D249C0A002F04EFAF068A1686F
:10207000B8430843F0602078C00757D06068012853
:102080000AD0022808D0002806D0032804D05B21FB
:10209000C900B5A002F038FA6068022808D000280C
:1020A0000BD003280ED03168490710D40120F8BDA9
:1020B000316889030BD40120F8BD3168890506D445
:1020C0000120F8BD3168890101D40120F8BDF16813
:1020D000890889000143F160FFF76CFA05466068E2
:1020E000022811D0032822D0002833D0F06800073E
:1020F000800F01281AD0AF4FFFF75CFA401BB8429F
:1021000039D90320F8BD3CE0F0680007800F0228B1
:102110000CD0A84FFFF74EFA401BB84201D903205C
:10212000F8BDF0680007800F0228F3D1DAE0F0680C
:102130000007800F03286FD09E4FFFF73BFA401B2C
:10214000B84201D90320F8BDF0680007800F0328CA
:10215000F3D1C7E0F0680007800F5DD0954FFFF71F
:1021600029FA401BB84201D90320F8BDF0680007E6
:10217000800FF4D1B6E0F0680007800F0128BBD1D2
:10218000B0E0207880071CD5A068002814D08028F3
:1021900012D0902810D0A0280ED0B0280CD0C02883
:1021A0000AD0D02808D0E02806D0F02804D0CD21CD
:1021B00089006DA002F0A8F9F068A168B84308434F
:1021C000F0602078C00756D06068012809D0022846
:1021D00007D0002805D0032803D0774962A002F079
:1021E00093F96068022808D000280BD003280ED08D
:1021F0003168490711D40120F8BD316889030CD436
:102200000120F8BD3168890507D40120F8BD316887
:10221000890102D40120F8BD64E0F16889088900D1
:102220000143F160FFF7C6F907466068022810D045
:10223000032821D0002832D0F0680007800F012841
:1022400043D0FFF7B7F9C11B5A48814238D9032060
:10225000F8BDF0680007800F022836D0FFF7AAF912
:10226000C11B5448814201D90320F8BDF068000722
:10227000800F0228F2D128E0F0680007800F0328C1
:1022800023D0FFF797F9C11B4A48814201D90320A7
:10229000F8BDF0680007800F0328F2D115E0F06860
:1022A0000007800F11D0FFF785F9C11B414881421B
:1022B00001D90320F8BDF0680007800FF3D104E0D6
:1022C000F0680007800F0128BBD137480168490832
:1022D0004900294301600068C007C00FA84201D02F
:1022E0000120F8BD2078354F354D400717D5E068FF
:1022F00000280FD0B8420DD005210902884209D02C
:1023000003214902884205D0A84203D02D4916A0D6
:1023100002F0FAF8F068E168A8430843F06020781A
:1023200000071AD5206900280FD0B8420DD005212A
:102330000902884209D003214902884205D0A842F7
:1023400003D0214908A002F0DFF8F0680721C90294
:1023500088432169C9000843F0600020FFF748F96D
:102360000020F8BDB90200002E2E2F447269766558
:1023700072732F53544D33324C3078785F48414C50
:102380005F4472697665722F5372632F73746D3375
:10239000326C3078785F68616C5F7263632E6300C3
:1023A000BA020000BB020000002002400010024000
:1023B000D1020000881300003B030000000400006D
:1023C000000700009F030000A603000010B500F006
:1023D00031F80549C968054A0906090F515CC8402A
:1023E0000349086010BD000000100240018700088A
:1023F0005800002010B5FFF7E9FF0449C968044AF6
:102400004905490F515CC84010BD00000010024052
:102410000187000810B5FFF7D9FF0449C968044ACD
:102420008904490F515CC84010BD000000100240F3
:102430000187000810B5214B58680004420FD96885
:102440000C2001401E4808D0042909D008290ED0CC
:102450000C290ED0521C904010BD521C904010BD53
:102460001868C00601D5174810BD174810BD174899
:1024700010BDD8680F2189040840D968032292054D
:102480001140820C1248805C890D491CDA680124D5
:1024900024042240002A04D00C4A5043FDF72AFEAF
:1024A00010BD1A68D20604D5064A5043FDF722FE35
:1024B00010BD054A5043FDF71DFE10BD001002403F
:1024C0000080000000093D000024F40000127A00A2
:1024D000F8860008F0B583B00446002C03D1EC2147
:1024E000F6A002F011F820683F2803D9ED21F3A0EF
:1024F00002F00AF82078FF4EC0076BD0052560680F
:102500002D04002809D001210904884205D0A842E1
:1025100003D0F221E9A001F0F7FFF0680007800F77
:10252000022807D0F0680007800F03280BD1F0685D
:10253000C00308D5306880034CD56068002849D1B5
:10254000012003B0F0BD012160680904884203D175
:1025500030680843306015E0A8420BD130688843EA
:1025600030603068012292041043306030680843C4
:10257000306007E0306888433060316801208004B3
:10258000814331606068002812D0FFF713F80546D8
:10259000306880031ED4D84FFFF70CF8401BB842B8
:1025A00002D9032003B0F0BD30688003F4D511E0F8
:1025B000FFF700F80546306880030BD5CE4FFEF7D5
:1025C000F9FF401BB84202D9032003B0F0BD3068C8
:1025D0008003F4D42078800766D5E068002808D00E
:1025E000012806D0092804D0FF212431B3A001F02E
:1025F0008BFF20691F2804D9FF212531AFA001F0EE
:1026000083FFF0681F270007800F3F02012807D0D3
:10261000F0680007800F032812D1F068C0030FD4C0
:102620003068400705D5E068012802D0012003B0DA
:10263000F0BD70682169B84309020843706033E057
:10264000E168092000291BD0326882430A433260C6
:10265000FEF7B0FF0546306840070AD4FEF7AAFF30
:10266000401B642802D9032003B0F0BD3068400746
:10267000F4D570682169B84309020843706013E01B
:10268000316881433160FEF795FF054630684007A9
:102690000AD5FEF78FFF401B642802D9032003B040
:1026A000F0BD30684007F4D42078C00661D5F068EA
:1026B000924F0007800F1FD0E069002806D0012844
:1026C00004D0FF217F317DA001F01EFFE0690028CA
:1026D0007ED03068FF21013108433060FEF76AFF89
:1026E0000546306880054BD4FEF764FF401B642824
:1026F00043D9032003B0F0BD3068800502D5E069FE
:10270000002837D0206AFF2804D9FF2170316BA040
:1027100001F0FAFE606A00281AD0B84218D00121F0
:102720008903884214D003214903884210D0012133
:10273000C90388420CD005214903884208D00321EF
:102740008903884204D0FF2171315CA001F0DCFED6
:102750007068072149038843616A084370607068A4
:10276000218C0002000A0906084370600020FEF771
:102770003FFF52E0012003B0F0BD30688005B3D5C3
:10278000206AFF2804D9FF2192314CA001F0BCFE41
:10279000606A00281AD0B84218D001218903884203
:1027A00014D003214903884210D00121C903884273
:1027B0000CD005214903884208D0032189038842AF
:1027C00004D0FF2193313DA001F09EFE706800E02F
:1027D0000DE0072149038843616A0843706070680F
:1027E000218C0002000A09060843706015E0316878
:1027F000FF20013081433160FEF7DCFE0546306882
:1028000080050AD5FEF7D6FE401B642802D90320B6
:1028100003B0F0BD30688005F4D42078384D00074F
:1028200037D56069002806D0012804D0FF21B231D5
:1028300022A001F069FE6069002815D029690120F5
:1028400001432961FEF7B6FE07462869800720D4B8
:10285000FEF7B0FEC01B642802D9032003B0F0BD10
:1028600028698007F4D514E02869400840002861F1
:10287000FEF7A0FE0746286980070AD5FEF79AFEF4
:10288000C01B642802D9032003B0F0BD286980076B
:10289000F4D4207880066AD5A069002806D00128E3
:1028A00004D0FF21DE3105A001F02EFEA1691548FC
:1028B000002943D0B1680122114325E02E2E2F4478
:1028C0007269766572732F53544D33324C30787879
:1028D0005F48414C5F4472697665722F5372632F73
:1028E00073746D33326C3078785F68616C5F7263DB
:1028F000632E6300001002408813000000200000D7
:102900004010024000000140B160716B11437163DF
:10291000016AC04A11430162FEF74CFE0746B068E7
:10292000800724D4FEF746FEC01B642802D903208A
:1029300003B0F0BDB0688007F4D518E0B16849086D
:102940004900B160016AB44A11400162FEF732FEEB
:102950000746B06880070AD5FEF72CFEC01B642826
:1029600002D9032003B0F0BDB0688007F4D420780A
:1029700040077CD5002700200190A06800280BD0DC
:10298000C11FF93908D005210902884204D08321EA
:102990008900A24801F0B8FDB06BC00005D4B06B4F
:1029A000012109070843B06301279D480068C0055D
:1029B0001CD49B480068FF210131084398490860F6
:1029C00001200190FEF7F6FD029095480068C005D1
:1029D0000CD4FEF7EFFD0299401A642802D90320B7
:1029E00003B0F0BD8E480068C005F2D5A068C11FD5
:1029F000F93912D001229202002814D005210902CF
:102A0000884219D1296990108143296129691143AC
:102A1000296129690143296116E02869FF210131F3
:102A20000843286110E02869FF21013188432861AB
:102A300028699043286107E02869FF210131884314
:102A40002861286990432861A068002814D0FEF707
:102A5000B1FD02902869800521D4FEF7ABFD0299F3
:102A6000411A7048814203D9032003B0F0BD24E02D
:102A700028698005F1D512E0FEF79CFD02902869D7
:102A800080050CD5FEF796FD0299411A65488142F2
:102A900002D9032003B0F0BD28698005F2D4019863
:102AA000012804D15E480168821591430160012F1D
:102AB00003D1B16B38078143B163A06A002807D006
:102AC000012805D0022803D05749544801F01CFDC5
:102AD000A06A00287ED0F1680907890F03297AD0FF
:102AE00001273F06022810D03068B8433060FEF757
:102AF00061FD0446306880016CD5FEF75BFD001B6C
:102B000064287CD9032003B0F0BDE06A002807D018
:102B100001210904884203D04449404801F0F4FCF3
:102B2000206B002822D00121890488421ED0490050
:102B300088421BD003218904884217D0012109054E
:102B4000884213D00521890488420FD00321C9048B
:102B500088420BD007218904884207D0012149050A
:102B6000884203D032492D4801F0CEFC0121606B30
:102B7000890588420BD04900884208D00321890585
:102B8000884204D013214901244801F0BDFC30687B
:102B9000B8433060FEF70EFD0546306880010AD567
:102BA000FEF708FD401B642802D9032003B0F0BDE6
:102BB00030688001F4D4616B206BF2680843E16AED
:102BC000FD231B049A4311430843F06030683843E7
:102BD000306002E017E019E011E0FEF7EBFC04467C
:102BE000306880010FD4FEF7E5FC001B642802D991
:102BF000032003B0F0BD30688001F4D503E03068F5
:102C0000800100D579E7002003B0F0BD012003B0BA
:102C1000F0BD000001200000FEDFFFFFBC2800081F
:102C20000070004088130000550200005E020000A2
:102C30005F020000F8B504460F461646002E0ED07F
:102C4000012E0CD0022E0AD0032E08D0042E06D05E
:102C5000062E04D04321090141A001F055FC4F4844
:102C6000874203D94E493EA001F04EFC254620354F
:102C70002878012825D0012028700220687021685A
:102C8000CA20486221685320486220688068400555
:102C90001DD5FEF78FFC00902068C068400716D550
:102CA000FEF788FC0099411A7D20C00081420AD9B4
:102CB0002168FF20486203206870002028700320EC
:102CC000F8BD0220F8BD2068C0684007E8D420683D
:102CD0008268012189028A438260FEF76BFC0090C2
:102CE0002068C068400714D4FEF764FC0099411ABC
:102CF0007D20C000814208D92168FF20486203205E
:102D00006870002028700320F8BD2068C068400764
:102D1000EAD52068476120688168C908C9008160D8
:102D200020688168314381601E48026801210905DD
:102D30000A43026082680A43826020688168012237
:102D400092031143816020688168121111438160F0
:102D50002168FF2048620120687000202870F8BDBB
:102D60002E2E2F447269766572732F53544D333271
:102D70004C3078785F48414C5F4472697665722FB9
:102D80005372632F73746D33326C3078785F68617F
:102D90006C5F7274635F65782E630000FFFF000054
:102DA00031040000000401407047000010B50446E3
:102DB0002068C068400509D52046FFF7F5FF206868
:102DC000C16880221140054A8918C1600120044968
:102DD0000005486101202034607010BD7FFBFFFFBB
:102DE0000004014070B50446002C54D04E492068C0
:102DF000884203D0BB214DA001F086FB60684028CB
:102E000005D0002803D0BC2148A001F07DFBA068BC
:102E10007F2803D9BD2145A001F076FB5149E06828
:102E2000884203D9BE2141A001F06EFB2069002831
:102E30000ED00121490588420AD04900884207D0B6
:102E400003214905884203D0BF2138A001F05CFB73
:102E50006069002805D0022803D0C02133A001F00A
:102E600053FBA069002807D001210905884203D03F
:102E7000C1212EA001F048FBE069002805D00128FF
:102E800003D0C22129A001F03FFB254620356878F8
:102E9000002802D006E0012070BD002028702046E6
:102EA00000F064F8022068702168CA204862216836
:102EB00053204862204600F067FDFF21002805D01E
:102EC0002068416204206870012070BD206882681B
:102ED000254B1A408260206882686368A6691A439D
:102EE000236933431A4382602268E06810612068D6
:102EF000026923891B041A4302612068C268802387
:102F00009A43C2602068C26C92089200C264E2696F
:102F1000606902432068C36C1A43C264206841623E
:102F200001206870002070BD002800402E2E2F4424
:102F30007269766572732F53544D33324C30787802
:102F40005F48414C5F4472697665722F5372632FFC
:102F500073746D33326C3078785F68616C5F727453
:102F6000632E6300FF7F0000BFFF8FFF10B5006876
:102F7000084988420DD10848016901229204114391
:102F80000161002211460220FEF758FE0220FEF7E2
:102F900025FE10BD0028004040100240F8B505464F
:102FA0000C461746002F05D0012F03D05A495BA0CD
:102FB00001F0AAFA2E4620363078012806D00120EA
:102FC000307002207070002F02D008E00220F8BD9F
:102FD0006078C10603D5EF2108400A306070207880
:102FE00001280FD002280DD003280BD0042809D0C7
:102FF000052807D0062805D0072803D0554947A043
:1030000001F082FA002F3CD0E07800F0A9FC6328A0
:1030100004D94D21C90041A001F076FA607800F092
:103020009FFC401E0B2803D94B493CA001F06CFAD1
:10303000A07800F095FC401E1E2804D99B21890031
:1030400036A001F061FAE078A778000407436078C1
:10305000217800024903084307432968CA204862CF
:10306000296853204862284600F08EFC002400287E
:103070002FD02968FF20486204207070347001202E
:10308000F8BDE078632803D9344924A001F03CFA64
:103090006078401E0B2803D9314920A001F034FA92
:1030A000A078401E1E2803D92E491CA001F02CFA3E
:1030B000E07800F05DFC0704607800F059FC000245
:1030C0000743A07800F054FC0743207840030743EF
:1030D000C3E725480740286847602868C168802200
:1030E0009143C1602868806880060CD4284600F0AF
:1030F0005BF9002807D02968FF204862042070701F
:1031000034700120F8BD2968FF20486201207070EA
:1031100034700020F8BD00004D0200002E2E2F4418
:103120007269766572732F53544D33324C30787810
:103130005F48414C5F4472697665722F5372632F0A
:1031400073746D33326C3078785F68616C5F727461
:10315000632E6300590200006A0200005D02000055
:103160005E0200005F0200003FFFFF00F8B5054669
:103170000C461746002F06D0012F04D0FF219B31AB
:103180007AA001F0C1F90121E0684904884209D020
:103190004910884206D0002804D0FF219C3173A03A
:1031A00001F0B2F92069002808D001218904884281
:1031B00004D0FF219D316DA001F0A6F92E462036E6
:1031C000307801281FD00120307002207070002F4D
:1031D0001BD02868806840065AD5207800F0C0FBD4
:1031E000401E0B2804D9FF21BD3160A001F08CF9ED
:1031F000E078002858D0402856D0FF21BE315BA08F
:1032000001F082F950E00220F8BD2868806840068D
:1032100013D52078401E0B2804D9FF21A83153A0D4
:1032200001F072F9E078002811D040280FD0FF217A
:10323000A9314EA001F068F909E00020E070207883
:10324000172804D9FF21AE3148A001F05DF960785C
:103250003B2804D9FF21B03144A001F055F9A078F2
:103260003B2804D9FF21B13140A001F04DF920786D
:1032700000F07EFB0704607800F07AFB0002074351
:10328000A07800F075FB0743E0780004074329E0CD
:103290000020E070207800F063FB172804D9FF219C
:1032A000C33132A001F030F9607800F059FB3B28BF
:1032B00004D9FF21C5312DA001F026F9A07800F036
:1032C0004FFB3B2804D9FF21C63128A001F01CF98F
:1032D0002078A778000407436078E17800020904A9
:1032E000084307432968CA20486229685320486276
:1032F000284600F049FB002808D02968FF204862D2
:1033000004207070002030700120F8BD254807406F
:103310002868076028688268012189048A438260DE
:10332000E168206901432868826811438160286848
:10333000C16880229143C1602868806880060DD4EE
:10334000284600F031F8002808D02968FF2048629C
:1033500004207070002030700120F8BD2968FF2023
:1033600048620120707000203070F8BD2E2E2F446E
:103370007269766572732F53544D33324C307878BE
:103380005F48414C5F4472697665722F5372632FB8
:1033900073746D33326C3078785F68616C5F72740F
:1033A000632E63007F7F7F0070B504462068C1688C
:1033B000A0229143C160FEF7FDF805462068C06871
:1033C00080060CD47D26F600FEF7F4F8401BB042D0
:1033D00001D9032070BD2068C0688006F4D50020A4
:1033E00070BD00000248016902221143016170476B
:1033F00000E000E010B50446042C06D0002C04D0F8
:10340000FF212D3107A001F07FF804211448042C7E
:1034100003D002698A43026110BD02690A43026156
:1034200010BD00002E2E2F447269766572732F53E3
:10343000544D33324C3078785F48414C5F44726968
:103440007665722F5372632F73746D33326C3078DC
:10345000785F68616C5F636F727465782E630000DB
:1034600000E000E07047000010B40B49401E8842A5
:1034700002D910BC01207047084948610848072359
:10348000C2691202120A4C042243C2610020886100
:103490000B6110BC70470000FFFFFF0000E000E080
:1034A00004ED00E010B5FFF7DDFF10BD0248016933
:1034B000022291430161704700E000E070477047CD
:1034C00070B504462068C1692546C90701266035E4
:1034D000002907D00168C90504D50662E06E3043B3
:1034E000E0666E722068C16904228B070221002BFE
:1034F00007DA8368DB0704D00162E06E1043E06600
:103500006E722068C3695B0707D58368DB0704D048
:103510000262E06E0843E0666E722068C1690907C6
:1035200008D58168C90705D008210162E06E08430B
:10353000E0666E72E06E002802D02046FFF7BFFF03
:103540002068C169C90209D58168490206D50121EF
:10355000090501626E722046FFF7B0FF2068C1695D
:10356000890605D50068800602D5204600F0ACFC2F
:103570002068C169090605D50068000602D5204605
:1035800000F0EEFE2068C169490605D500684006D6
:1035900002D5204600F084FC70BD000070B50446E2
:1035A000002C12D0A0692649264A274B00280ED0AD
:1035B0002068884217D0904215D0984213D0FF213E
:1035C000123122A000F0A0FF0DE0012070BD2068A4
:1035D000884208D0904206D0984204D0FF2117318B
:1035E0001AA000F091FF25466035687A002803D1C3
:1035F0002872204600F048F80220687220680168AE
:10360000490849000160204600F0AAFC606A0028D1
:1036100002D0204600F010FB206841680922D20247
:1036200091434160206881682A229143816020682B
:103630000168012211430160204600F005FC70BDC5
:103640000038014000440040004800402E2E2F4426
:103650007269766572732F53544D33324C307878DB
:103660005F48414C5F4472697665722F5372632FD5
:1036700073746D33326C3078785F68616C5F75613C
:1036800072742E630000000000B585B00068114917
:1036900088421DD11048416B0122920311434163BE
:1036A000032040020090022001900120029003209C
:1036B000039004200490052069460007FDF790FD63
:1036C000002203211B20FEF7B9FA1B20FEF786FA21
:1036D00005B000BD0038014000100240704770473F
:1036E00001490020087070470000002003480221B3
:1036F0000268D16000680821C16070475C0000204A
:1037000070B50446FDF756FF054620688068C04343
:1037100080060FD57D26F600FDF74CFF401BB0421A
:1037200003D90120A063032070BD20688068C043D6
:103730008006F1D4002070BD10B5084800684168CB
:103740001F225203114341600448FFF7D9FF0422AE
:1037500096210348FFF76EFA10BD00005C000020C0
:103760006801002000B583B01848174901600021A6
:10377000416001229207426181610122C2610262BD
:1037800041628162C262416381630422C263016457
:1037900041648164C164FDF73DFA0D4800908013D7
:1037A000019069460948FDF775F80A480090694696
:1037B0000648FDF76FF80848009069460348FDF792
:1037C00069F803B000BD000000240140080100209A
:1037D000020000041000001000000244F0B587B0A1
:1037E0002648C26A04210A43C262C26A0A400192A0
:1037F000C26A80210A43C262C26A0A400192C16A57
:1038000001263143C162C16A31400191C16A02257A
:103810002943C162C06A28400190072040030290FA
:10382000032403940027049702A91548FDF7D8FC48
:1038300002940394049702A91248FDF7D1FC1248A0
:10384000029003940497052002A90007FDF7C8FC25
:10385000B12080000290039404970C4C02A92046EA
:10386000FDF7BEFCE801029003960495059702A9B6
:103870002046FDF7B5FC07B0F0BD00000010024087
:1038800000080050001C0050219800000004005067
:1038900010B50E480C4901600121C90541600021A5
:1038A0008160C16001614161032292028261012253
:1038B0005202C2617022026241628162C16201638E
:1038C000FDF7A8FE10BD0000002400405C000020B1
:1038D00010B586B0144813490160002444607F216C
:1038E0008160FF21C160046144618461C461FFF7AC
:1038F00079FA019404940594012201A90A48FFF77A
:1039000035FC01206946087048708870CC7001222F
:103910000548FFF743FB04221E210348FFF78AF9FD
:1039200006B010BD002800406801002010B50B480B
:1039300009490160E12149024160C9048160002117
:10394000C16001610C2242618161C1610162416219
:10395000FFF724FE10BD0000003801409800002051
:1039600001090A2251430007000F4018C0B27047F6
:1039700000210A2804D3491C0A38C0B20A28FAD206
:103980000907090E0843704770B504462068C168EE
:10399000490616D40021C943C160FDF70BFE054658
:1039A0002068C06840060CD47D26F600FDF702FEB4
:1039B000401BB04201D9032070BD2068C06840069A
:1039C000F4D5002070BD000010B50248FFF7EEF9F5
:1039D00010BD00006801002010B50449800008589F
:1039E0007D21C900FCF79CFB00B210BDF846000821
:1039F00010B5064909884843FCF7BCFC0B21C943B4
:103A0000FCF71DFCFCF7D6FC80B210BD4600002080
:103A100070B501460B48048B0B4844800846FCF700
:103A2000B4FC05462046FCF7B0FC0849FCF78CFBCB
:103A30002946FCF7C6FB0649FCF786FBFCF7BAFCF7
:103A400080B270BD6000F81F4600002000004040BA
:103A500000007A4410B5174C206881680222114397
:103A60008160216803200860FFF720FDFCF774FEE9
:103A70001148016804221143016010480068C168C0
:103A8000802211400E4A8918C16001200D490005AD
:103A9000486101210846FEF729F900F05FF8FFF7B9
:103AA000A1FCFCF73DFE2068816801221143816082
:103AB00010BD0000080100200070004068010020D7
:103AC0007FFBFFFF0004014010B5FDF779FDFFF714
:103AD000E9FC10BD30B59DB01E48816B0204114356
:103AE00081631D4801680322D2029143C2148918E0
:103AF00001600A200E900125119510201290139557
:103B0000002418940EA8FEF7E5FC032009900A95FE
:103B1000A0200B900C940D94002109A8FEF75EFAEA
:103B2000212000900194680405906846FEF72AF968
:103B3000FEF74CFC7D21C900FCF7DCFAFFF794FC92
:103B40000420FFF757FC00221146501EFEF776F8BE
:103B50001DB030BD001002400070004030B59DB077
:103B60001E48816B0204114381631D4801680322D2
:103B7000D2029143C214891801600A200E900125D7
:103B80001195102012901395002418940EA8FEF79A
:103B9000A1FC032009900A95A0200B900C940D9491
:103BA000002109A8FEF71AFA212000900194680468
:103BB00005906846FEF7E6F8FEF708FC7D21C9008F
:103BC000FCF798FAFFF750FC0420FFF713FC0022E3
:103BD0001146501EFEF732F81DB030BD00100240F5
:103BE0000070004010480168821511430160C168EF
:103BF0000E4A1140C16001680D4A114001608168A0
:103C000049084900816001680122920491430160E2
:103C1000C168FD2212049143C16000210161054980
:103C2000C003886070470000001002400C40FF880D
:103C3000F6FFF6FE00ED00E070B50446606AFF286E
:103C400003D9664966A000F05FFCA08CC00710D0C5
:103C50000125A06A6D04002805D0A84203D06F4951
:103C60005FA000F051FC20684168A26AA94311439B
:103C70004160A08C800710D50125E06A2D04002842
:103C800005D0A84203D0664955A000F03DFC20684D
:103C90004168E26AA94311434160A08C400710D5F6
:103CA0000125206BAD04002805D0A84203D05D4952
:103CB0004BA000F029FC20684168226BA943114306
:103CC0004160A08C000710D50125606BED03002832
:103CD00005D0A84203D0544941A000F015FC20684B
:103CE0004168626BA94311434160A08CC00611D5A5
:103CF0000125A06B2D03002806D0A84204D0F12195
:103D0000C90037A000F000FC20688168A26BA943BD
:103D100011438160A08C800610D50125E06B6D03F6
:103D2000002805D0A84203D040492DA000F0ECFBAC
:103D300020688168E26BA94311438160A08C400632
:103D400036D53B492068884206D03A49884203D09C
:103D5000394923A000F0D8FB0125206C2D0500284F
:103D600005D0A84203D035491DA000F0CDFB206846
:103D70004168226CA94311434160206CA84217D1CD
:103D80000325606C6D0500280CD00121490588428F
:103D900008D04900884205D0A84203D0284910A085
:103DA00000F0B2FB20684168626CA9431143416096
:103DB000A08C000610D50125A06CED04002805D0CC
:103DC000A84203D01F4906A000F09EFB206841686E
:103DD000A26CA9431143416070BD00006707000059
:103DE0002E2E2F447269766572732F53544D3332E1
:103DF0004C3078785F48414C5F4472697665722F29
:103E00005372632F73746D33326C3078785F6861EE
:103E10006C5F756172742E63000000006C07000017
:103E2000730700007A070000810700008F07000079
:103E3000003801400044004096070000970700004A
:103E40009C070000A407000070B5044620680068C5
:103E5000124D00070AD501212B46002249052046B4
:103E600000F0B6FA002801D0032070BD2068006879
:103E700040070AD501212B4600228905204600F083
:103E8000A7FA002801D0032070BD00212046603031
:103E90000172E16601214172002070BDF055000001
:103EA00010B501680A6840239A430A6001466031F0
:103EB0004A7A322A05D001224A72FFF710FC00200C
:103EC00010BD22224A72F8E770B502464032938B49
:103ED000014660314C7A222C04D04C7A322C01D02D
:103EE000022070BD012584682D03AC4202D1046913
:103EF000002C0ED00468646A1C40436D5D1C45654F
:103F00001C70538B5B1E1B041B0C53830AD00020B8
:103F100070BD446D05686D6A1D402580436D9B1C16
:103F20004365EEE70268D3699B06FCD4136820243E
:103F3000A34313604A7A322A0FD002681368E40060
:103F4000A3431360026893685B085B0093600122DF
:103F50004A72FFF7C3FB002070BD12224A72F8E7D5
:103F6000F8B5044600250027D9496068884203D384
:103F7000D849D9A000F0C8FA0121A06809078842F1
:103F800008D0002806D00914884203D0E149D2A005
:103F900000F0BAFAE0480326226841143603824250
:103FA0000AD1E06800281DD088421BD06B2109018E
:103FB000C9A000F0A9FA15E0E068002807D0B042D7
:103FC00005D0884203D0D549C3A000F09DFA206AED
:103FD000002807D00121C902884203D0D049BEA0E1
:103FE00000F092FA206900280CD001218902884251
:103FF00008D003214902884204D0D721C900B6A0C5
:1040000000F082FA60690C2102468A4301D100283F
:1040100003D1C449B0A000F077FAA06900280DD000
:10402000C11FF9390AD0FF39013907D0032109022C
:10403000884203D0BC49A8A000F066FAE0690028D5
:1040400007D00121C903884203D0B849A2A000F0DB
:104050005BFAA1682069E26901436069104301438A
:1040600020680268B24B1A400A4302602068416827
:10407000E268B14311434160A069A74922688A42BE
:1040800001D0236A184393680B263602B3430343D7
:104090009360A84A2668A848964212D1C068800753
:1040A000800F06D0012808D0022804D003282CD184
:1040B00005E0012529E0022527E0042525E0082563
:1040C00023E09E4A964210D1C0680C2210401CD0BA
:1040D000042806D0082802D00C2816D103E00225B7
:1040E00013E0042511E008250FE08E420DD1C068D1
:1040F00003229202104008D001229202801A1ED0A0
:10410000801A1AD0904200D108258D488E425FD186
:10411000002D16D0022D29D0042D44D0082D0BD10E
:104120006068FCF739F902460B4600208549FCF728
:1041300093F8FCF753F9F060F8BD0225E5E7042594
:10414000E3E76068FCF728F905460E46FEF752F9EA
:10415000FCF722F90822FCF7F7F82A463346FCF769
:104160007BF8FCF73BF92168C860F8BD0068C00621
:104170000CD56068FCF710F902460B460020724926
:10418000FCF76AF8FCF72AF9F060F8BD6068FCF704
:1041900003F902460B4600206C49FCF75DF8FCF77A
:1041A0001DF9F060F8BD6068FCF7F6F805460E46AC
:1041B000FEF740F9FCF7F0F80822FCF7C5F82A46AC
:1041C0003346FCF749F8FCF709F92168C860F8BDE7
:1041D0000122E169D203914240D1092D36D2290052
:1041E0007944097949188F44040C14312331313151
:1041F0002B00FEF7FFF840006168FBF77BFF87B2FA
:1042000024E0FEF707F940006168FBF773FF87B20F
:104210001CE00068C00605D54D486168FBF76AFFE1
:1042200087B213E04B486168FBF764FF87B20DE08B
:10423000FEF700F940006168FBF75CFF87B205E01C
:10424000012000046168FBF755FF87B239090901B5
:104250003807400F08432168C860F8BD092DFCD21B
:1042600029007944097949188F44050D150424045F
:1042700004042C00F1E7FEF7BDF86168FBF73AFF94
:104280002168C860F8BDFEF7C5F86168FBF732FF2A
:104290002168C860F8BD0068C00605D52E48616871
:1042A000FBF728FFF060F8BD2C486168FBF722FFA0
:1042B000F060F8BDFEF7BEF86168FBF71BFF2168F0
:1042C000C860F8BD10466168FBF714FFF060F8BDE8
:1042D00001093D00AC0600002E2E2F447269766560
:1042E00072732F53544D33324C3078785F48414CC1
:1042F0005F4472697665722F5372632F73746D33E6
:10430000326C3078785F68616C5F756172742E63AF
:1043100000000000AD06000000480040B4060000A8
:10432000B5060000B9060000BA060000BB06000092
:10433000F369FFEF003801404010024000440040A4
:1043400000100240000060418084CE418084EE4134
:1043500000127A000048E80100093D000024F40042
:10436000014660314A7A122A04D0497A322901D0B2
:1043700002207047014640314A8A002A12D00123A8
:1043800082681B039A4202D10269002A16D0C26CCD
:10439000531CC364006812788262488A401E4882B7
:1043A0000020704701680A6880239A430A60006809
:1043B000016840221143016000207047C26C03680D
:1043C0001288D205D20D9A62C26C921CC264E4E7D4
:1043D000F8B504460E4617461D46FDF7EBF800906B
:1043E000394627466037002905D02068C169304624
:1043F00088432FD058E02068C1693046884353D0A5
:10440000681C21D0002D05D0FDF7D4F80099401A82
:10441000A84219D920680168802291430160206870
:10442000016820229143016020680168D200914315
:104430000160206881684908490081600120787224
:10444000002038720320F8BD2068C16930468843D7
:10445000D6D129E0681C22D0002D05D0FDF7AAF89E
:104460000099401AA8421AD92068026880218A431C
:1044700002602068026820218A4302602068016887
:10448000FF22013291430160206881684908490098
:10449000816001207872002038720320F8BD206806
:1044A000C16930468843D5D00020F8BD10B5024818
:1044B000FFF706F810BD0000980000202021020C34
:1044C00001D010211046020A01D010460839020915
:1044D00001D01046091F820801D01046891E4208EB
:1044E00001D0881E7047081A704702E008C8121FE2
:1044F00008C1002AFAD170477047002001E001C1CD
:10450000121F002AFBD1704770470000F8B504461F
:1045100020460A38364E374D5A2810D20A212046F6
:10452000FBF7FEFD89B2698080B2A88042000931A4
:1045300031484900715A805A0818288145E00A2CF0
:1045400006D2A0B2688009304000305A28813CE091
:1045500020460930092809D26000201A80B26880FC
:104560000921081A4000305A28812EE0204664387C
:10457000642820D20A212046FBF7D2FD8FB26F803B
:1045800080B2A8800A2803D30A21FBF7B3FDA980D3
:1045900064212046FBF7C4FD80B2E880093779002A
:1045A000725AA98840004B001349CB5A085AD218B6
:1045B0001018288109E0C82C02DA0A20C44204DC61
:1045C0000D48718C008A081828812B892A780021CF
:1045D0000A48FDF771FA002801D0FCF79DF807485A
:1045E000FDF73EFA002801D0FCF796F8F8BD000070
:1045F0000C00002002000020320000205C0000209F
:10460000FCF7E6FFFFF766FAFFF7E8F8FFF7AAF80E
:10461000FFF73EF9FFF75CF9FFF788F9FF21002269
:1046200001312B48FCF768FFFFF75AF80120FCF72F
:10463000CBFD28480068416807229202114341607F
:104640002448FFF75DF80120FCF7BEFD5820FFF776
:104650005DFFFF20F530FCF7B7FD00211E48FCF799
:10466000A7F8002801D0FCF757F81C4C1C4E022775
:104670001C4D29E01848FCF72FFD002801D0FCF75D
:104680004BF8377020E001281ED117480088FFF74B
:10469000BFF91649088016480088FFF7A9F9288055
:1046A00014480088FFF798F9208029884B20C00023
:1046B000814201D8FFF740F80020205EFFF726FF77
:1046C00000203070FFF7C6F930780028DBD1D1E741
:1046D000000400505C000020080100204C00002075
:1046E000000000204A000020520000204600002068
:1046F0004E00002050000020B9930800254A070012
:1047000091000600F55F05007DF90400BAAF0400D2
:10471000CF760400DB4804008F220400E10104008E
:104720007BE5030070CC030019B60300F8A1030079
:10473000AF8F0300F47E03008E6F03004E61030011
:104740000E540300AF470300183C0300323103004E
:10475000EB260300331D0300FD1303003C0B030095
:10476000E6020300F2FA020059F3020012EC020022
:1047700019E5020066DE0200F6D70200C3D102008E
:10478000CACB020006C6020074C0020012BB0200BF
:10479000DDB50200D1B00200EDAB02002EA7020091
:1047A00092A20200189E0200BE99020081950200AA
:1047B000629102005E8D020073890200A2850200F0
:1047C000E8810200457E0200B87A020040770200CC
:1047D000DB730200897002004A6D02001D6A02004C
:1047E00000670200F4630200F76002000A5E020044
:1047F0002B5B02005A58020096550200E05202005C
:1048000036500200994D0200074B02008148020019
:1048100006460200954302002F410200D33E0200EB
:10482000813C0200383A0200F9370200C23502002A
:10483000943302006F310200512F02003C2D020020
:104840002E2B0200282902002A270200322502000E
:104850004223020058210200751F0200981D020029
:10486000C21B0200F11902002718020062160200A2
:10487000A4140200EB12020037110200880F02009C
:10488000DF0D02003B0C02009C0A0200020902003C
:104890006C070200DB0502004F040200C7020200A1
:1048A00044010200C4FF010049FE0100D2FC0100E6
:1048B0005FFB0100F0F9010085F801001EF701001F
:1048C000BAF501005AF40100FEF20100A5F1010061
:1048D00050F00100FDEE0100AFED010063EC0100BE
:1048E0001BEB0100D5E9010093E8010054E701004A
:1048F00018E60100DFE40100A8E3010075E2010011
:1049000044E1010016E00100EADE0100C2DD010021
:104910009BDC010078DB010057DA010038D9010087
:104920001CD8010002D70100EAD50100D5D401004E
:10493000C2D30100B2D20100A3D1010097D001007F
:104940008DCF010085CE01007FCD01007BCC010021
:1049500079CB010079CA01007BC901007FC8010041
:1049600085C701008CC6010096C50100A1C40100E5
:10497000AEC30100BDC20100CEC10100E1C0010013
:10498000F5BF01000ABF010022BE01003BBD0100CE
:1049900056BC010072BB010090BA0100AFB9010022
:1049A000D0B80100F3B7010016B701003CB6010012
:1049B00063B501008BB40100B5B30100E0B20100A2
:1049C0000CB201003AB1010069B001009AAF0100D8
:1049D000CCAE0100FFAD010033AD010069AC0100B8
:1049E000A0AB0100D8AA010011AA01004CA9010046
:1049F00087A80100C4A7010003A7010042A6010087
:104A000082A50100C4A4010006A401004AA301007C
:104A10008FA20100D5A101001CA1010064A001002A
:104A2000AD9F0100F79E0100429E01008E9D010096
:104A3000DC9C01002A9C0100799B0100C99A0100BD
:104A40001A9A01006C990100BF98010013980100A7
:104A500067970100BD960100149601006B95010057
:104A6000C39401001D94010077930100D2920100CC
:104A70002D9201008A910100E8900100469001000A
:104A8000A58F0100058F0100658E0100C78D010013
:104A9000298D01008C8C0100F08B0100558B0100E9
:104AA000BA8A0100208A010087890100EE8801008E
:104AB00057880100C0870100298701009486010002
:104AC000FF8501006B850100D7840100448401004B
:104AD000B283010021830100908201000082010065
:104AE00070810100E180010053800100C57F010059
:104AF000387F0100AC7E0100207E0100957D010021
:104B00000B7D0100817C0100F87B01006F7B0100BF
:104B1000E77A01005F7A0100D8790100527901003B
:104B2000CC78010047780100C27701003E77010090
:104B3000BA76010037760100B575010033750100C2
:104B4000B174010030740100B073010030730100D2
:104B5000B172010032720100B471010036710100BE
:104B6000B87001003C700100BF6F0100436F01008D
:104B7000C86E01004D6E0100D36D0100596D01003A
:104B8000DF6C0100666C0100EE6B0100766B0100CA
:104B9000FE6A0100876A0100106A01009A6901003B
:104BA00024690100AF6801003A680100C56701008F
:104BB00051670100DE6601006A660100F7650100C9
:104BC0008565010013650100A264010030640100E5
:104BD000C06301004F630100DF62010070620100E9
:104BE000016201009261010023610100B5600100D2
:104BF00048600100DA5F01006E5F0100015F0100A3
:104C0000955E0100295E0100BE5D0100535D01005B
:104C1000E85C01007E5C0100145C0100AB5B0100FC
:104C2000415B0100D85A0100705A0100085A010086
:104C3000A059010038590100D15801006B580100FA
:104C4000045801009E57010038570100D356010057
:104C50006E56010009560100A4550100405501009F
:104C6000DC5401007954010015540100B3530100D4
:104C700050530100EE5201008C5201002A520100F3
:104C8000C95101006751010007510100A650010000
:104C900046500100E64F0100874F0100274F0100F9
:104CA000C84E0100694E01000B4E0100AD4D0100E0
:104CB0004F4D0100F14C0100944C0100374C0100B4
:104CC000DA4B01007E4B0100224B0100C64A010075
:104CD0006A4A01000E4A0100B34901005849010027
:104CE000FE480100A348010049480100EF470100C8
:104CF000964701003D470100E34601008B46010055
:104D000032460100DA450100824501002A450100D2
:104D1000D24401007B44010024440100CD43010042
:104D20007643010020430100CA42010074420100A1
:104D30001E420100C9410100734101001E410100F2
:104D4000CA4001007540010021400100CD3F010033
:104D5000793F0100253F0100D23E01007F3E010066
:104D60002C3E0100D93D0100863D0100343D01008B
:104D7000E23C0100903C01003E3C0100ED3B0100A3
:104D80009C3B01004B3B0100FA3A0100A93A0100AB
:104D9000593A0100093A0100B939010069390100A5
:104DA00019390100CA3801007A3801002B38010096
:104DB000DD3701008E37010040370100F136010078
:104DC000A33601005636010008360100BA3501004D
:104DD0006D35010020350100D33401008634010017
:104DE0003A340100EE330100A133010056330100D3
:104DF0000A330100BE320100733201002732010084
:104E0000DC3101009231010047310100FC3001002A
:104E1000B2300100683001001E300100D42F0100C3
:104E20008A2F0100412F0100F72E0100AE2E010054
:104E3000652E01001D2E0100D42D01008B2D0100D7
:104E4000432D0100FB2C0100B32C01006B2C010051
:104E5000232C0100DC2B0100952B01004D2B0100C0
:104E6000062B0100C02A0100792A0100322A010024
:104E7000EC290100A6290100602901001A2901007E
:104E8000D42801008E2801004928010004280100CF
:104E9000BE2701007927010035270100F026010017
:104EA000AB2601006726010023260100DF25010053
:104EB0009B2501005725010013250100CF24010087
:104EC0008C2401004924010006240100C3230100B1
:104ED000802301003D230100FB220100B8220100D4
:104EE0007622010034220100F2210100B0210100EC
:104EF0006E2101002D210100EB200100AA200100FC
:104F00006920010028200100E71F0100A61F010001
:104F1000651F0100251F0100E41E0100A41E010001
:104F2000641E0100241E0100E41D0100A41D0100F7
:104F3000651D0100251D0100E61C0100A71C0100E4
:104F4000671C0100281C0100EA1B0100AB1B0100CB
:104F50006C1B01002E1B0100EF1A0100B11A0100A9
:104F6000731A0100351A0100F7190100B91901007F
:104F70007B1901003E19010000190100C31801004E
:104F800086180100491801000C180100CF17010014
:104F9000921701005617010019170100DD160100D4
:104FA000A01601006416010028160100EC1501008E
:104FB000B01501007515010039150100FE1401003E
:104FC000C2140100871401004C14010011140100E7
:104FD000D61301009B13010060130100261301008A
:104FE000EB120100B1120100761201003C12010027
:104FF00002120100C81101008E11010054110100BC
:105000001B110100E1100100A81001006E10010049
:1050100035100100FC0F0100C30F01008A0F0100D1
:10502000510F0100180F0100DF0E0100A70E010053
:105030006E0E0100360E0100FE0D0100C50D0100CF
:105040008D0D0100550D01001D0D0100E60C010044
:10505000AE0C0100760C01003F0C0100070C0100B2
:10506000D00B0100990B0100620B01002B0B01001A
:10507000F40A0100BD0A0100860A01004F0A01007E
:10508000190A0100E2090100AC09010075090100DB
:105090003F09010009090100D30801009D08010032
:1050A0006708010031080100FC070100C607010084
:1050B000910701005B07010026070100F1060100CE
:1050C000BB06010086060100510601001C06010016
:1050D000E8050100B30501007E0501004A05010055
:1050E00015050100E1040100AC0401007804010091
:1050F0004404010010040100DC030100A8030100C6
:1051000074030100400301000D030100D9020100F6
:10511000A6020100720201003F0201000C02010020
:10512000D9010100A5010100720101003F01010048
:105130000D010100DA000100A70001007400010068
:10514000420001000F000100DDFF0000ABFF000086
:1051500078FF000046FF000014FF0000E2FE0000A0
:10516000B0FE00007EFE00004DFE00001BFE0000B1
:10517000E9FD0000B8FD000086FD000055FD0000BF
:1051800023FD0000F2FC0000C1FC000090FC0000C8
:105190005FFC00002EFC0000FDFB0000CCFB0000CB
:1051A0009BFB00006AFB00003AFB000009FB0000CB
:1051B000D9FA0000A8FA000078FA000048FA0000C6
:1051C00018FA0000E7F90000B7F9000087F90000BD
:1051D00057F9000027F90000F8F80000C8F80000AF
:1051E00098F8000069F8000039F800000AF800009B
:1051F000DAF70000ABF700007CF700004DF7000085
:105200001DF70000EEF60000BFF6000090F600006B
:1052100062F6000033F6000004F60000D5F5000049
:10522000A7F5000078F500004AF500001BF5000026
:10523000EDF40000BFF4000091F4000062F40000FF
:1052400034F4000006F40000D8F30000AAF30000D4
:105250007DF300004FF3000021F30000F3F20000A3
:10526000C6F2000098F200006BF200003DF2000070
:1052700010F20000E3F10000B6F1000088F1000038
:105280005BF100002EF1000001F10000D4F00000FD
:10529000A7F000007BF000004EF0000021F00000BD
:1052A000F4EF0000C8EF00009BEF00006FEF00007C
:1052B00043EF000016EF0000EAEE0000BEEE000033
:1052C00091EE000065EE000039EE00000DEE0000EA
:1052D000E1ED0000B5ED00008AED00005EED00009C
:1052E00032ED000006ED0000DBEC0000AFEC00004A
:1052F00084EC000058EC00002DEC000002EC0000F3
:10530000D6EB0000ABEB000080EB000055EB00009B
:105310002AEB0000FFEA0000D4EA0000A9EA00003E
:105320007EEA000053EA000028EA0000FEE90000DF
:10533000D3E90000A9E900007EE9000054E900007B
:1053400029E90000FFE80000D4E80000AAE8000016
:1053500080E8000056E800002CE8000002E80000A9
:10536000D7E70000AEE7000084E700005AE700003E
:1053700030E7000006E70000DCE60000B3E60000CE
:1053800089E6000060E6000036E600000DE6000059
:10539000E3E50000BAE5000090E5000067E50000E5
:1053A0003EE5000015E50000ECE40000C3E4000069
:1053B0009AE4000071E4000048E400001FE40000EB
:1053C000F6E30000CDE30000A4E300007CE300006E
:1053D00053E300002AE3000002E30000D9E20000EA
:1053E000B1E2000088E2000060E2000038E2000064
:1053F00010E20000E7E10000BFE1000097E10000DB
:105400006FE1000047E100001FE10000F7E000004D
:10541000CFE00000A7E000007FE0000057E00000C0
:1054200030E0000008E00000E0DF0000B9DF00002D
:1054300091DF00006ADF000042DF00001BDF000098
:10544000F3DE0000CCDE0000A5DE00007EDE000002
:1054500056DE00002FDE000008DE0000E1DD000067
:10546000BADD000093DD00006CDD000045DD0000CA
:105470001EDD0000F7DC0000D1DC0000AADC00002B
:1054800083DC00005DDC000036DC00000FDC000087
:10549000E9DB0000C2DB00009CDB000075DB0000E4
:1054A0004FDB000029DB000002DB0000DCDA00003B
:1054B000B6DA000090DA00006ADA000044DA000090
:1054C0001EDA0000F8D90000D2D90000ACD90000E3
:1054D00086D9000060D900003AD9000014D9000034
:1054E000EFD80000C9D80000A3D800007ED8000083
:1054F00058D8000033D800000DD80000E8D70000CD
:10550000C2D700009DD7000078D7000052D7000016
:105510002DD7000008D70000E3D60000BDD600005C
:1055200098D6000073D600004ED6000029D60000A1
:1055300004D60000DFD50000BBD5000096D50000E2
:1055400071D500004CD5000027D5000003D5000020
:10555000DED40000B9D4000095D4000070D400005F
:105560004CD4000027D4000003D40000DED3000098
:10557000BAD3000096D3000071D300004DD30000D1
:1055800029D3000005D30000E1D20000BCD2000006
:1055900098D2000074D2000050D200002CD200003B
:1055A00008D20000E4D10000C0D100009DD100006D
:1055B00079D1000055D1000031D100000ED100009A
:1055C000EAD00000C6D00000A3D000007FD00000C9
:1055D0005CD0000038D0000015D00000F1CF0000F2
:1055E000CECF0000AACF000087CF000064CF00001C
:1055F00041CF00001DCF0000FACE0000D7CE000042
:10560000B4CE000091CE00006ECE00004BCE000064
:1056100028CE000005CE0000E2CD0000BFCD000086
:105620009CCD000079CD000056CD000033CD0000A8
:1056300011CD0000EECC0000CBCC0000A9CC0000C6
:1056400086CC000063CC000041CC00001ECC0000E2
:10565000FCCB0000D9CB0000B7CB000095CB0000FD
:1056600072CB000050CB00002ECB00000BCB000013
:10567000E9CA0000C7CA0000A5CA000083CA00002A
:1056800060CA00003ECA00001CCA0000FAC900003F
:10569000D8C90000B6C9000094C9000072C9000052
:1056A00051C900002FC900000DC90000EBC800005F
:1056B000C9C80000A8C8000086C8000064C800006F
:1056C00043C8000021C80000FFC70000DEC700007B
:1056D000BCC700009BC7000079C7000058C7000086
:1056E00036C7000015C70000F4C60000D2C600008F
:1056F000B1C6000090C600006FC600004DC6000095
:105700002CC600000BC60000EAC50000C9C5000099
:10571000A8C5000087C5000066C5000045C500009B
:1057200024C5000003C50000E2C40000C1C400009D
:10573000A0C400007FC400005FC400003EC400009D
:105740001DC40000FCC30000DCC30000BBC300009C
:105750009BC300007AC3000059C3000039C3000096
:1057600018C30000F8C20000D7C20000B7C2000092
:1057700096C2000076C2000056C2000035C200008A
:1057800015C20000F5C10000D5C10000B4C1000081
:1057900094C1000074C1000054C1000034C1000075
:1057A00014C10000F4C00000D3C00000B3C000006A
:1057B00093C0000074C0000054C0000034C000005A
:1057C00014C00000F4BF0000D4BF0000B4BF00004C
:1057D00094BF000075BF000055BF000035BF00003A
:1057E00016BF0000F6BE0000D6BE0000B7BE000027
:1057F00097BE000077BE000058BE000038BE000013
:1058000019BE0000F9BD0000DABD0000BBBD0000FC
:105810009BBD00007CBD00005DBD00003DBD0000E3
:105820001EBD0000FFBC0000DFBC0000C0BC0000CB
:10583000A1BC000082BC000063BC000044BC0000AE
:1058400024BC000005BC0000E6BB0000C7BB000094
:10585000A8BB000089BB00006ABB00004BBB000076
:105860002CBB00000EBB0000EFBA0000D0BA000055
:10587000B1BA000092BA000073BA000055BA000035
:1058800036BA000017BA0000F9B90000DAB9000012
:10589000BBB900009DB900007EB900005FB90000EF
:1058A00041B9000022B9000004B90000E5B80000C9
:1058B000C7B80000A9B800008AB800006CB80000A2
:1058C0004DB800002FB8000011B80000F2B700007A
:1058D000D4B70000B6B7000098B7000079B7000051
:1058E0005BB700003DB700001FB7000001B7000024
:1058F000E3B60000C5B60000A7B6000088B60000F9
:105900006AB600004CB600002EB6000011B60000CA
:10591000F3B50000D5B50000B7B5000099B500009B
:105920007BB500005DB500003FB5000022B500006A
:1059300004B50000E6B40000C8B40000ABB4000039
:105940008DB400006FB4000052B4000034B4000005
:1059500017B40000F9B30000DBB30000BEB30000D1
:10596000A0B3000083B3000065B3000048B300009B
:105970002AB300000DB30000F0B20000D2B2000064
:10598000B5B2000098B200007AB200005DB200002B
:1059900040B2000022B2000005B20000E8B10000F1
:1059A000CBB10000AEB1000090B1000073B10000B7
:1059B00056B1000039B100001CB10000FFB000007A
:1059C000E2B00000C5B00000A8B000008BB000003D
:1059D0006EB0000051B0000034B0000017B00000FD
:1059E000FAAF0000DDAF0000C1AF0000A4AF0000BF
:1059F00087AF00006AAF00004DAF000031AF00007C
:105A000014AF0000F7AE0000DBAE0000BEAE000039
:105A1000A1AE000085AE000068AE00004BAE0000F5
:105A20002FAE000012AE0000F6AD0000D9AD0000B0
:105A3000BDAD0000A0AD000084AD000067AD00006A
:105A40004BAD00002EAD000012AD0000F6AC000022
:105A5000D9AC0000BDAC0000A1AC000084AC0000DB
:105A600068AC00004CAC00002FAC000013AC000090
:105A7000F7AB0000DBAB0000BFAB0000A2AB000047
:105A800086AB00006AAB00004EAB000032AB0000FA
:105A900016AB0000FAAA0000DEAA0000C2AA0000AD
:105AA000A6AA00008AAA00006EAA000052AA00005E
:105AB00036AA00001AAA0000FEA90000E2A9000010
:105AC000C6A90000AAA900008FA9000073A90000C0
:105AD00057A900003BA900001FA9000004A900006D
