:020000040800F2
:1000000020050020D5000008DD000008DF00000802
:1000100000000000000000000000000000000000E0
:10002000000000000000000000000000E1000008E7
:100030000000000000000000E3000008CD370008C9
:10004000E7000008E7000008D9360008E7000008CC
:10005000E7000008E7000008E7000008E7000008E4
:10006000E7000008E7000008E7000008E7000008D4
:1000700045030008E700000800000000E700000852
:1000800000000000E7000008000000000000000081
:10009000E700000800000000E7000008E700000893
:1000A000E7000008E7000008E7000008E700000894
:1000B000E7000008E7000008F1320008E700000848
:1000C0000348854600F02CF900480047CD3A000867
:1000D000200500200448804704480047FEE7FEE76B
:1000E000FEE7FEE7FEE7FEE741390008C100000831
:1000F00030B50B46014600202022012409E00D46C0
:10010000D5409D4205D31D469540491B2546954047
:1001100040191546521E002DF1DC30BD70B500248B
:100120002546002801DA01244042002901DA012590
:100130004942FFF7DDFFAC4200D04042002C00D026
:10014000494270BD024670B54A40D30FDB074000FC
:100150002DD04A002AD0010E140E000212020919F5
:10016000400A520A8418E50104465443000A120A60
:100170002E045043A4194219200CC543AA18120C8E
:100180000125AD03521C521912047F39240400D0FA
:10019000521C104301D44000491EC2B20C06C009D3
:1001A0002018401C4008802A02D003E0002070BDC7
:1001B00040084000002900DA0020184370BD70B5E7
:1001C00002464A40D50F40004A00ED074008520859
:1001D000002814D0002A12D0C40DD30D41020120F2
:1001E000C0055202490A520AE41A091812187D344D
:1001F000914201D3641C00E04900002C01DA002088
:1002000070BD0023914201D3891A0343400849007D
:100210000028F7D100290AD0914202D10121C90753
:1002200005E0914201D2012101E00121C943E0052D
:10023000C018401900F033F870BD420005D04200EC
:10024000120E52428A4201DB00207047C90508188D
:100250007047C217C10F504010B54018CA07962307
:10026000002100F024F810BD10B50022962311469D
:1002700000F01DF810BD410040020122400AD205E5
:10028000090E80187F2901DA00207047962903DCC7
:100290009622511AC8407047963988407047002905
:1002A00004DA401C490001D140084000704770B496
:1002B0000024050C05D11024000402D1002921D00E
:1002C0001124050E01D100020834050F01D10001EF
:1002D000241D850F01D18000A41C002801DB4000F3
:1002E000641C002908D020252E1B0D46F540A14096
:1002F00000D001212943084301061B1B000ADB1D16
:1003000002D5002070BC7047DB0518188018002942
:10031000F8DA401C4900F5D170BC40084000704735
:10032000064C0125064E05E0E36807CC2B430C3C48
:1003300098471034B442F7D3FFF7C6FEF45B0008C9
:10034000145C0008F8B5234F386800680025C043E6
:100350004007214E214C002829DB2078002804D0BA
:10036000012812D0022822D119E0FF2100220131F8
:100370001B4800F09DFF174800F04EFA194908800D
:1003800035702078401C207011E0124800F044FACB
:100390001549088035702078401C207007E00D4812
:1003A00000F03AFA114908802078401C2070386823
:1003B0000168C943090709D4082101600120307090
:1003C000257001020122064800F072FF014800F08A
:1003D00051FAF8BD98000020000000200100002024
:1003E000000400504E000020500000205200002069
:1003F00038B50446094808490068FFF779FE6043AC
:1004000000900098002805D00098401E00900098A9
:100410000028F9D138BD000040420F0058000020EC
:10042000F8B50446206881688907890F012902D13F
:100430000168C9072ED18168174A1026114001258D
:10044000002907D0A06D3043A065E06D2843E0652A
:100450000120F8BD8168294381600120FFF7C8FFB2
:1004600000F084FF074620680068C043C00711D031
:1004700000F07CFFC01B0A2807D9A06D3043A0659F
:10048000E06D2843E0650120F8BD20680068C043A6
:10049000C007EDD10020F8BD1700008000B587B07F
:1004A0000A49CA6A02200243CA62C96A014001912C
:1004B000C10102910121039104900020059002A93D
:1004C000034800F069FD07B000BD000000100240C5
:1004D0000004005030B587B01248C16A01221143B0
:1004E000C162C16A11400191C26A02210A43C2621B
:1004F000C06A084001900320400202900325039542
:1005000000240494052002A9000700F045FDFF2007
:10051000013002900395049402A9034800F03CFDC9
:1005200007B030BD0010024000040050F8B504468A
:1005300000262E492068884203D082212CA003F097
:1005400039FA25464035287D012808D00120287534
:10055000206881688907890F01290ED101E00220F6
:10056000F8BD0168C90708D0A06D20210843A06527
:100570000126002028753046F8BDA16DFF2201320A
:10058000914302221143A165C1688907890F009137
:10059000C16889088900C160206881689207114399
:1005A000816000F0E3FE074620688068002812DAC8
:1005B00000F0DCFEC01B0A2809D9A06D0221884387
:1005C00010210843A065002028750120F8BD20688F
:1005D00080680028ECDB2068C168009A1143C16084
:1005E000A06D80088000401CA065C2E70024014087
:1005F0002E2E2F447269766572732F53544D333209
:100600004C3078785F48414C5F4472697665722F50
:100610005372632F73746D33326C3078785F686116
:100620006C5F6164635F65782E630000F8B5064611
:100630000C4655493068884204D0CD21C90053A0EA
:1006400003F0B8F92068012839D05E49884236D0D5
:100650004900884233D05C49884230D05B498842A7
:100660002DD05B4988422AD05A49884227D05A491E
:10067000884224D05949884221D0594988421ED005
:10068000584988421BD05849884218D05749884257
:1006900015D05749884212D0564988420FD0564942
:1006A00088420CD05549884209D05549884206D025
:1006B0005449884203D0544934A003F07BF9012106
:1006C000090360684F1C884205D0B84203D04F49E7
:1006D0002EA003F06FF935464035287D01280DD056
:1006E0000120287530688168490709D5B06D20213F
:1006F0000843B065002028750120F8BD0220F8BD30
:1007000001213B46C90562684F10414E9A421DD0F7
:10071000826A23685B035B0B1A4382622068400392
:1007200005D5B0680843B0600A20FFF761FE206875
:10073000800302D5B0683843B0602068C0031FD57D
:10074000B068012109060843B06019E0826A236895
:100750005B035B0B9A4382622068400302D5B0685A
:100760008843B0602068800302D5B068B843B060A9
:100770002068C00304D5B168012000068143B16040
:1007800000202875F8BD0000002401402E2E2F44C3
:100790007269766572732F53544D33324C307878CA
:1007A0005F48414C5F4472697665722F5372632FC4
:1007B00073746D33326C3078785F68616C5F61643C
:1007C000632E6300020000040800000C10000010FB
:1007D00020000014400000188000001C00010020D0
:1007E00000020024000400280008002C0010003043
:1007F00000200034004000380080003C0000044825
:100800000000024400000140690600006A06000082
:10081000002701407047704710B50446054920681D
:10082000884203D0044905A003F0C4F82068006C96
:1008300010BD000000240140760500002E2E2F443C
:100840007269766572732F53544D33324C30787819
:100850005F48414C5F4472697665722F5372632F13
:1008600073746D33326C3078785F68616C5F61648B
:10087000632E630070B5044642492068884203D065
:10088000414942A003F096F8206A002806D00128CA
:1008900004D0B121C9003DA003F08CF860690428A0
:1008A00007D0082805D00C2803D0464937A003F00C
:1008B00081F820680168490702D54168490705D4D5
:1008C0000168090733D54168090730D5A16DC9060C
:1008D00004D4A16D012252021143A165C1680C2507
:1008E0000905890F00291AD1216A002917D1016849
:1008F000090714D5816801224907002908DB4168EE
:10090000A9434160A06D110288431043A06506E031
:10091000A06D20210843A065E06D1043E0652046EE
:10092000FFF778FFA069012801D0206805602068E2
:10093000016809060DD5406800060AD5A06D0121A1
:1009400009040843A065204600F088FA2168802049
:10095000086020680168C90613D54168C90610D52A
:10096000616B1025002902D0C168C90707D0E16D6D
:1009700002221143E16505602046FFF74CFF206825
:10098000056070BD00240140870500002E2E2F4415
:100990007269766572732F53544D33324C307878C8
:1009A0005F48414C5F4472697665722F5372632FC2
:1009B00073746D33326C3078785F68616C5F61643A
:1009C000632E630089050000F8B50446002C7DD035
:1009D000FE492068884204D0FF216E31FCA002F05D
:1009E000E9FF6068002838D003218907884234D0A5
:1009F0004942884231D0490088422ED0490B884272
:100A00002BD04900884228D003218904884224D071
:100A100001210905884220D00521890488421CD083
:100A20000321C904884218D007218904884214D0C0
:100A300001214905884210D00921890488420CD03F
:100A40000521C904884208D00B218904884204D0BA
:100A5000FF216F31DEA002F0ADFFA06800280AD0B0
:100A6000082808D0102806D0182804D0FF2170319B
:100A7000D7A002F09FFFE068002806D0202804D00D
:100A8000FF217131D2A002F095FF2069012806D024
:100A9000022804D0FF217231CDA002F08BFF206A22
:100AA000002806D0012804D0FF217331C8A002F02D
:100AB00081FF606A002806D0012804D0FF2174312C
:100AC000C3A002F077FFE06A002800E091E00FD0B9
:100AD0000121890288420BD04900884208D00321B5
:100AE0008902884204D0FF217531B9A002F062FF6B
:100AF000FF26A06A0136002814D0402812D0802892
:100B000010D0C0280ED0B0420CD00146FF39813938
:100B100008D0403906D0491E04D0FF217631ACA060
:100B200002F048FF206B002806D0012804D0FF21E6
:100B30007731A7A002F03EFF6069042808D008289A
:100B400006D00C2804D0FF217831A1A002F032FF9A
:100B5000606B002808D001210903884204D0FF21DE
:100B600079319BA002F026FFA069002806D0012859
:100B700004D0FF217A3196A002F01CFFA06B002860
:100B800006D0012804D0FF217B3191A002F012FF92
:100B9000E069002806D0012804D0FF217C318CA018
:100BA00002F008FFE06B002812D0012810D00228C4
:100BB0000ED003280CD004280AD0052808D0062817
:100BC00006D0072804D0FF217D3181A002F0F2FE7B
:100BD000206C002806D0012804D0FF217E317CA0A3
:100BE00002F0E8FEA06D274600254037002802D01D
:100BF00006E00120F8BDE5653D75204600F030F9BE
:100C0000A06DC00603D420688168490706D5A06D91
:100C100010210843A0653D750120F8BDA16D022299
:100C2000B1431143A1658168774A8907890F01297A
:100C300002D10168C9072BD1032361689B07994240
:100C400005D05B42994202D05B00994209D101690B
:100C5000890089080161206801696368194301619D
:100C60000CE0016989008908016190680F218904FD
:100C70008843906090686168084390602068C1680C
:100C800018239943C1602068C168A3681943C160F3
:100C9000906801214906884390609068218F490639
:100CA0000843906020688168C90004D481680122EB
:100CB0001207114381602068C168544A1140C16025
:100CC0002069E168022823D000200143206A226BBA
:100CD0004003520010430143606B0143A06980034D
:100CE0000143E069C00301432068C2681143C16049
:100CF000A06A0146FF39C23905D0E16A084321687C
:100D0000CA681043C860606A0127012802D00BE05E
:100D10000420DAE7206A002823D0A06D20210843B0
:100D2000A065E06D3843E065206C012820D0206884
:100D30000169C90703D001694908490001612068B8
:100D40004169C908C900416120684169E26B1143EA
:100D50004161E565A06D80088000401CA065002011
:100D6000F8BD2068C168012212041143C160DBE7AD
:100D7000606C002811D004280FD008280DD00C2852
:100D80000BD0102809D0142807D0182805D01C280B
:100D900003D01F490EA002F00DFEA06C002813D056
:100DA000202811D040280FD060280DD080280BD0EB
:100DB000A02809D0C02807D0E02805D0B04203D031
:100DC000144903A002F0F6FDE06C25E00024014088
:100DD0002E2E2F447269766572732F53544D333221
:100DE0004C3078785F48414C5F4472697665722F69
:100DF0005372632F73746D33326C3078785F68612F
:100E00006C5F6164632E6300002701401902FEFFDE
:100E10000D0200000E020000002807D0C11FFF399C
:100E2000FA3903D00B490C4802F0C4FD206801696F
:100E3000FF2292009143016120680169626CE36CBA
:100E40001143A26C1A4311430161206801693943BF
:100E5000016174E70F020000D00D00087047000028
:100E600000B585B000680E49884217D10D48416B26
:100E7000421511434163122000900320019000208D
:100E8000029005206946000700F086F8002211460E
:100E90000C2000F0BFFD0C2000F08CFD05B000BD63
:100EA000002401400010024070B50446002523498B
:100EB0002068884203D0224922A002F07BFD2068EE
:100EC0008068400736D426464036307D01280BD056
:100ED00001203075E069012803D02046FFF7A0FA11
:100EE0000546002D02D026E0022070BDA06D2349EA
:100EF0000840FF2101310843A0650020E0653075FE
:100F000020681C22026060690421082808D020683B
:100F1000436813434360206882680A4382600AE0A2
:100F2000206842688A4342602068426818231A4356
:100F30004260F0E70225284670BD00000024014011
:100F4000490400002E2E2F447269766572732F5368
:100F5000544D33324C3078785F48414C5F4472696D
:100F60007665722F5372632F73746D33326C3078E1
:100F7000785F68616C5F6164632E6300FEF1FFFF60
:100F800031B500F0F3F9044600F0F0F90099001BC8
:100F90008842F9D338BD0000F8B505460C46002656
:100FA000606800281FD001281DD011281BD00228FE
:100FB00019D0122817D0A249884214D0A1498842DA
:100FC00011D0A14988420ED0A04988420BD0A04937
:100FD000884208D09F49884205D0032803D0BE210B
:100FE0009DA002F0E7FCA068002807D0012805D0EA
:100FF000022803D0BF2198A002F0DCFC05273F07A0
:10100000BD4205D120680104090C01D0000C26D096
:10101000A048854205D120680104090C01D0000CCC
:101020001DD09D48854205D120680104090C01D0DE
:10103000000C14D09948854205D12068410702D59B
:10104000042188430BD09648854204D1206881074B
:1010500001D0800803D0C0217FA002F0ABFC206843
:1010600000287DD00120B040276800900740002F65
:1010700077D06068022801D0122851D105200007DE
:10108000854210D1206900283DD001283BD002289C
:1010900039D0032837D0042835D0052833D0062886
:1010A00031D007282FD07B4885420ED120690028F7
:1010B00029D0012827D0022825D0032823D00428AE
:1010C00021D005281FD006281DD07348854208D19D
:1010D0002069002817D0012815D0022813D0032832
:1010E00011D06E48854204D1206900280BD0012818
:1010F00009D06B48854202D12069002803D0CF2156
:1011000055A002F057FCF00880004319196A7007D7
:10111000C00E0F2282409143226982400A431A6224
:101120006068012805D0022803D0112801D01228B8
:1011300021D1E068002809D0012807D0022805D075
:10114000032803D0DC2144A002F034FCA96870001D
:10115000032282409143E26882400A43AA6001E090
:101160006CE066E06868009988432179C906C90F78
:10117000B140014369602B687000032181408B43BB
:1011800022799207920F82401A432A60EA688A43C2
:10119000A16881401143E9606068C00049D54149B8
:1011A000486B012210434863B1083F4889000B187F
:1011B0009968B007000F0F22824091430522120761
:1011C000954201D1002214E0324A954201D1012218
:1011D0000FE0314A954201D102220AE02F4A95429E
:1011E00001D1032205E02E4A954201D1052200E0FB
:1011F000062282400A439A602C490868B843626814
:10120000D20300D5384308604868B8436268920347
:1012100000D5384348608868B8436268D20200D578
:1012200038438860C868B8436268920200D5384382
:10123000C860761C2068F04000D013E7F8BD0000BD
:1012400000001110000021100000311000001210E9
:1012500000002210000032102E2E2F447269766595
:1012600072732F53544D33324C3078785F48414C71
:101270005F4472697665722F5372632F73746D3396
:10128000326C3078785F68616C5F6770696F2E636D
:10129000000000000004005000080050000C005046
:1012A000001C0050001002400000014000040140FA
:1012B00070B505460C46164605200007854201D14B
:1012C000002C1ED11648854201D1002C19D1154899
:1012D000854201D1002C14D11348854205D1600705
:1012E00003D50421204688430BD01048854203D102
:1012F000A00701D0A00804D0FF21AB310CA002F060
:1013000059FB002E06D0012E04D0FF21AC3108A0DD
:1013100002F050FB002E01D0AC6170BDAC6270BD1C
:101320000004005000080050000C0050001C005049
:101330002E2E2F447269766572732F53544D3332BB
:101340004C3078785F48414C5F4472697665722F03
:101350005372632F73746D33326C3078785F6861C9
:101360006C5F6770696F2E630000000001480068C1
:10137000704700005400002002480168491C0160C9
:10138000704700005400002010B506480168402254
:1013900011430160002000F007F800F0EFFA002090
:1013A00010BD00000020024010B5044607487D2112
:1013B000C9000068FEF79CFE01F06AFF002221468A
:1013C000501E00F027FB002010BD00005800002038
:1013D000F8B504460025002C7ED0E54920688842F7
:1013E00003D0C521E3A002F0E5FA606800283ED0F2
:1013F0000121890588423AD04900884237D003212B
:101400008905884233D00121090688422FD0052161
:10141000890588422BD00321C905884227D007219E
:101420008905884223D00121490688421FD009211D
:10143000890588421BD00521C905884217D00B2198
:101440008905884213D00321090688420FD00D2157
:10145000890588420BD00721C905884207D00F2192
:101460008905884203D0C621C2A002F0A3FAA06871
:10147000002840D00121890488423CD0490088429C
:1014800039D003218904884235D0012109058842D9
:1014900031D00521890488422DD00321C904884216
:1014A00029D007218904884225D001214905884295
:1014B00021D00921890488421DD00521C904884210
:1014C00019D00B218904884215D0032109058842CF
:1014D00011D00D21890400E0D0E088420BD0072113
:1014E000C904884207D00F218904884203D0C7214C
:1014F000A0A002F05FFAE06800280BD0042809D011
:10150000082807D00C2805D0102803D0C82199A09E
:1015100002F050FA2069002807D0202805D0402882
:1015200003D0C92193A002F045FA6069002805D0D4
:10153000022803D0CA218FA002F03CFA206A0028BA
:1015400011D010280FD020280DD030280BD04028E3
:1015500009D0502807D0602805D0702803D0CB21AF
:1015600084A002F027FA606A002805D0012803D081
:10157000CC2180A002F01EFAE069002818D0802853
:1015800016D0C11FF93913D0803911D080390FD04E
:101590000521C90188420BD003210902884207D0E6
:1015A0000721C901884203D0CD2172A002F002FABE
:1015B000A06900281ED00121890288421AD0490062
:1015C000884217D003218902884213D001210903E0
:1015D00088420FD00521890288420BD00321C9021D
:1015E000884207D007218902884203D0CE2161A01A
:1015F00002F0E0F9E06A00281ED001214903884288
:101600001AD04900884217D003214903884213D0D9
:101610000121C90388420FD00521490388420BD01C
:1016200003218903884207D007214903884203D058
:10163000CF2150A002F0BEF9A06A00280ED00121EF
:10164000090488420AD04900884207D003210904CE
:10165000884203D0D02147A002F0ACF9206B80284B
:1016600005D0002803D0D12142A002F0A3F92646DC
:101670002036707D0027002802D005E00120F8BD4B
:101680003775204600F094F80220707520680168D4
:10169000490849000160A800216814300F506D1CF2
:1016A000EDB20F2DF7D920688168042211438160C3
:1016B0006168A068E26A0143A06A10430143E069DF
:1016C0000143206A0143A0690143606A0143206825
:1016D0004268364B1A4011434160204601F012FE29
:1016E000E1682069226B014360691043014320686F
:1016F0000268FE239A4311430160206801680122B9
:1017000011430160FFF732FE054620688068C04340
:10171000C0070FD0FFF72AFE411B7D20C000814289
:1017200003D90820A0630320F8BD20688068C04367
:10173000C007EFD1FFF71AFE054620688068C04356
:10174000C0060FD5FFF712FE411B7D20C00081426D
:1017500003D91020A0630320F8BD20688068C0432F
:10176000C006EFD4A763012070750020F8BD00000B
:10177000002400402E2E2F447269766572732F5319
:10178000544D33324C3078785F48414C5F44726935
:101790007665722F5372632F73746D33326C3078A9
:1017A000785F68616C5F6C63642E63000F0000FCFF
:1017B00070B586B000681549884225D11448816B00
:1017C000421511438163FF20CD300190022602961D
:1017D00000240394049401250595052001A9000720
:1017E000FFF7DAFB0B4801900296039404940595E9
:1017F00001A90948FFF7D0FB002203211E2000F0B9
:1018000009F91E2000F0D6F806B070BD0024004093
:10181000001002403BFC000000040050F8B50446F4
:1018200021680820C86020688168042739438160E6
:10183000FFF79CFD0646206880682546C0430007E8
:101840002035002810DAFFF791FD811B7D20C000B4
:10185000814204D9A763002028750320F8BD2068C1
:101860008068C0430007EED4012068750020287509
:10187000F8BD0000FFB581B006460C463546203560
:10188000687D012805D0687D022802D0012005B0BE
:10189000F0BD002C22D0012C20D0022C1ED0032C15
:1018A0001CD0042C1AD0052C18D0062C16D0072CCE
:1018B00014D0082C12D0092C10D00A2C0ED00B2CCE
:1018C0000CD00C2C0AD00D2C08D00E2C06D00F2CCE
:1018D00004D0FF2191311BA002F06CF8687D012833
:1018E00024D1287D012819D001202875022068758F
:1018F000FFF73CFD074630688068C043400715D4B9
:10190000FFF734FDC11B7D20C000814209D90220B0
:10191000B06300202875032005B0F0BD022005B09B
:10192000F0BD30688068C0434007E9D5A000316849
:1019300014300A58039B1A40049B1A430A50002093
:1019400005B0F0BD2E2E2F447269766572732F5349
:10195000544D33324C3078785F48414C5F44726963
:101960007665722F5372632F73746D33326C3078D7
:10197000785F68616C5F6C63642E630010B50C481F
:10198000416B012211434163816B02041143816366
:1019900000221146501F00F03DF800221146901E13
:1019A00000F038F800221146501E00F033F810BD48
:1019B0000010024010B50446002C03DAA82105A04F
:1019C00001F0F8FFE106C90E0120884010490860C7
:1019D00010BD00002E2E2F447269766572732F534E
:1019E000544D33324C3078785F48414C5F447269D3
:1019F0007665722F5372632F73746D33326C307847
:101A0000785F68616C5F636F727465782E63000045
:101A100000E100E070B504460D46042D03D3982183
:101A200010A001F0C7FFA007C00EFF228240A90747
:101A3000090E8140002C0BDA2007000F08388308BC
:101A400017489B001818C36993430B43C36170BDCB
:101A5000A30814489B001818036893430B430360C2
:101A600070BD00002E2E2F447269766572732F535D
:101A7000544D33324C3078785F48414C5F44726942
:101A80007665722F5372632F73746D33326C3078B6
:101A9000785F68616C5F636F727465782E630000B5
:101AA00000ED00E000E400E070B504460D46002CB7
:101AB00005D0012C03D0114911A001F07BFF012DAD
:101AC00005D0022D03D01C490DA001F073FF1B4966
:101AD00008688008800020430860194802690421D2
:101AE0000A430261012D06D040BF20BF20BF02691A
:101AF0008A43026170BD30BFF9E700001E0200009A
:101B00002E2E2F447269766572732F53544D3332E3
:101B10004C3078785F48414C5F4472697665722F2B
:101B20005372632F73746D33326C3078785F6861F1
:101B30006C5F7077722E63001F020000007000401F
:101B400000ED00E0F8B50446B2492068884203D9A8
:101B50007E21B1A001F02EFF2068BE4D810601D488
:101B600001057BD5BC4EBD4F80061AD560680028A4
:101B700017D0B04215D0B84213D0032109048842CF
:101B80000FD01321090488420BD023210904884275
:101B900007D033210904884203D08A219EA001F096
:101BA00009FF208800051AD5A068002817D0B04288
:101BB00015D0B84213D00321090488420FD0132155
:101BC000090488420BD023210904884207D033211D
:101BD0000904884203D090218FA001F0EBFE00267B
:101BE0009F48806BC00005D49D48826B01040A4366
:101BF000826301269B480168C90517D40068FF214C
:101C00000131084397490860FFF7B0FB0746954844
:101C10000068C0050AD4FFF7A9FBC01B642801D9DE
:101C20000320F8BD8F480068C005F4D58C4F386894
:101C300003210905084062681140814205D1032350
:101C4000A1681B051940814209D09003800F032829
:101C500005D13868800302D50120F8BD49E0286924
:101C600003210904084000282BD00A40824202D0F8
:101C70002278920606D4A2680A40824221D02088A7
:101C800000051ED5286988432A690121C9040A4331
:101C90002A612A698A432A612861C00511D5FFF7A4
:101CA00065FB0090286980050BD4FFF75FFB009966
:101CB000411A6D48814201D90320F8BD2869800589
:101CC000F3D560688103890F032905D13A680905B6
:101CD0008A43084002433A6028690322616812047B
:101CE000114008432861012E03D1B96B30078143AD
:101CF000B9632078C00712D0E068002809D0012815
:101D000007D0032805D0022803D0F22142A001F019
:101D100051FEE868E168800880000843E8602078A8
:101D2000800712D52069002809D0042807D00C2884
:101D300005D0082803D0FD2137A001F03BFEE8685C
:101D40000C21884321690843E8602078400717D5B3
:101D500003266069B60200280DD00121890288425D
:101D600009D0B04207D04900884204D0FF21083191
:101D700029A001F01FFEE8686169B0430843E860EC
:101D80002078000715D5A06900280BD00121090390
:101D9000884207D04900884204D0FF2112311EA09A
:101DA00001F008FEE868032109038843A16908439C
:101DB000E8602078400610D50126206AB606B042B9
:101DC00006D0002804D0FF21283113A001F0F2FD35
:101DD000E868216AB0430843E8602078000617D518
:101DE0000326E069B60400280DD001218904884249
:101DF00009D04900884206D0B04204D0FF213031DA
:101E000005A001F0D7FDE868E169B0430843E86048
:101E10000020F8BDFF0800002E2E2F447269766561
:101E200072732F53544D33324C3078785F48414CA5
:101E30005F4472697665722F5372632F73746D33CA
:101E4000326C3078785F68616C5F7263635F65786D
:101E50002E6300004010024000000100000002005C
:101E6000001002400070004088130000F8B50446DE
:101E70000D46002C04D1CF21890096A001F09AFDD7
:101E80002068C10709D1810707D4410705D400079D
:101E900003D49E498FA001F08DFD002D05D0012DAA
:101EA00003D09B498BA001F085FD9A480068C007CC
:101EB000C00FA8420CD2974801684908490029433D
:101EC00001600068C007C00FA84201D00120F8BD22
:101ED0002078914F80071CD5A068002813D0802857
:101EE00011D090280FD0A0280DD0B0280BD0C0283A
:101EF00009D0D02807D0E02805D0F02803D08749A2
:101F000074A001F057FDF868F0218843A1680843E8
:101F1000F8602078C00755D0606800280AD00128F2
:101F200008D0022806D0032804D0D721890069A050
:101F300001F040FD6068022808D003280BD001287A
:101F40000ED03968890510D40120F8BD396889039D
:101F50000BD40120F8BD3968890106D40120F8BDF1
:101F60003968490701D40120F8BDF968890889005A
:101F70000143F960FFF7FAF90646616802290FD0BC
:101F8000032920D0012931D0F9680907890F44D0ED
:101F9000FFF7ECF9811B624881423AD90320F8BD72
:101FA000F9680907890F022937D0FFF7DFF9811B8C
:101FB0005B48814201D90320F8BDF8680007800F13
:101FC0000228F2D129E0F9680907890F032924D0F2
:101FD000FFF7CCF9811B5248814201D90320F8BD9B
:101FE000F8680007800F0328F2D116E0F9680907A6
:101FF000890F012911D0FFF7B9F9811B48488142A7
:1020000001D90320F8BDF8680007800F0128F2D13C
:1020100003E0F8680007800FBAD13E480168C9079D
:10202000C90FA9420BD90168490849002943016039
:102030000068C007C00FA84201D00120F8BD207879
:10204000384E394D400717D5E06800280FD0B04210
:102050000DD005210902884209D003214902884296
:1020600005D0A84203D031491AA001F0A3FCF868BA
:10207000E168A8430843F860207800071BD5206971
:10208000002810D0B0420ED00521090288420AD0A3
:1020900003214902884206D0A84204D07921C90010
:1020A0000CA001F087FCF8680721C9028843216968
:1020B000C9000843F86000F045F8F9681C4A0906B1
:1020C000090F515CC8401B4908600020FFF76CF9FC
:1020D0000020F8BD2E2E2F447269766572732F533F
:1020E000544D33324C3078785F48414C5F447269CC
:1020F0007665722F5372632F73746D33326C307840
:10210000785F68616C5F7263632E63003D0300005B
:102110003E03000000200240001002405503000072
:10212000881300000004000000070000C103000045
:10213000D85B000858000020014800687047000084
:102140005800002010B51C4AD1680C2308461840DE
:1021500004280BD0082810D00C2810D05068000498
:10216000410F491C0120C003884010BD1068C00603
:1021700001D5124810BD124810BD124810BD88028A
:10218000114B000F185C0902890F491CD368DB034F
:1021900004D50C4A5043FDF7ABFF10BD1268D206C0
:1021A00004D5064A5043FDF7A3FF10BD044A50432F
:1021B000FDF79EFF10BD00000010024000093D0029
:1021C0000024F40000127A00E85B0008F0B583B048
:1021D0000446002C04D1FF215031FDA001F0EAFBA0
:1021E0002068002810D0C1070ED181070CD48106C9
:1021F0000AD4010708D4410706D4C00604D4FF213D
:102200005131F3A001F0D6FB2078FF4EC0076AD011
:10221000052560682D0400280AD0012109048842A0
:1022200006D0A84204D0FF215731E9A001F0C2FB3B
:10223000F0680007800F022807D0F0680007800FC1
:1022400003280BD1F068C00308D5306880034AD555
:102250006068002847D1012003B0F0BD012160680B
:102260000904884203D130680843306015E0A84271
:1022700008D130680122920410433060306808436E
:1022800030600AE030688843306030680840019070
:10229000306801218904884330606068002811D0CB
:1022A000FFF764F80546306880031CD4FFF75EF83A
:1022B000401B642802D9032003B0F0BD30688003BE
:1022C000F4D510E0FFF752F80546306880030AD5D0
:1022D000FFF74CF8401B642802D9032003B0F0BD7F
:1022E00030688003F4D42078800767D5E068002840
:1022F00008D0012806D0092804D0FF218B31B4A0D2
:1023000001F058FB20691F2804D9FF218C31B0A0AF
:1023100001F050FBF0681F270007800F3F020128E3
:1023200007D0F0680007800F032812D1F068C003BF
:102330000FD43068400705D5E068012802D001209D
:1023400003B0F0BD70682169B843090208437060AA
:1023500034E0E06800281CD0316809229143014331
:102360003160FFF703F80546306840070AD4FEF7EE
:10237000FDFF401B022802D9032003B0F0BD3068E6
:102380004007F4D570682169B843090208437060BA
:1023900014E03068400840003060FEF7E7FF054673
:1023A000306840070AD5FEF7E1FF401B022802D93A
:1023B000032003B0F0BD30684007F4D42078C00695
:1023C0007ED5F068914F0007800F1ED0E06900288D
:1023D00005D0012803D08E497DA001F0EBFAE06919
:1023E00000286ED03068FF21013108433060FEF7CD
:1023F000BDFF0546306880057ED4FEF7B7FF401B61
:10240000022876D9032003B0F0BD3068800502D5DC
:10241000E069002833D0206AFF2804D9FF21D63193
:102420006BA001F0C7FA606A00281AD001214903A5
:10243000884216D0B84214D003214903884210D0F4
:102440000121C90388420CD005214903884208D0E4
:1024500003218903884204D0FF21D7315CA001F019
:10246000A9FA606A716807256D032940884216D968
:1024700001F0C4F8002805D0012003B0F0BD012010
:1024800003B0F0BD7068616AA8430843706070686B
:10249000218C0002000A09060843706015E071688B
:1024A000A943014371607068218C0002000A09068B
:1024B00008437060606A01F0A1F8002805D001E0CF
:1024C00063E04CE0012003B0F0BD606A410B491CA1
:1024D0000120C0038840F1684E4A0906090F515C8B
:1024E000C8404D4908600020FEF75EFF4DE003E064
:1024F000FFE73068800580D5206AFF2803D9474967
:1025000033A001F057FA606A002819D0012149036D
:10251000884215D0B84213D00321490388420FD016
:102520000121C90388420BD005214903884207D005
:1025300003218903884203D0394925A001F03AFAE2
:102540007068072149038843616A084370607068B6
:10255000218C0002000A09060843706015E031680A
:10256000FF20013081433160FEF700FF05463068EF
:1025700080050AD5FEF7FAFE401B022802D9032087
:1025800003B0F0BD30688005F4D42078254D0007F5
:1025900065D56069002805D0012803D022490CA028
:1025A00001F008FA6069002844D028690121084335
:1025B0002861FEF7DBFE0746286980074FD4FEF747
:1025C000D5FEC01B022831D9032003B0F0BD0000A6
:1025D0002E2E2F447269766572732F53544D333209
:1025E0004C3078785F48414C5F4472697665722F51
:1025F0005372632F73746D33326C3078785F686117
:102600006C5F7263632E63000010024000400000A4
:1026100002020000D85B00085800002016020000EB
:1026200017020000401002403602000028698007AF
:10263000C5D514E02869400840002861FEF796FEE1
:102640000746286980070AD5FEF790FEC01B0228BE
:1026500002D9032003B0F0BD28698007F4D42078A4
:10266000400771D50027A06800280AD0C11FF9399A
:1026700007D005210902884203D0BA49BA4801F0BF
:1026800099F9B06BC00005D4B16B0120000701437C
:10269000B1630127B5480168C90519D40068FF2155
:1026A00001310843B1490860FEF760FE0290AF486F
:1026B0000068C0050CD4FEF759FE0299401A642840
:1026C00002D9032003B0F0BDA8480068C005F2D5C8
:1026D000FF20A2680130824203D1296901432961A8
:1026E0001BE001218902002A0AD005231B029A421D
:1026F0000DD12A690A432A612969014329610CE045
:102700002A6982432A6128698843286105E02A6989
:1027100082432A61286988432861A068002814D070
:10272000FEF724FE02902869800521D4FEF71EFEE4
:102730000299411A8E48814202D9032003B0F0BDAC
:1027400028698005F2D513E018E0FEF70FFE02902D
:10275000286980050CD5FEF709FE0299411A8448C4
:10276000814202D9032003B0F0BD28698005F2D46C
:10277000012F03D1B16B38078143B1632078800604
:1027800043D5A069002805D0012803D079497648AF
:1027900001F010F9A169784800291CD0B268012124
:1027A0000A43B260726B0A437263016A42141143B6
:1027B0000162FEF7DBFD0546B068800725D4FEF711
:1027C000D5FD401B022802D9032003B0F0BDB0683C
:1027D0008007F4D519E0B16849084900B160016A81
:1027E0000122520391430162FEF7C0FD0546B06825
:1027F00080070AD5FEF7BAFD401B022802D9032044
:1028000003B0F0BDB0688007F4D4A06A002807D0F8
:10281000012805D0022803D05849534801F0CAF8CE
:10282000A06A00287ED0F1680907890F03297AD0B1
:1028300001273F06022810D03068B8433060FEF709
:1028400095FD0446306880016CD5FEF78FFD001BB6
:1028500002287CD9032003B0F0BDE06A002808D02C
:1028600001210904884204D0B72189003E4801F0C3
:10287000A1F8206B002822D00121890488421ED0B3
:10288000490088421BD003218904884217D00121C6
:102890000905884213D00521890488420FD00321FD
:1028A000C90488420BD007218904884207D001213E
:1028B0004905884203D032492B4801F07BF80121B9
:1028C000606B890588420AD04900884207D00321FD
:1028D0008905884203D02B49234801F06BF8306802
:1028E000B8433060FEF742FD0546306880010AD5E6
:1028F000FEF73CFD401B022802D9032003B0F0BDC7
:1029000030688001F4D4216BE06AF2680843616B9F
:10291000FD231B049A4311430843F0603068384399
:10292000306002E017E019E011E0FEF71FFD0446F9
:10293000306880010FD4FEF719FD001B022802D970
:10294000032003B0F0BD30688001F4D503E03068A7
:10295000800100D579E7002003B0F0BD012003B06D
:10296000F0BD000062020000D025000800700040A9
:1029700088130000A902000000000140D3020000FB
:10298000DD020000DE02000070B505460C46052C95
:1029900003D3054905A001F00DF828685030A100C7
:1029A0000818006870BD0000B90500002E2E2F44E5
:1029B0007269766572732F53544D33324C30787888
:1029C0005F48414C5F4472697665722F5372632F82
:1029D00073746D33326C3078785F68616C5F7274D9
:1029E000635F65782E63000070B506460C46154699
:1029F000052C03D3044905A000F0DCFF30685030FB
:102A0000A1000818056070BDA30500002E2E2F44FC
:102A10007269766572732F53544D33324C30787827
:102A20005F48414C5F4472697665722F5372632F21
:102A300073746D33326C3078785F68616C5F727478
:102A4000635F65782E630000F8B504460F461646AE
:102A5000002E0DD0012E0BD0022E09D0032E07D050
:102A6000042E05D0062E03D0454946A000F0A2FF53
:102A70005348874203D9534942A000F09BFF2546A3
:102A800020352878012825D0012028700220687080
:102A90002168CA2048622168532048622068806803
:102AA00040051DD5FEF762FC00902068C068400715
:102AB00016D5FEF75BFC0099411A7D20C0008142CB
:102AC0000AD92168FF20486203206870002028701E
:102AD0000320F8BD0220F8BD2068C0684007E8D494
:102AE00020688268012189028A4382602068C16867
:102AF00080221140344A8918C160FEF737FC0090EB
:102B00002068C068400714D4FEF730FC0099411AD1
:102B10007D20C000814208D92168FF20486203203F
:102B20006870002028700320F8BD2068C068400746
:102B3000EAD52068476120688168C908C9008160BA
:102B400020688168314381602048026801210905BD
:102B50000A43026082680A43826020688168012219
:102B600092031143816020688168121111438160D2
:102B70002168FF2048620120687000202870F8BD9D
:102B8000960400002E2E2F447269766572732F53BF
:102B9000544D33324C3078785F48414C5F44726911
:102BA0007665722F5372632F73746D33326C307885
:102BB000785F68616C5F7274635F65782E63000094
:102BC000FFFF0000970400007FFBFFFF00040140AF
:102BD0007047000010B504462068C068400509D55C
:102BE0002046FFF7F5FF2068C16880221140054AA2
:102BF0008918C16001200449000548610120203482
:102C0000607010BD7FFBFFFF0004014070B50446FB
:102C1000002C54D04E492068884203D0B9214DA0E1
:102C200000F0C8FE6068402805D0002803D0BA2113
:102C300048A000F0BFFEA0687F2803D9BB2145A0B3
:102C400000F0B8FE5149E068884203D9BC2141A098
:102C500000F0B0FE206900280ED00121490588420D
:102C60000AD04900884207D003214905884203D091
:102C7000BD2138A000F09EFE6069002805D0022822
:102C800003D0BE2133A000F095FEA069002807D034
:102C900001210905884203D0BF212EA000F08AFE41
:102CA000E069002805D0012803D0C02129A000F048
:102CB00081FE254620356878002802D006E00120F4
:102CC00070BD00202870204600F064F80220687073
:102CD0002168CA204862216853204862204600F0DB
:102CE000DBFCFF21002805D02068416204206870C9
:102CF000012070BD20688268254B1A4082602068E0
:102D000082686368A6691A43236933431A43826061
:102D10002268E06810612068026923891B041A4355
:102D200002612068C26880239A43C2602068C26C36
:102D300092089200C264E269606902432068C36C31
:102D40001A43C2642068416201206870002070BD8F
:102D5000002800402E2E2F447269766572732F531F
:102D6000544D33324C3078785F48414C5F4472693F
:102D70007665722F5372632F73746D33326C3078B3
:102D8000785F68616C5F7274632E6300FF7F000080
:102D9000BFFF8FFF10B50068084988420DD1084871
:102DA00001690122920411430161002211460220AF
:102DB000FEF730FE0220FEF7FDFD10BD00280040AA
:102DC00040100240F8B505460C461746002F05D0C6
:102DD000012F03D05A495BA000F0ECFD2E462036AF
:102DE0003078012806D00120307002207070002F4A
:102DF00002D008E00220F8BD6078C10603D5EF21BB
:102E000008400A306070207801280FD002280DD0C9
:102E100003280BD0042809D0052807D0062805D0A0
:102E2000072803D0554947A000F0C4FD002F3CD02F
:102E3000E07800F01DFC632804D99B21890041A0A3
:102E400000F0B8FD607800F013FC401E0B2803D999
:102E50004B493CA000F0AEFDA07800F009FC401EFC
:102E60001E2804D92721090136A000F0A3FDE0782F
:102E7000A7780004074360782178000249030843DB
:102E800007432968CA2048622968532048622846B7
:102E900000F002FC002400282FD02968FF2048629F
:102EA0000420707034700120F8BDE078632803D9E5
:102EB000344924A000F07EFD6078401E0B2803D921
:102EC000314920A000F076FDA078401E1E2803D9CD
:102ED0002E491CA000F06EFDE07800F0D1FB070445
:102EE000607800F0CDFB00020743A07800F0C8FB3B
:102EF0000743207840030743C3E725480740286875
:102F000047602868C16880229143C1602868806852
:102F100080060CD4284600F05BF9002807D0296809
:102F2000FF2048620420707034700120F8BD2968C9
:102F3000FF2048620120707034700020F8BD00004E
:102F4000510200002E2E2F447269766572732F5342
:102F5000544D33324C3078785F48414C5F4472694D
:102F60007665722F5372632F73746D33326C3078C1
:102F7000785F68616C5F7274632E63005D020000AD
:102F80006E020000610200006202000063020000A5
:102F90003FFFFF00F8B505460C461746002F06D048
:102FA000012F04D0FF219F317AA000F003FD012101
:102FB000E0684904884209D04910884206D00028B8
:102FC00004D0FF21A03173A000F0F4FC2069002898
:102FD00008D001218904884204D0FF21A1316DA0CD
:102FE00000F0E8FC2E462036307801281FD0012062
:102FF000307002207070002F1BD028688068400657
:103000005AD5207800F034FB401E0B2804D9FF214C
:10301000C13160A000F0CEFCE078002858D04028F4
:1030200056D0FF21C2315BA000F0C4FC50E002206A
:10303000F8BD28688068400613D52078401E0B280C
:1030400004D9FF21AC3153A000F0B4FCE078002893
:1030500011D040280FD0FF21AD314EA000F0AAFCC6
:1030600009E00020E0702078172804D9FF21B23150
:1030700048A000F09FFC60783B2804D9FF21B431C0
:1030800044A000F097FCA0783B2804D9FF21B5317B
:1030900040A000F08FFC207800F0F2FA070460787E
:1030A00000F0EEFA00020743A07800F0E9FA0743C7
:1030B000E0780004074329E00020E070207800F069
:1030C000D7FA172804D9FF21C73132A000F072FCCB
:1030D000607800F0CDFA3B2804D9FF21C9312DA03A
:1030E00000F068FCA07800F0C3FA3B2804D9FF2167
:1030F000CA3128A000F05EFC2078A77800040743BE
:103100006078E17800020904084307432968CA206F
:103110004862296853204862284600F0BDFA00281A
:1031200008D02968FF2048620420707000203070A9
:103130000120F8BD25480740286807602868826894
:10314000012189048A438260E1682069014328687B
:103150008268114381602868C16880229143C16000
:103160002868806880060DD4284600F031F80028D1
:1031700008D02968FF204862042070700020307059
:103180000120F8BD2968FF204862012070700020EE
:103190003070F8BD2E2E2F447269766572732F53EE
:1031A000544D33324C3078785F48414C5F447269FB
:1031B0007665722F5372632F73746D33326C30786F
:1031C000785F68616C5F7274632E63007F7F7F003D
:1031D00070B504462068C168A0229143C160FEF723
:1031E000C5F805462068C06880060CD47D26F60028
:1031F000FEF7BCF8401BB04201D9032070BD206827
:10320000C0688006F4D5002070BD00000248016946
:10321000022211430161704700E000E010B504464E
:10322000042C06D0002C04D0FF212B3107A000F085
:10323000C1FB04211448042C03D002698A430261B3
:1032400010BD02690A43026110BD00002E2E2F44FA
:103250007269766572732F53544D33324C307878DF
:103260005F48414C5F4472697665722F5372632FD9
:1032700073746D33326C3078785F68616C5F636F44
:10328000727465782E63000000E000E07047000073
:1032900010B40B49401E884202D910BC012070476F
:1032A0000849486108480723C2691202120A4C04FF
:1032B0002243C261002088610B6110BC704700008E
:1032C000FFFFFF0000E000E004ED00E010B5FFF7B5
:1032D000DDFF10BD02480169022291430161704780
:1032E00000E000E001490020087070470000002065
:1032F000034802210268D16000680821C16070475C
:103300005C00002070B50446FEF730F805462068E2
:103310008068C04380060FD57D26F600FEF726F8AC
:10332000401BB04203D90120A063032070BD206878
:103330008068C0438006F1D4002070BD10B50848F5
:10334000006841681F225203114341600448FFF79F
:10335000D9FF042296210348FFF776FB10BD000039
:103360005C000020F800002000B583B02548244907
:103370000160002101640122920742608160012204
:10338000C2630261C16001624262C162FF22C23255
:103390008262016304224261416381618163C16190
:1033A000FDF712FB002803D04D2117A000F0F2FA20
:1033B000194800908013019069461248FDF736F9CC
:1033C000002803D0562110A000F0E4FA1348009022
:1033D00069460C48FDF72AF9002803D05E210AA0AF
:1033E00000F0D8FA0E48009069460648FDF71EF92D
:1033F000002803D0662104A000F0CCFA03B000BD81
:1034000000240140980000202E2E2F5372632F615C
:1034100064632E630000000002000004100000102E
:1034200000000244F0B587B02848C26A04210A436C
:10343000C262C26A0A400192C26A80210A43C26221
:10344000C26A0A400192C16A01263143C162C16A5F
:1034500031400191C16A02252943C162C06A2840F6
:1034600001900022E9011A48FDF722FF07204003DE
:103470000290032403940027049702A91548FDF73E
:103480008BFD02940394049702A91348FDF784FD71
:103490001248029003940497052002A90007FDF743
:1034A0007BFDB120800002900394049702A9084894
:1034B000FDF772FDE801029003960495059702A9B5
:1034C0000348FDF769FD07B0F0BD000000100240A1
:1034D0000004005000080050001C0050219E000015
:1034E00010B511480F4901600121C9054160002153
:1034F0008160C16001614161032292028261012207
:103500005202C2617022026241628162C162016341
:10351000FDF75EFF002803D0462104A000F03AFA30
:1035200010BD0000002400405C0000202E2E2F5310
:1035300072632F6C63642E630000000030B587B0A7
:10354000284827490160002444607F218160FF21D1
:10355000C160046144618461C461FFF757FB0028C6
:1035600003D0432120A000F015FA00211D48FFF7E9
:103570000BFA214DA84226D0684604724472847228
:1035800005940694012202A91648FFF703FD0028BE
:1035900003D0502114A000F0FDF901206946087104
:1035A00048718871CC71012201A90E48FFF70AFC0D
:1035B000002803D05A210CA000F0ECF92A46002183
:1035C0000848FFF711FA04221E210648FFF73CFACB
:1035D000002803D0632104A000F0DCF907B030BD5F
:1035E00000280040F80000202E2E2F5372632F7207
:1035F00074632E6300000000F232000070B40021FA
:10360000174BDA681206120F18D19A6B164CD500B8
:10361000144A02D51268224009E09E6B01252D074D
:103620002E439E63126822409E6BAE439E63A2426D
:1036300004D103229203904200D101210B48026879
:10364000520852000A4302600068C007C00F884257
:1036500002D070BC0120704770BC00207047000091
:1036600000100240007000400018000000200240DE
:1036700001090A2251430007000F4018C0B27047E9
:1036800000210A2804D3491C0A38C0B20A28FAD2F9
:103690000907090E0843704770B504462068C168E1
:1036A000490616D40021C943C160FDF75FFE0546F7
:1036B0002068C06840060CD47D26F600FDF756FE53
:1036C000401BB04201D9032070BD2068C06840068D
:1036D000F4D5002070BD000010B50248FFF77AFA5B
:1036E00010BD0000F800002001494000085E70474E
:1036F000D83B000810B5064909884843FCF7A9FDE6
:103700000B21C943FCF799FDFCF7B5FD80B210BD54
:103710004600002070B501460B48048B0B484480DE
:103720000846FCF7A1FD05462046FCF79DFD08492B
:10373000FCF708FD2946FCF742FD0649FCF702FDAF
:10374000FCF799FD80B270BD6000F81F46000020B4
:103750000000404000007A4410B5174C2068816892
:10376000022211438160216803200860FFF7B2FD47
:10377000FCF7B0FE114801680422114301601048B3
:103780000068C168802211400E4A8918C16001207A
:103790000D490005486101210846FEF785F900F052
:1037A00071F8FFF733FDFCF779FE2068816801228C
:1037B0001143816010BD000098000020007000409F
:1037C000F80000207FFBFFFF0004014010B5FDF76B
:1037D000D3FDFFF77BFD10BD30B59DB024480168D7
:1037E0000322D2029143C214891801600A200E906C
:1037F00001241194102012901394002518950EA8FE
:10380000FEF7E4FC002803D0C2211AA000F0C2F8A1
:103810000F2009900A94A0200B900C950D95002183
:1038200009A8FEF723FB002803D0D02111A000F047
:10383000B1F820200090000301906846FEF782F95D
:10384000002803D0D7210BA000F0A4F8FEF774FCE9
:103850007D21C900FCF74CFCFFF71AFD0420FFF79F
:10386000DDFC00221146501EFEF7D4F81DB030BD1D
:10387000007000402E2E2F5372632F6D61696E2EE3
:103880006300000030B59DB0254801680322D202D4
:103890009143C214891801600A200E9001251195E8
:1038A000102012901395002418940EA8FEF78EFC99
:1038B000002803D045211BA000F06CF80F200990D0
:1038C0000A95A0200B900C940D94002109A8FEF7F6
:1038D000CDFA002803D0532112A000F05BF821207C
:1038E000009003940120400401906846FEF72AF9F5
:1038F000002803D05B210BA000F04CF8FEF71CFC65
:103900007D21C900FCF7F4FBFFF7C2FC0420FFF7A0
:1039100085FC00221146501EFEF77CF81DB030BD1C
:10392000007000402E2E5C5372635C4C6F77506FBA
:103930007765724D616E6167656D656E742E6300AB
:1039400010480168821511430160C1680E4A114098
:10395000C16001680D4A1140016081684908490051
:10396000816001680122920491430160C168FD22D7
:1039700012049143C160002101610549C0038860C0
:1039800070470000001002400C40FF88F6FFF6FE72
:1039900000ED00E0FEE702E008C8121F08C1002A9F
:1039A000FAD170477047002001E001C1121F002AC0
:1039B000FBD1704770470000F8B5044620460A382E
:1039C000384E394D5A2810D20A212046FCF7A6FB62
:1039D00089B2698080B2A880420009313348490029
:1039E000715A805A0818288145E00A2C06D2A0B2E4
:1039F000688009304000305A28813CE02046093078
:103A0000092809D26000201A80B268800921081AAA
:103A10004000305A28812EE020466438642820D2A5
:103A20000A212046FCF77AFB8FB26F8080B2A88013
:103A30000A2803D30A21FCF75BFBA98064212046F6
:103A4000FCF76CFB80B2E88009377900725AA988CC
:103A500040004B001549CB5A085AD218101828813B
:103A600009E0C82C02DA0A20C44204DC0F48718C39
:103A7000008A081828812B892A7800210C48FDF734
:103A8000F9FE002803D08A210AA0FFF783FF084827
:103A9000FDF7C4FE002803D08B2106A0FFF77AFFB4
:103AA000F8BD00000C0000200200002032000020C1
:103AB0005C0000202E2E5C5372635C4C63644D618D
:103AC0006E6167656D656E742E630000FDF75CFCCA
:103AD000FFF782FEFFF7A6FCFFF746FCFFF700FDAD
:103AE000FFF72CFDFF21002201312D48FDF7E0FBFF
:103AF000FFF7F8FB0120FDF743FA2A480068416808
:103B000007229202114341602648FFF7FBFB012088
:103B1000FDF736FA5820FFF74FFFFF20F530FDF78D
:103B20002FFA00212048FCF701FD002803D079215D
:103B30001EA0FFF72FFF214C214E0227214D2BE025
:103B40001948FDF7B1F9002803D0882117A0FFF725
:103B500021FF377020E001281ED11B480088FFF7A5
:103B6000D9FD1A4908801A480088FFF7C3FD28804C
:103B700018480088FFF7B8FD208029884B20C00036
:103B8000814201D8FFF7DAFB0020205EFFF714FF27
:103B900000203070FFF7E0FD30780028DBD1CFE760
:103BA000000400505C000020980000202E2E2F53AF
:103BB00072632F6D61696E2E630000004C0000205F
:103BC000000000204A000020520000204600002093
:103BD0004E000020500000203B011001E500CF0006
:103BE000C100B600AE00A700A1009C0098009400A0
:103BF00091008E008B0088008600840081007F0089
:103C00007E007C007A0079007700760074007300F3
:103C10007200710070006E006D006C006B006A0035
:103C20006A0069006800670066006500650064005E
:103C30006300620062006100600060005F005F007E
:103C40005E005D005D005C005C005B005B005A0094
:103C50005A005900590058005800570057005600A4
:103C600056005500550055005400540053005300B1
:103C700053005200520052005100510050005000B9
:103C800050004F004F004F004E004E004E004D00C0
:103C90004D004D004D004C004C004C004B004B00C3
:103CA0004B004B004A004A004A00490049004900C5
:103CB00049004800480048004800470047004700C6
:103CC00047004700460046004600460045004500C4
:103CD00045004500450044004400440044004300C2
:103CE00043004300430043004200420042004200C0
:103CF00042004100410041004100410041004000BC
:103D000040004000400040003F003F003F003F00B7
:103D10003F003F003E003E003E003E003E003E00B1
:103D20003D003D003D003D003D003D003D003C00AC
:103D30003C003C003C003C003C003C003B003B00A5
:103D40003B003B003B003B003A003A003A003A009F
:103D50003A003A003A003A00390039003900390097
:103D60003900390039003800380038003800380090
:103D70003800380038003700370037003700370088
:103D8000370037003700370036003600360036007F
:103D90003600360036003600350035003500350077
:103DA000350035003500350035003400340034006E
:103DB0003400340034003400340034003400330064
:103DC000330033003300330033003300330033005B
:103DD0003300320032003200320032003200320052
:103DE0003200320032003100310031003100310048
:103DF000310031003100310031003100300030003D
:103E00003000300030003000300030003000300032
:103E100030002F002F002F002F002F002F002F0029
:103E20002F002F002F002F002E002E002E002E001E
:103E30002E002E002E002E002E002E002E002E0012
:103E40002E002D002D002D002D002D002D002D0009
:103E50002D002D002D002D002D002C002C002C00FD
:103E60002C002C002C002C002C002C002C002C00F2
:103E70002C002C002C002B002B002B002B002B00E7
:103E80002B002B002B002B002B002B002B002B00DA
:103E90002B002A002A002A002A002A002A002A00D1
:103EA0002A002A002A002A002A002A002A002900C3
:103EB00029002900290029002900290029002900BA
:103EC00029002900290029002900290029002800AB
:103ED00028002800280028002800280028002800A2
:103EE0002800280028002800280028002700270094
:103EF000270027002700270027002700270027008A
:103F0000270027002700270027002700270026007A
:103F10002600260026002600260026002600260071
:103F20002600260026002600260026002600260061
:103F30002500250025002500250025002500250059
:103F40002500250025002500250025002500250049
:103F5000250025002400240024002400240024003F
:103F60002400240024002400240024002400240031
:103F70002400240024002400240023002300230024
:103F80002300230023002300230023002300230019
:103F90002300230023002300230023002300230009
:103FA0002300220022002200220022002200220000
:103FB00022002200220022002200220022002200F1
:103FC00022002200220022002200210021002100E4
:103FD00021002100210021002100210021002100D9
:103FE00021002100210021002100210021002100C9
:103FF00021002100210020002000200020002000BE
:1040000020002000200020002000200020002000B0
:1040100020002000200020002000200020002000A0
:1040200020001F001F001F001F001F001F001F0097
:104030001F001F001F001F001F001F001F001F0088
:104040001F001F001F001F001F001F001F001F0078
:104050001F001E001E001E001E001E001E001E006F
:104060001E001E001E001E001E001E001E001E0060
:104070001E001E001E001E001E001E001E001E0050
:104080001E001D001D001D001D001D001D001D0047
:104090001D001D001D001D001D001D001D001D0038
:1040A0001D001D001D001D001D001D001D001D0028
:1040B0001D001D001C001C001C001C001C001C001E
:1040C0001C001C001C001C001C001C001C001C0010
:1040D0001C001C001C001C001C001C001C001C0000
:1040E0001C001C001C001C001B001B001B001B00F4
:1040F0001B001B001B001B001B001B001B001B00E8
:104100001B001B001B001B001B001B001B001B00D7
:104110001B001B001B001B001B001B001B001B00C7
:104120001A001A001A001A001A001A001A001A00BF
:104130001A001A001A001A001A001A001A001A00AF
:104140001A001A001A001A001A001A001A001A009F
:104150001A001A001A001A00190019001900190093
:104160001900190019001900190019001900190087
:104170001900190019001900190019001900190077
:104180001900190019001900190019001900190067
:10419000190019001800180018001800180018005D
:1041A000180018001800180018001800180018004F
:1041B000180018001800180018001800180018003F
:1041C000180018001800180018001800180018002F
:1041D0001800170017001700170017001700170026
:1041E0001700170017001700170017001700170017
:1041F0001700170017001700170017001700170007
:1042000017001700170017001700170017001700F6
:1042100017001600160016001600160016001600ED
:1042200016001600160016001600160016001600DE
:1042300016001600160016001600160016001600CE
:1042400016001600160016001600160016001600BE
:1042500016001600150015001500150015001500B4
:1042600015001500150015001500150015001500A6
:104270001500150015001500150015001500150096
:104280001500150015001500150015001500150086
:104290001500150015001500150014001400140079
:1042A000140014001400140014001400140014006E
:1042B000140014001400140014001400140014005E
:1042C000140014001400140014001400140014004E
:1042D000140014001400140014001400140014003E
:1042E0001400130013001300130013001300130035
:1042F0001300130013001300130013001300130026
:104300001300130013001300130013001300130015
:104310001300130013001300130013001300130005
:1043200013001300130013001300130012001200F7
:1043300012001200120012001200120012001200ED
:1043400012001200120012001200120012001200DD
:1043500012001200120012001200120012001200CD
:1043600012001200120012001200120012001200BD
:1043700012001200120012001200110011001100B0
:1043800011001100110011001100110011001100A5
:104390001100110011001100110011001100110095
:1043A0001100110011001100110011001100110085
:1043B0001100110011001100110011001100110075
:1043C0001100110011001100100010001000100069
:1043D000100010001000100010001000100010005D
:1043E000100010001000100010001000100010004D
:1043F000100010001000100010001000100010003D
:10440000100010001000100010001000100010002C
:104410001000100010001000100010000F000F001E
:104420000F000F000F000F000F000F000F000F0014
:104430000F000F000F000F000F000F000F000F0004
:104440000F000F000F000F000F000F000F000F00F4
:104450000F000F000F000F000F000F000F000F00E4
:104460000F000F000F000F000F000F000F000F00D4
:104470000E000E000E000E000E000E000E000E00CC
:104480000E000E000E000E000E000E000E000E00BC
:104490000E000E000E000E000E000E000E000E00AC
:1044A0000E000E000E000E000E000E000E000E009C
:1044B0000E000E000E000E000E000E000E000E008C
:1044C0000E000E000E000E000D000D000D000D0080
:1044D0000D000D000D000D000D000D000D000D0074
:1044E0000D000D000D000D000D000D000D000D0064
:1044F0000D000D000D000D000D000D000D000D0054
:104500000D000D000D000D000D000D000D000D0043
:104510000D000D000D000D000D000D000D000D0033
:104520000D000D000C000C000C000C000C000C0029
:104530000C000C000C000C000C000C000C000C001B
:104540000C000C000C000C000C000C000C000C000B
:104550000C000C000C000C000C000C000C000C00FB
:104560000C000C000C000C000C000C000C000C00EB
:104570000C000C000C000C000C000C000C000C00DB
:104580000C000B000B000B000B000B000B000B00D2
:104590000B000B000B000B000B000B000B000B00C3
:1045A0000B000B000B000B000B000B000B000B00B3
:1045B0000B000B000B000B000B000B000B000B00A3
:1045C0000B000B000B000B000B000B000B000B0093
:1045D0000B000B000B000B000B000B000B000B0083
:1045E0000B000A000A000A000A000A000A000A007A
:1045F0000A000A000A000A000A000A000A000A006B
:104600000A000A000A000A000A000A000A000A005A
:104610000A000A000A000A000A000A000A000A004A
:104620000A000A000A000A000A000A000A000A003A
:104630000A000A000A000A000A000A000A000A002A
:104640000A000A0009000900090009000900090020
:104650000900090009000900090009000900090012
:104660000900090009000900090009000900090002
:1046700009000900090009000900090009000900F2
:1046800009000900090009000900090009000900E2
:1046900009000900090009000900090009000900D2
:1046A00009000900090009000900080008000800C5
:1046B00008000800080008000800080008000800BA
:1046C00008000800080008000800080008000800AA
:1046D000080008000800080008000800080008009A
:1046E000080008000800080008000800080008008A
:1046F000080008000800080008000800080008007A
:104700000800080008000800080008000800080069
:104710000800070007000700070007000700070060
:104720000700070007000700070007000700070051
:104730000700070007000700070007000700070041
:104740000700070007000700070007000700070031
:104750000700070007000700070007000700070021
:104760000700070007000700070007000700070011
:104770000700070007000700070007000600060003
:1047800006000600060006000600060006000600F9
:1047900006000600060006000600060006000600E9
:1047A00006000600060006000600060006000600D9
:1047B00006000600060006000600060006000600C9
:1047C00006000600060006000600060006000600B9
:1047D00006000600060006000600060006000600A9
:1047E000060006000600060006000500050005009C
:1047F0000500050005000500050005000500050091
:104800000500050005000500050005000500050080
:104810000500050005000500050005000500050070
:104820000500050005000500050005000500050060
:104830000500050005000500050005000500050050
:104840000500050005000500050005000500050040
:104850000500050005000500050004000400040033
:104860000400040004000400040004000400040028
:104870000400040004000400040004000400040018
:104880000400040004000400040004000400040008
:1048900004000400040004000400040004000400F8
:1048A00004000400040004000400040004000400E8
:1048B00004000400040004000400040004000400D8
:1048C00004000400040004000400040003000300CA
:1048D00003000300030003000300030003000300C0
:1048E00003000300030003000300030003000300B0
:1048F00003000300030003000300030003000300A0
:10490000030003000300030003000300030003008F
:10491000030003000300030003000300030003007F
:10492000030003000300030003000300030003006F
:10493000030003000300030003000300030003005F
:104940000200020002000200020002000200020057
:104950000200020002000200020002000200020047
:104960000200020002000200020002000200020037
:104970000200020002000200020002000200020027
:104980000200020002000200020002000200020017
:104990000200020002000200020002000200020007
:1049A00002000200020002000200020002000200F7
:1049B00002000200020001000100010001000100EC
:1049C00001000100010001000100010001000100DF
:1049D00001000100010001000100010001000100CF
:1049E00001000100010001000100010001000100BF
:1049F00001000100010001000100010001000100AF
:104A0000010001000100010001000100010001009E
:104A1000010001000100010001000100010001008E
:104A20000100010001000100010001000000000080
:104A30000000000000000000000000000000000076
:104A40000000000000000000000000000000000066
:104A50000000000000000000000000000000000056
:104A60000000000000000000000000000000000046
:104A70000000000000000000000000000000000036
:104A80000000000000000000000000000000000026
:104A90000000000000000000000000000000000016
:104AA000000000000000FFFFFFFFFFFFFFFFFFFF10
:104AB000FFFFFFFFFFFFFFFFFFFFFFFFFFFFFFFF06
:104AC000FFFFFFFFFFFFFFFFFFFFFFFFFFFFFFFFF6
:104AD000FFFFFFFFFFFFFFFFFFFFFFFFFFFFFFFFE6
:104AE000FFFFFFFFFFFFFFFFFFFFFFFFFFFFFFFFD6
:104AF000FFFFFFFFFFFFFFFFFFFFFFFFFFFFFFFFC6
:104B0000FFFFFFFFFFFFFFFFFFFFFFFFFFFFFFFFB5
:104B1000FFFFFFFFFFFFFFFFFFFFFFFFFFFFFFFFA5
:104B2000FEFFFEFFFEFFFEFFFEFFFEFFFEFFFEFF9D
:104B3000FEFFFEFFFEFFFEFFFEFFFEFFFEFFFEFF8D
:104B4000FEFFFEFFFEFFFEFFFEFFFEFFFEFFFEFF7D
:104B5000FEFFFEFFFEFFFEFFFEFFFEFFFEFFFEFF6D
:104B6000FEFFFEFFFEFFFEFFFEFFFEFFFEFFFEFF5D
:104B7000FEFFFEFFFEFFFEFFFEFFFEFFFEFFFEFF4D
:104B8000FEFFFEFFFEFFFEFFFEFFFEFFFEFFFEFF3D
:104B9000FEFFFEFFFEFFFEFFFEFFFEFFFDFFFDFF2F
:104BA000FDFFFDFFFDFFFDFFFDFFFDFFFDFFFDFF25
:104BB000FDFFFDFFFDFFFDFFFDFFFDFFFDFFFDFF15
:104BC000FDFFFDFFFDFFFDFFFDFFFDFFFDFFFDFF05
:104BD000FDFFFDFFFDFFFDFFFDFFFDFFFDFFFDFFF5
:104BE000FDFFFDFFFDFFFDFFFDFFFDFFFDFFFDFFE5
:104BF000FDFFFDFFFDFFFDFFFDFFFDFFFDFFFDFFD5
:104C0000FDFFFDFFFDFFFDFFFDFFFDFFFDFFFDFFC4
:104C1000FDFFFDFFFDFFFDFFFDFFFCFFFCFFFCFFB7
:104C2000FCFFFCFFFCFFFCFFFCFFFCFFFCFFFCFFAC
:104C3000FCFFFCFFFCFFFCFFFCFFFCFFFCFFFCFF9C
:104C4000FCFFFCFFFCFFFCFFFCFFFCFFFCFFFCFF8C
:104C5000FCFFFCFFFCFFFCFFFCFFFCFFFCFFFCFF7C
:104C6000FCFFFCFFFCFFFCFFFCFFFCFFFCFFFCFF6C
:104C7000FCFFFCFFFCFFFCFFFCFFFCFFFCFFFCFF5C
:104C8000FCFFFCFFFCFFFCFFFCFFFCFFFCFFFCFF4C
:104C9000FCFFFCFFFCFFFCFFFBFFFBFFFBFFFBFF40
:104CA000FBFFFBFFFBFFFBFFFBFFFBFFFBFFFBFF34
:104CB000FBFFFBFFFBFFFBFFFBFFFBFFFBFFFBFF24
:104CC000FBFFFBFFFBFFFBFFFBFFFBFFFBFFFBFF14
:104CD000FBFFFBFFFBFFFBFFFBFFFBFFFBFFFBFF04
:104CE000FBFFFBFFFBFFFBFFFBFFFBFFFBFFFBFFF4
:104CF000FBFFFBFFFBFFFBFFFBFFFBFFFBFFFBFFE4
:104D0000FBFFFBFFFBFFFBFFFBFFFBFFFBFFFBFFD3
:104D1000FBFFFBFFFBFFFAFFFAFFFAFFFAFFFAFFC8
:104D2000FAFFFAFFFAFFFAFFFAFFFAFFFAFFFAFFBB
:104D3000FAFFFAFFFAFFFAFFFAFFFAFFFAFFFAFFAB
:104D4000FAFFFAFFFAFFFAFFFAFFFAFFFAFFFAFF9B
:104D5000FAFFFAFFFAFFFAFFFAFFFAFFFAFFFAFF8B
:104D6000FAFFFAFFFAFFFAFFFAFFFAFFFAFFFAFF7B
:104D7000FAFFFAFFFAFFFAFFFAFFFAFFFAFFFAFF6B
:104D8000FAFFFAFFFAFFFAFFFAFFFAFFFAFFFAFF5B
:104D9000FAFFFAFFF9FFF9FFF9FFF9FFF9FFF9FF51
:104DA000F9FFF9FFF9FFF9FFF9FFF9FFF9FFF9FF43
:104DB000F9FFF9FFF9FFF9FFF9FFF9FFF9FFF9FF33
:104DC000F9FFF9FFF9FFF9FFF9FFF9FFF9FFF9FF23
:104DD000F9FFF9FFF9FFF9FFF9FFF9FFF9FFF9FF13
:104DE000F9FFF9FFF9FFF9FFF9FFF9FFF9FFF9FF03
:104DF000F9FFF9FFF9FFF9FFF9FFF9FFF9FFF9FFF3
:104E0000F9FFF9FFF9FFF9FFF9FFF9FFF9FFF9FFE2
:104E1000F9FFF9FFF8FFF8FFF8FFF8FFF8FFF8FFD8
:104E2000F8FFF8FFF8FFF8FFF8FFF8FFF8FFF8FFCA
:104E3000F8FFF8FFF8FFF8FFF8FFF8FFF8FFF8FFBA
:104E4000F8FFF8FFF8FFF8FFF8FFF8FFF8FFF8FFAA
:104E5000F8FFF8FFF8FFF8FFF8FFF8FFF8FFF8FF9A
:104E6000F8FFF8FFF8FFF8FFF8FFF8FFF8FFF8FF8A
:104E7000F8FFF8FFF8FFF8FFF8FFF8FFF8FFF8FF7A
:104E8000F8FFF8FFF8FFF8FFF8FFF8FFF8FFF8FF6A
:104E9000F8FFF7FFF7FFF7FFF7FFF7FFF7FFF7FF61
:104EA000F7FFF7FFF7FFF7FFF7FFF7FFF7FFF7FF52
:104EB000F7FFF7FFF7FFF7FFF7FFF7FFF7FFF7FF42
:104EC000F7FFF7FFF7FFF7FFF7FFF7FFF7FFF7FF32
:104ED000F7FFF7FFF7FFF7FFF7FFF7FFF7FFF7FF22
:104EE000F7FFF7FFF7FFF7FFF7FFF7FFF7FFF7FF12
:104EF000F7FFF7FFF7FFF7FFF7FFF7FFF7FFF7FF02
:104F0000F7FFF7FFF7FFF7FFF7FFF7FFF7FFF7FFF1
:104F1000F6FFF6FFF6FFF6FFF6FFF6FFF6FFF6FFE9
:104F2000F6FFF6FFF6FFF6FFF6FFF6FFF6FFF6FFD9
:104F3000F6FFF6FFF6FFF6FFF6FFF6FFF6FFF6FFC9
:104F4000F6FFF6FFF6FFF6FFF6FFF6FFF6FFF6FFB9
:104F5000F6FFF6FFF6FFF6FFF6FFF6FFF6FFF6FFA9
:104F6000F6FFF6FFF6FFF6FFF6FFF6FFF6FFF6FF99
:104F7000F6FFF6FFF6FFF6FFF6FFF6FFF6FFF6FF89
:104F8000F6FFF6FFF6FFF6FFF6FFF6FFF6FFF5FF7A
:104F9000F5FFF5FFF5FFF5FFF5FFF5FFF5FFF5FF71
:104FA000F5FFF5FFF5FFF5FFF5FFF5FFF5FFF5FF61
:104FB000F5FFF5FFF5FFF5FFF5FFF5FFF5FFF5FF51
:104FC000F5FFF5FFF5FFF5FFF5FFF5FFF5FFF5FF41
:104FD000F5FFF5FFF5FFF5FFF5FFF5FFF5FFF5FF31
:104FE000F5FFF5FFF5FFF5FFF5FFF5FFF5FFF5FF21
:104FF000F5FFF5FFF5FFF5FFF5FFF5FFF5FFF5FF11
:10500000F5FFF5FFF5FFF5FFF5FFF4FFF4FFF4FF03
:10501000F4FFF4FFF4FFF4FFF4FFF4FFF4FFF4FFF8
:10502000F4FFF4FFF4FFF4FFF4FFF4FFF4FFF4FFE8
:10503000F4FFF4FFF4FFF4FFF4FFF4FFF4FFF4FFD8
:10504000F4FFF4FFF4FFF4FFF4FFF4FFF4FFF4FFC8
:10505000F4FFF4FFF4FFF4FFF4FFF4FFF4FFF4FFB8
:10506000F4FFF4FFF4FFF4FFF4FFF4FFF4FFF4FFA8
:10507000F4FFF4FFF4FFF4FFF4FFF4FFF4FFF4FF98
:10508000F4FFF4FFF4FFF3FFF3FFF3FFF3FFF3FF8D
:10509000F3FFF3FFF3FFF3FFF3FFF3FFF3FFF3FF80
:1050A000F3FFF3FFF3FFF3FFF3FFF3FFF3FFF3FF70
:1050B000F3FFF3FFF3FFF3FFF3FFF3FFF3FFF3FF60
:1050C000F3FFF3FFF3FFF3FFF3FFF3FFF3FFF3FF50
:1050D000F3FFF3FFF3FFF3FFF3FFF3FFF3FFF3FF40
:1050E000F3FFF3FFF3FFF3FFF3FFF3FFF3FFF3FF30
:1050F000F3FFF3FFF3FFF3FFF3FFF3FFF3FFF3FF20
:10510000F2FFF2FFF2FFF2FFF2FFF2FFF2FFF2FF17
:10511000F2FFF2FFF2FFF2FFF2FFF2FFF2FFF2FF07
:10512000F2FFF2FFF2FFF2FFF2FFF2FFF2FFF2FFF7
:10513000F2FFF2FFF2FFF2FFF2FFF2FFF2FFF2FFE7
:10514000F2FFF2FFF2FFF2FFF2FFF2FFF2FFF2FFD7
:10515000F2FFF2FFF2FFF2FFF2FFF2FFF2FFF2FFC7
:10516000F2FFF2FFF2FFF2FFF2FFF2FFF2FFF2FFB7
:10517000F2FFF2FFF2FFF2FFF1FFF1FFF1FFF1FFAB
:10518000F1FFF1FFF1FFF1FFF1FFF1FFF1FFF1FF9F
:10519000F1FFF1FFF1FFF1FFF1FFF1FFF1FFF1FF8F
:1051A000F1FFF1FFF1FFF1FFF1FFF1FFF1FFF1FF7F
:1051B000F1FFF1FFF1FFF1FFF1FFF1FFF1FFF1FF6F
:1051C000F1FFF1FFF1FFF1FFF1FFF1FFF1FFF1FF5F
:1051D000F1FFF1FFF1FFF1FFF1FFF1FFF1FFF1FF4F
:1051E000F1FFF1FFF1FFF1FFF1FFF1FFF1FFF1FF3F
:1051F000F0FFF0FFF0FFF0FFF0FFF0FFF0FFF0FF37
:10520000F0FFF0FFF0FFF0FFF0FFF0FFF0FFF0FF26
:10521000F0FFF0FFF0FFF0FFF0FFF0FFF0FFF0FF16
:10522000F0FFF0FFF0FFF0FFF0FFF0FFF0FFF0FF06
:10523000F0FFF0FFF0FFF0FFF0FFF0FFF0FFF0FFF6
:10524000F0FFF0FFF0FFF0FFF0FFF0FFF0FFF0FFE6
:10525000F0FFF0FFF0FFF0FFF0FFF0FFF0FFF0FFD6
:10526000F0FFF0FFEFFFEFFFEFFFEFFFEFFFEFFFCC
:10527000EFFFEFFFEFFFEFFFEFFFEFFFEFFFEFFFBE
:10528000EFFFEFFFEFFFEFFFEFFFEFFFEFFFEFFFAE
:10529000EFFFEFFFEFFFEFFFEFFFEFFFEFFFEFFF9E
:1052A000EFFFEFFFEFFFEFFFEFFFEFFFEFFFEFFF8E
:1052B000EFFFEFFFEFFFEFFFEFFFEFFFEFFFEFFF7E
:1052C000EFFFEFFFEFFFEFFFEFFFEFFFEFFFEFFF6E
:1052D000EFFFEFFFEFFFEEFFEEFFEEFFEEFFEEFF63
:1052E000EEFFEEFFEEFFEEFFEEFFEEFFEEFFEEFF56
:1052F000EEFFEEFFEEFFEEFFEEFFEEFFEEFFEEFF46
:10530000EEFFEEFFEEFFEEFFEEFFEEFFEEFFEEFF35
:10531000EEFFEEFFEEFFEEFFEEFFEEFFEEFFEEFF25
:10532000EEFFEEFFEEFFEEFFEEFFEEFFEEFFEEFF15
:10533000EEFFEEFFEEFFEEFFEEFFEEFFEEFFEEFF05
:10534000EEFFEEFFEEFFEDFFEDFFEDFFEDFFEDFFFA
:10535000EDFFEDFFEDFFEDFFEDFFEDFFEDFFEDFFED
:10536000EDFFEDFFEDFFEDFFEDFFEDFFEDFFEDFFDD
:10537000EDFFEDFFEDFFEDFFEDFFEDFFEDFFEDFFCD
:10538000EDFFEDFFEDFFEDFFEDFFEDFFEDFFEDFFBD
:10539000EDFFEDFFEDFFEDFFEDFFEDFFEDFFEDFFAD
:1053A000EDFFEDFFEDFFEDFFEDFFEDFFEDFFEDFF9D
:1053B000EDFFECFFECFFECFFECFFECFFECFFECFF94
:1053C000ECFFECFFECFFECFFECFFECFFECFFECFF85
:1053D000ECFFECFFECFFECFFECFFECFFECFFECFF75
:1053E000ECFFECFFECFFECFFECFFECFFECFFECFF65
:1053F000ECFFECFFECFFECFFECFFECFFECFFECFF55
:10540000ECFFECFFECFFECFFECFFECFFECFFECFF44
:10541000ECFFECFFECFFECFFECFFECFFEBFFEBFF36
:10542000EBFFEBFFEBFFEBFFEBFFEBFFEBFFEBFF2C
:10543000EBFFEBFFEBFFEBFFEBFFEBFFEBFFEBFF1C
:10544000EBFFEBFFEBFFEBFFEBFFEBFFEBFFEBFF0C
:10545000EBFFEBFFEBFFEBFFEBFFEBFFEBFFEBFFFC
:10546000EBFFEBFFEBFFEBFFEBFFEBFFEBFFEBFFEC
:10547000EBFFEBFFEBFFEBFFEBFFEBFFEBFFEBFFDC
:10548000EBFFEBFFEAFFEAFFEAFFEAFFEAFFEAFFD2
:10549000EAFFEAFFEAFFEAFFEAFFEAFFEAFFEAFFC4
:1054A000EAFFEAFFEAFFEAFFEAFFEAFFEAFFEAFFB4
:1054B000EAFFEAFFEAFFEAFFEAFFEAFFEAFFEAFFA4
:1054C000EAFFEAFFEAFFEAFFEAFFEAFFEAFFEAFF94
:1054D000EAFFEAFFEAFFEAFFEAFFEAFFEAFFEAFF84
:1054E000EAFFEAFFEAFFEAFFE9FFE9FFE9FFE9FF78
:1054F000E9FFE9FFE9FFE9FFE9FFE9FFE9FFE9FF6C
:10550000E9FFE9FFE9FFE9FFE9FFE9FFE9FFE9FF5B
:10551000E9FFE9FFE9FFE9FFE9FFE9FFE9FFE9FF4B
:10552000E9FFE9FFE9FFE9FFE9FFE9FFE9FFE9FF3B
:10553000E9FFE9FFE9FFE9FFE9FFE9FFE9FFE9FF2B
:10554000E9FFE9FFE9FFE9FFE9FFE8FFE8FFE8FF1E
:10555000E8FFE8FFE8FFE8FFE8FFE8FFE8FFE8FF13
:10556000E8FFE8FFE8FFE8FFE8FFE8FFE8FFE8FF03
:10557000E8FFE8FFE8FFE8FFE8FFE8FFE8FFE8FFF3
:10558000E8FFE8FFE8FFE8FFE8FFE8FFE8FFE8FFE3
:10559000E8FFE8FFE8FFE8FFE8FFE8FFE8FFE8FFD3
:1055A000E8FFE8FFE8FFE8FFE7FFE7FFE7FFE7FFC7
:1055B000E7FFE7FFE7FFE7FFE7FFE7FFE7FFE7FFBB
:1055C000E7FFE7FFE7FFE7FFE7FFE7FFE7FFE7FFAB
:1055D000E7FFE7FFE7FFE7FFE7FFE7FFE7FFE7FF9B
:1055E000E7FFE7FFE7FFE7FFE7FFE7FFE7FFE7FF8B
:1055F000E7FFE7FFE7FFE7FFE7FFE7FFE7FFE7FF7B
:10560000E7FFE6FFE6FFE6FFE6FFE6FFE6FFE6FF71
:10561000E6FFE6FFE6FFE6FFE6FFE6FFE6FFE6FF62
:10562000E6FFE6FFE6FFE6FFE6FFE6FFE6FFE6FF52
:10563000E6FFE6FFE6FFE6FFE6FFE6FFE6FFE6FF42
:10564000E6FFE6FFE6FFE6FFE6FFE6FFE6FFE6FF32
:10565000E6FFE6FFE6FFE6FFE5FFE5FFE5FFE5FF26
:10566000E5FFE5FFE5FFE5FFE5FFE5FFE5FFE5FF1A
:10567000E5FFE5FFE5FFE5FFE5FFE5FFE5FFE5FF0A
:10568000E5FFE5FFE5FFE5FFE5FFE5FFE5FFE5FFFA
:10569000E5FFE5FFE5FFE5FFE5FFE5FFE5FFE5FFEA
:1056A000E5FFE5FFE5FFE5FFE5FFE5FFE4FFE4FFDC
:1056B000E4FFE4FFE4FFE4FFE4FFE4FFE4FFE4FFD2
:1056C000E4FFE4FFE4FFE4FFE4FFE4FFE4FFE4FFC2
:1056D000E4FFE4FFE4FFE4FFE4FFE4FFE4FFE4FFB2
:1056E000E4FFE4FFE4FFE4FFE4FFE4FFE4FFE4FFA2
:1056F000E4FFE4FFE4FFE4FFE4FFE4FFE3FFE3FF94
:10570000E3FFE3FFE3FFE3FFE3FFE3FFE3FFE3FF89
:10571000E3FFE3FFE3FFE3FFE3FFE3FFE3FFE3FF79
:10572000E3FFE3FFE3FFE3FFE3FFE3FFE3FFE3FF69
:10573000E3FFE3FFE3FFE3FFE3FFE3FFE3FFE3FF59
:10574000E3FFE3FFE3FFE3FFE3FFE2FFE2FFE2FF4C
:10575000E2FFE2FFE2FFE2FFE2FFE2FFE2FFE2FF41
:10576000E2FFE2FFE2FFE2FFE2FFE2FFE2FFE2FF31
:10577000E2FFE2FFE2FFE2FFE2FFE2FFE2FFE2FF21
:10578000E2FFE2FFE2FFE2FFE2FFE2FFE2FFE2FF11
:10579000E2FFE2FFE1FFE1FFE1FFE1FFE1FFE1FF07
:1057A000E1FFE1FFE1FFE1FFE1FFE1FFE1FFE1FFF9
:1057B000E1FFE1FFE1FFE1FFE1FFE1FFE1FFE1FFE9
:1057C000E1FFE1FFE1FFE1FFE1FFE1FFE1FFE1FFD9
:1057D000E1FFE1FFE1FFE1FFE1FFE0FFE0FFE0FFCC
:1057E000E0FFE0FFE0FFE0FFE0FFE0FFE0FFE0FFC1
:1057F000E0FFE0FFE0FFE0FFE0FFE0FFE0FFE0FFB1
:10580000E0FFE0FFE0FFE0FFE0FFE0FFE0FFE0FFA0
:10581000E0FFE0FFE0FFE0FFE0FFE0FFDFFFDFFF92
:10582000DFFFDFFFDFFFDFFFDFFFDFFFDFFFDFFF88
:10583000DFFFDFFFDFFFDFFFDFFFDFFFDFFFDFFF78
:10584000DFFFDFFFDFFFDFFFDFFFDFFFDFFFDFFF68
:10585000DFFFDFFFDFFFDFFFDFFFDFFFDEFFDEFF5A
:10586000DEFFDEFFDEFFDEFFDEFFDEFFDEFFDEFF50
:10587000DEFFDEFFDEFFDEFFDEFFDEFFDEFFDEFF40
:10588000DEFFDEFFDEFFDEFFDEFFDEFFDEFFDEFF30
:10589000DEFFDEFFDEFFDEFFDDFFDDFFDDFFDDFF24
:1058A000DDFFDDFFDDFFDDFFDDFFDDFFDDFFDDFF18
:1058B000DDFFDDFFDDFFDDFFDDFFDDFFDDFFDDFF08
:1058C000DDFFDDFFDDFFDDFFDDFFDDFFDDFFDDFFF8
:1058D000DCFFDCFFDCFFDCFFDCFFDCFFDCFFDCFFF0
:1058E000DCFFDCFFDCFFDCFFDCFFDCFFDCFFDCFFE0
:1058F000DCFFDCFFDCFFDCFFDCFFDCFFDCFFDCFFD0
:10590000DCFFDCFFDCFFDBFFDBFFDBFFDBFFDBFFC4
:10591000DBFFDBFFDBFFDBFFDBFFDBFFDBFFDBFFB7
:10592000DBFFDBFFDBFFDBFFDBFFDBFFDBFFDBFFA7
:10593000DBFFDBFFDBFFDBFFDBFFDAFFDAFFDAFF9A
:10594000DAFFDAFFDAFFDAFFDAFFDAFFDAFFDAFF8F
:10595000DAFFDAFFDAFFDAFFDAFFDAFFDAFFDAFF7F
:10596000DAFFDAFFDAFFDAFFDAFFD9FFD9FFD9FF72
:10597000D9FFD9FFD9FFD9FFD9FFD9FFD9FFD9FF67
:10598000D9FFD9FFD9FFD9FFD9FFD9FFD9FFD9FF57
:10599000D9FFD9FFD9FFD8FFD8FFD8FFD8FFD8FF4C
:1059A000D8FFD8FFD8FFD8FFD8FFD8FFD8FFD8FF3F
:1059B000D8FFD8FFD8FFD8FFD8FFD8FFD8FFD8FF2F
:1059C000D8FFD7FFD7FFD7FFD7FFD7FFD7FFD7FF26
:1059D000D7FFD7FFD7FFD7FFD7FFD7FFD7FFD7FF17
:1059E000D7FFD7FFD7FFD7FFD7FFD6FFD6FFD6FF0A
:1059F000D6FFD6FFD6FFD6FFD6FFD6FFD6FFD6FFFF
:105A0000D6FFD6FFD6FFD6FFD6FFD6FFD6FFD5FFEF
:105A1000D5FFD5FFD5FFD5FFD5FFD5FFD5FFD5FFE6
:105A2000D5FFD5FFD5FFD5FFD5FFD5FFD5FFD5FFD6
:105A3000D5FFD4FFD4FFD4FFD4FFD4FFD4FFD4FFCD
:105A4000D4FFD4FFD4FFD4FFD4FFD4FFD4FFD4FFBE
:105A5000D4FFD3FFD3FFD3FFD3FFD3FFD3FFD3FFB5
:105A6000D3FFD3FFD3FFD3FFD3FFD3FFD3FFD3FFA6
:105A7000D2FFD2FFD2FFD2FFD2FFD2FFD2FFD2FF9E
:105A8000D2FFD2FFD2FFD2FFD2FFD2FFD2FFD1FF8F
:105A9000D1FFD1FFD1FFD1FFD1FFD1FFD1FFD1FF86
:105AA000D1FFD1FFD1FFD1FFD0FFD0FFD0FFD0FF7A
:105AB000D0FFD0FFD0FFD0FFD0FFD0FFD0FFD0FF6E
:105AC000CFFFCFFFCFFFCFFFCFFFCFFFCFFFCFFF66
:105AD000CFFFCFFFCFFFCFFFCEFFCEFFCEFFCEFF5A
